:100000000C9409010C9468040C948E040C94A60BB7
:100010000C94F20A0C9426010C9426010C942601EF
:100020000C9426010C9426010C94B00F0C9426011C
:100030000C9426010C947F150C9426010C94260137
:100040000C9426010C9426010C9426010C94A41304
:100050000C94260154686520526F626F74206E659F
:1000600065647320746F20626520726573657474B3
:100070006564206E6F772E0A0A00596F75206E65D1
:10008000656420746F20636865636B204D6F746FC7
:100090007220617373656D626C7920286F722079AC
:1000A0006F757220736F667477617265292E0A0A04
:1000B000000A0A28732E207461736B5F6D6F746F72
:1000C00072436F6E74726F6C28292066756E63744C
:1000D000696F6E20696E205250364C696221290A80
:1000E000000A0A232323204D4F544F52204F5645D8
:1000F0005243555252454E54202323230A00596F30
:1001000075206E65656420746F20636865636B207D
:10011000456E636F6465722F4D6F746F72206173EB
:1001200073656D626C7920286F7220796F7572200B
:10013000736F667477617265292E0A0A00210A0AB4
:1001400028732E207461736B5F6D6F746F72436FD1
:100150006E74726F6C28292066756E6374696F6E99
:1001600020696E205250364C696221290A0052499A
:10017000474854004C4546540041666665637465C3
:1001800064206368616E6E656C3A000A2323232045
:10019000454E434F44455220284F52204D4F544F17
:1001A0005229204D414C46554E4354494F4E212033
:1001B0002323230A00232323232320414C4C204FB5
:1001C0005045524154494F4E532053544F5050457F
:1001D0004420544F2050524556454E5420414E59CC
:1001E0002044414D414745212023232323230A0056
:1001F0000A0A232323232320454D455247454E43D6
:10020000592053485554444F574E2023232323232A
:100210000A0011241FBECFE5D8E0DEBFCDBF11E03C
:10022000A0E6B0E0E0E1F9E302C005900D92A4374A
:10023000B107D9F712E0A4E7B1E001C01D92A236E0
:10024000B107E1F70E94E5010C94861C0C940000B4
:10025000DF93CF93CDB7DEB780919801882341F02B
:100260000E94BD0881E090E09093960180939501F3
:100270008091F501882341F00E94BD0882E090E062
:100280009093960180939501CF91DF910895DF932C
:10029000CF9300D0CDB7DEB78091950190919601B4
:1002A0009A83898389819A818130910509F443C0B9
:1002B00089819A818130910560F089819A818230AB
:1002C000910509F45BC089819A818330910521F001
:1002D00077C00E94BD0874C0809160009091610059
:1002E000AA2797FDA095BA2FBC01CD010E9419192C
:1002F000DC01CB01BC01CD012FE832EC45E75EE328
:100300000E943D18DC01CB01BC01CD010E946716A3
:10031000DC01CB019C0188EC60E0A90121E00E9496
:10032000E7080E94A108882309F44AC010929601A8
:100330001092950145C086E961E040EA51E021E074
:100340000E94E70886E963E04AE550E021E00E9468
:10035000B20986E960E040EA51E021E00E94E70846
:1003600086E962E04AE550E021E00E94B2090E947D
:10037000BD080E94A1088130F1F622C086E961E043
:1003800040EA51E021E00E94E70886E962E04AE5A0
:1003900050E021E00E94B20986E960E040EA51E0C5
:1003A00021E00E94E70886E963E04AE550E021E0A9
:1003B0000E94B2090E94BD080E94A1088130F1F696
:1003C0000F900F90CF91DF910895DF93CF93CDB72A
:1003D000DEB70E94EE1288EE93E00E9475120E9432
:1003E000740F83E090E0909396018093950188E2EA
:1003F00091E00E9439030E9447010E94DF120E948F
:10040000A1088130C1F780919501909196010097E4
:1004100091F383E090E09093960180939501EBCF68
:10042000DF93CF93CDB7DEB78091AC01843010F06D
:100430001092AC01CF91DF910895DF93CF93CDB7A8
:10044000DEB784E08093AC01CF91DF910895DF9314
:10045000CF9300D0CDB7DEB7A7E3B0E0E7E3F0E09D
:1004600080818C778C93A8E3B0E0E8E3F0E08081B2
:100470008C778C93809197018870882371F0A7E323
:10048000B0E0E7E3F0E0808180688C93A8E3B0E01F
:10049000E8E3F0E0808180688C938091970180711F
:1004A000882371F0A7E3B0E0E7E3F0E080818260A9
:1004B0008C93A8E3B0E0E8E3F0E0808182608C9365
:1004C000809197018072882371F0A7E3B0E0E7E3A1
:1004D000F0E0808181608C93A8E3B0E0E8E3F0E095
:1004E000808181608C93A4E3B0E0E4E3F0E080815C
:1004F0008F788C93A5E3B0E0E5E3F0E080818F781E
:100500008C93A4E3B0E0E4E3F0E08081282F8091B5
:100510009701882F90E082959295907F9827807F11
:1005200098278077822B8C93A5E3B0E0E5E3F0E099
:100530008081282F80919701882F90E08295929555
:10054000907F9827807F98278077822B8C9380914B
:10055000AC01882359F4809197018A838A8188238A
:1005600011F081E08A838A81898303C08091AC0184
:10057000898389818093AC010F900F90CF91DF9197
:100580000895DF93CF930F92CDB7DEB7898389812A
:10059000809397010E9427020F90CF91DF910895D9
:1005A000DF93CF930F92CDB7DEB7A8E3B0E0E8E3D7
:1005B000F0E080818E7F8C93A7E3B0E0E7E3F0E08A
:1005C00080818E7F8C930000E6E3F0E08081817073
:1005D0008983809197018072882371F0A7E3B0E04E
:1005E000E7E3F0E0808181608C93A8E3B0E0E8E38A
:1005F000F0E0808181608C9389810F90CF91DF91B1
:100600000895DF93CF930F92CDB7DEB7A5E3B0E0A7
:10061000E5E3F0E080818F7B8C93A4E3B0E0E4E33A
:10062000F0E080818F7B8C930000E3E3F0E0808139
:1006300080748983809197018470882371F0A4E38A
:10064000B0E0E4E3F0E0808180648C93A5E3B0E067
:10065000E5E3F0E0808180648C9389810F90CF91F5
:10066000DF910895DF93CF93CDB7DEB7CF91DF91C0
:100670000895DF93CF9300D0CDB7DEB79A838983F7
:1006800089819A8190936300809362000F900F900C
:10069000CF91DF910895DF93CF9300D0CDB7DEB730
:1006A0008091E4018333E8F00E94D0028A830E94A3
:1006B00001038983909198018A81981729F4909178
:1006C000F5018981981759F08A8180939801898171
:1006D0008093F501E0916200F0916300099510921A
:1006E000E4010F900F90CF91DF910895DF93CF93A6
:1006F00000D00F92CDB7DEB78983E6E2F0E08081CB
:10070000882F90E080749070009719F01B821A82F5
:100710001FC0E7E2F0E0898180648083E6E2F0E0D8
:1007200086ED8083E6E2F0E08081882F90E080749F
:1007300090700097B9F7A6E2B0E0E6E2F0E08081C1
:1007400080618C93E4E2F0E0808191819B838A83D5
:100750008A819B810F900F900F90CF91DF91089528
:10076000DF93CF930F92CDB7DEB78983E7E2F0E056
:10077000898180648083E6E2F0E086ED80830F90DB
:10078000CF91DF910895DF93CF9300D0CDB7DEB73F
:10079000E6E2F0E08081882F90E08074907000970E
:1007A00009F091C080917901282F30E03A832983A4
:1007B00089819A818330910509F44AC029813A815F
:1007C000243031057CF489819A818130910541F191
:1007D00029813A81223031057CF589819A810097FF
:1007E00099F065C029813A812530310509F448C066
:1007F00089819A8185309105BCF129813A81263021
:10080000310509F449C053C0E4E2F0E080819181F0
:100810009093F9018093F80186E00E94B00347C0ED
:10082000E4E2F0E0808191819093FE018093FD01EC
:1008300085E00E94B0033BC0E4E2F0E0808191815A
:100840009093EF018093EE0183E00E94B0032FC0EC
:10085000E4E2F0E0808191819093B8018093B70148
:1008600082E00E94B00323C0E4E2F0E08081918145
:100870009093DE018093DD0180E00E94B00317C0F9
:10088000E4E2F0E0808191819093EC018093EB01B0
:1008900081E00E94B0030BC0E4E2F0E0808191812E
:1008A0009093B6018093B50187E00E94B0038091D8
:1008B0007901863019F41092790105C0809179018F
:1008C0008F5F809379010F900F90CF91DF91089502
:1008D0001F920F920FB60F9211248F939F93DF9365
:1008E000CF93CDB7DEB78091F3019091F4010196DB
:1008F0009093F4018093F3018091E9019091EA01D2
:1009000001969093EA018093E901CF91DF919F9145
:100910008F910F900FBE0F901F9018951F920F92FE
:100920000FB60F9211248F939F93DF93CF93CDB780
:10093000DEB78091E5019091E60101969093E60182
:100940008093E5018091BF019091C0010196909341
:10095000C0018093BF01CF91DF919F918F910F9044
:100960000FBE0F901F901895DF93CF93CDB7DEB7D2
:10097000CF91DF910895DF93CF9300D0CDB7DEB74D
:100980009A83898389819A8190936500809364001A
:100990000F900F90CF91DF910895DF93CF9300D008
:1009A000CDB7DEB78A83F894A2E3B0E0E2E3F0E0EB
:1009B00080818F778C930E94DA0E1092AE01109294
:1009C000AD011092BE011092BD011092A8011092CB
:1009D000A7011092E3011092E2011092FC01109223
:1009E000DA01EAE4F0E01082E8E4F0E01082EFE4FB
:1009F000F0E010820E94890F80EF91E00E94BC1409
:100A000085EB91E00E94BC148A81813019F08A81C3
:100A10008230E9F48BE891E00E94BC1489E791E010
:100A20000E94BC148A81813029F484E791E00E94FD
:100A3000BC1404C08EE691E00E94BC148DE391E0EA
:100A40000E94BC148EEF90E00E94BC140FC08A81FB
:100A5000833061F481EE90E00E94BC1481EB90E061
:100A60000E94BC148AE790E00E94BC1484E590E0E8
:100A70000E94BC1486E30E94C1028AE0898307C0F9
:100A800080E090E80E949612898181508983898153
:100A90008823B1F780E00E94C1028AE0898307C001
:100AA0008FEF9FEF0E9496128981815089838981FF
:100AB0008823B1F7DFCFDF93CF93CDB7DEB7289789
:100AC0000FB6F894DEBF0FBECDBF8091D90182333F
:100AD00008F47EC01092D9018091D601882309F0D4
:100AE00043C08091FD019091FE0123E08330920785
:100AF00040F48091EE019091EF0143E08330940740
:100B0000F0F08091D8018F5F8093D8018AE08093C4
:100B1000D6011092AE011092AD011092BE0110925A
:100B2000BD011092A8011092A7011092E30110924A
:100B3000E2018091940184608093940159C2809174
:100B400094018B7F809394018091A301853628F0D6
:100B50001092D8011092A30107C08091D801833070
:100B600018F083E00E94CD048091FD019091FE0178
:100B70008639910598F48091AF019091B00100976A
:100B800069F480919D0190919E01009739F08091C8
:100B9000FC01873918F081E00E94CD048091EE01BC
:100BA0009091EF018639910598F48091F10190912F
:100BB000F201009769F480919B0190919C0100974C
:100BC00039F08091DA01873918F082E00E94CD0473
:100BD0008091AB01882309F4FCC18091D601882360
:100BE00009F0F0C18091D801882331F08091A301F0
:100BF0008F5F8093A30102C01092A30180919401A2
:100C00008270882309F43FC02091F3013091F401F0
:100C10008091990190919A012817390790F01092CC
:100C20009E0110929D011092A8011092A7011092AE
:100C3000AE011092AD01809194018D7F809394015B
:100C400022C02091F3013091F4018091B101909183
:100C5000B20128173907B8F080919D0190919E014B
:100C60009695879590939E0180939D0180919D011B
:100C700090919E018631910530F486E190E0909349
:100C80009E0180939D01809194018170882309F4D5
:100C90003FC02091E5013091E6018091BB01909128
:100CA000BC012817390790F010929C0110929B010B
:100CB0001092E3011092E2011092BE011092BD0168
:100CC000809194018E7F8093940122C02091E50150
:100CD0003091E6018091E7019091E80128173907EA
:100CE000B8F080919B0190919C0196958795909387
:100CF0009C0180939B0180919B0190919C01863186
:100D0000910530F486E190E090939C0180939B01E3
:100D10009091740180917601981739F49091750142
:100D200080917701981709F464C080919D0190919A
:100D30009E01009731F480919B0190919C01009756
:100D400041F180919D0190919E019093A00180932B
:100D50009F0180919B0190919C019093B40180939D
:100D6000B30110929E0110929D0110929C0110926D
:100D70009B011092BE011092BD011092AE01109223
:100D8000AD011092A8011092A7011092E3011092F8
:100D9000E201EFE4F0E08081882359F5809174014D
:100DA00090917501692F0E947E0A80919F01909118
:100DB000A00190939E0180939D018091B301909139
:100DC000B40190939C0180939B0180919D0190912F
:100DD0009E01969587959093A8018093A701809195
:100DE0009B0190919C01969587959093E301809348
:100DF000E20120919D0130919E018091AF0190917F
:100E0000B001A901481B590BCA019C838B83209117
:100E1000A7013091A8018B819C81820F931F909331
:100E2000A8018093A7018091A7019091A80151E0AA
:100E3000853A950734F084EA91E09093A801809375
:100E4000A7018091A7019091A8012EEF8C35920700
:100E500034F48CE59EEF9093A8018093A7018091D4
:100E6000AF019091B001009751F480919D01909154
:100E70009E01009721F41092A8011092A701809181
:100E8000A7019091A8019E838D834D815E8155239A
:100E90002CF48D819E8101969E838D838D819E8110
:100EA000959587959093AE018093AD018091AD01AA
:100EB0009091AE01833D910534F082ED90E09093E6
:100EC000AE018093AD018091AD019091AE01992367
:100ED00024F41092AE011092AD0120919B0130914B
:100EE0009C018091F1019091F201A901481B590BDD
:100EF000CA019A8389832091E2013091E3018981BB
:100F00009A81820F931F9093E3018093E201809175
:100F1000E2019091E30151E0853A950734F084EACB
:100F200091E09093E3018093E2018091E20190913E
:100F3000E3012EEF8C35920734F48CE59EEF90930D
:100F4000E3018093E2018091F1019091F201009719
:100F500051F480919B0190919C01009721F4109293
:100F6000E3011092E2018091E2019091E301988700
:100F70008F834F81588555232CF48F819885019656
:100F800098878F838F819885959587959093BE01DB
:100F90008093BD018091BD019091BE01833D91057B
:100FA00034F082ED90E09093BE018093BD0180917A
:100FB000BD019091BE01992354F41092BE0110928C
:100FC000BD0105C08091D60181508093D601109259
:100FD000AB01909194018091F701981749F08091AD
:100FE00094018093F701E0916400F0916500099508
:100FF00028960FB6F894DEBF0FBECDBFCF91DF911C
:101000000895DF93CF9300D0CDB7DEB789836A838D
:101010008981893C10F088EC89838A81893C10F0B1
:1010200088EC8A838981882F90E090939E01809339
:101030009D018A81882F90E090939C0180939B0171
:101040000F900F90CF91DF910895DF93CF9300D051
:1010500000D00F92CDB7DEB7898389818093780164
:101060008981813019F08981823029F481E090E012
:101070009D838C8302C01D821C828C8180937401AD
:101080008981813019F08981833029F481E090E0F1
:101090009B838A8302C01B821A828A818093750196
:1010A0000F900F900F900F900F90CF91DF910895B8
:1010B000DF93CF93CDB7DEB72A970FB6F894DEBF94
:1010C0000FBECDBF9C838B837E836D831A868B81FD
:1010D0009C81992314F481E08A878A858093740126
:1010E00019868D819E81992314F481E089878985F1
:1010F000809375018B819C81181619061CF48B81D5
:10110000888703C08B818195888788858A838B81B6
:101110009C81181619061CF48D818F8303C08D8164
:1011200081958F838F8189838A8169810E940108DB
:101130002A960FB6F894DEBF0FBECDBFCF91DF91D8
:101140000895DF93CF9300D0CDB7DEB7809194019F
:101150008170882351F4809194018270882329F44E
:1011600081E090E09A83898302C01A821982898182
:101170000F900F90CF91DF910895DF93CF93CDB76C
:10118000DEB710929E0110929D0110929C01109268
:101190009B011092A8011092A7011092E3011092F6
:1011A000E201809194018E7F80939401809194015B
:1011B0008D7F80939401809194018093F701E09159
:1011C0006400F09165000995CF91DF910895DF9358
:1011D000CF9300D000D00F92CDB7DEB789836A835A
:1011E0005C834B832D838091940181608093940173
:1011F000809194018260809394011092E801109292
:10120000E7011092B2011092B10189818731D0F0CB
:101210008981282F30E086EF9FEF821B930B880F88
:10122000991F9C018B819C81820F931F9093E801F1
:101230008093E7018091E7019091E8019093B201DA
:101240008093B1018B819C8102979093BC01809324
:10125000BB018091BB019091BC0190939A01809356
:1012600099018B819C818832910500F588E290E09C
:101270009C838B8384E190E09093BC018093BB01BD
:101280008091BB019091BC0190939A018093990148
:101290008AE090E09093E8018093E7018091E70174
:1012A0009091E8019093B2018093B1018B819C8170
:1012B00021E080399207E0F489818932C8F088E220
:1012C00089838B819C819C0136952795369527953E
:1012D0008B819C81821B930B9093E8018093E701A3
:1012E0008091E7019091E8019093B2018093B10160
:1012F0001092F4011092F3011092E6011092E501B0
:10130000898169810E9401088A810E9425088B8158
:101310009C819093C4018093C3018B819C819093A5
:10132000A5018093A401809194018093F70180919D
:1013300094018093F701E0916400F09165000995B4
:101340008D81882339F002C00E94DF120E94A1081B
:101350008823D1F30F900F900F900F900F90CF91A3
:10136000DF910895DF93CF93CDB7DEB727970FB600
:10137000F894DEBF0FBECDBF8B836C835E834D833D
:101380002F838091940181608093940180919401D6
:101390008260809394018D819E81CC01A0E0B0E0B9
:1013A00020EB32E040E050E0BC01CD010E94C01BC8
:1013B000DC01CB0124E630E040E050E0BC01CD018F
:1013C0000E94F31BDA01C9019A83898389819A817A
:1013D000845690409093E8018093E70189819A8137
:1013E000845690409093B2018093B10189819A8193
:1013F0009093BC018093BB0189819A8190939A015B
:101400008093990189819A8188329105E0F488E27C
:1014100090E09A83898384E190E09093BC0180936B
:10142000BB0184E190E090939A01809399018AE056
:1014300090E09093E8018093E7018AE090E0909338
:10144000B2018093B1018B816B810E9401088C8174
:101450000E9425081092F4011092F3011092E60107
:101460001092E50189819A819093C4018093C30110
:1014700089819A819093A5018093A4018091940120
:101480008093F701E0916400F091650009958F81E8
:10149000882339F002C00E94DF120E94A10888232D
:1014A000D1F327960FB6F894DEBF0FBECDBFCF9114
:1014B000DF910895DF93CF9300D0CDB7DEB7898356
:1014C0006A838981833D10F082ED89838A81833D1F
:1014D00010F082ED8A838A81882F90E09093BE017C
:1014E0008093BD018981882F90E09093AE01809315
:1014F000AD010F900F90CF91DF910895DF93CF93BF
:1015000000D0CDB7DEB789836A8389818093760165
:101510008A81809377018981809374018A81809385
:1015200075018981882341F0A5E3B0E0E5E3F0E0AF
:10153000808184608C9307C0A5E3B0E0E5E3F0E030
:1015400080818B7F8C938A81882341F0A5E3B0E072
:10155000E5E3F0E0808188608C9307C0A5E3B0E00C
:10156000E5E3F0E08081877F8C930F900F90CF911F
:10157000DF910895DF93CF9300D0CDB7DEB7898395
:101580006A8307C0A9E5B0E0E9E5F0E08081806802
:101590008C938091A2018823A9F78981882F90E0FC
:1015A0008F7390709C01002436952795079436958B
:1015B00027950794322F202D8A81882F90E08F73F2
:1015C0009070822B932B90639093C2018093C10102
:1015D0008091A10180648093A1010F900F90CF9121
:1015E000DF9108951F920F920FB60F9211248F93DF
:1015F0009F93AF93BF93EF93FF93DF93CF93CDB7B9
:10160000DEB780916600823008F065C080917A0173
:101610008823D9F180917A018C33C8F48091DB0161
:101620009091DC0180709074009749F0A2E3B0E0E3
:10163000E2E3F0E0908180E889278C9320C0A2E368
:10164000B0E0E2E3F0E080818F778C9318C0809166
:10165000DB019091DC0180709074009741F0A2E36F
:10166000B0E0E2E3F0E080818F778C9308C0A2E3E2
:10167000B0E0E2E3F0E0908180E889278C938091EC
:101680007A01815080937A0154C08091A20188230D
:10169000D1F0A2E3B0E0E2E3F0E080818F778C93B9
:1016A0008091DB019091DC01880F991F9093DC0100
:1016B0008093DB0188E780937A018091A2018150B9
:1016C0008093A20136C0A2E3B0E0E2E3F0E08081C3
:1016D0008F778C932EC08091A6018823E1F08091B2
:1016E000A1018170882349F4A8E3B0E0E8E3F0E0C9
:1016F000908180E489278C9308C0A5E3B0E0E5E3FE
:10170000F0E0908180E889278C938091A601815038
:101710008093A6010EC0A8E3B0E0E8E3F0E080818A
:1017200080648C93A5E3B0E0E5E3F0E0808180681D
:101730008C93CF91DF91FF91EF91BF91AF919F91EA
:101740008F910F900FBE0F901F9018951F920F92C0
:101750000FB60F9211248F939F93EF93FF93DF9314
:10176000CF930F92CDB7DEB780916600833021F022
:10177000809166008630C1F48091A1018071882338
:1017800099F48091A1018072882371F0E6E3F0E082
:101790008081882F90E084709070009729F4809168
:1017A000F6018F5F8093F601E6E3F0E0808180919F
:1017B000A1018D7F8093A1010F90CF91DF91FF91C7
:1017C000EF919F918F910F900FBE0F901F901895E2
:1017D000DF93CF9300D0CDB7DEB79A8389830F9084
:1017E0000F90CF91DF910895DF93CF9300D0CDB7C5
:1017F000DEB79A83898389819A8190936800809368
:1018000067000F900F90CF91DF910895DF93CF93F2
:10181000CDB7DEB7CF91DF910895DF93CF9300D09E
:10182000CDB7DEB79A83898389819A8190936A00C4
:10183000809369000F900F90CF91DF910895DF930F
:10184000CF93CDB7DEB72E970FB6F894DEBF0FBE9D
:10185000CDBF8091B9019091BA018230910508F411
:101860004DC28091A1018071882309F024C280912A
:101870006600282F30E03E872D878D859E8582303B
:10188000910509F4B9C02D853E852330310554F406
:101890008D859E850097C9F02D853E8521303105C7
:1018A00089F10FC28D859E858530910509F454C15B
:1018B0002D853E852630310509F483C18D859E85B1
:1018C0008330910509F4CDC0FCC1A9E5B0E0E9E59C
:1018D000F0E080818F778C93A2E3B0E0E2E3F0E068
:1018E00080818F778C93A8E3B0E0E8E3F0E080811B
:1018F00080648C93A5E3B0E0E5E3F0E0808180684C
:101900008C93DFC18091A201882309F04DC08091A2
:10191000A10180748823C1F08091C1019091C2011E
:101920009093DC018093DB018EE08093A201809193
:10193000A1018F7B8093A101A9E5B0E0E9E5F0E08A
:10194000808180688C931CC0A9E5B0E0E9E5F0E0F7
:1019500080818F778C93A2E3B0E0E2E3F0E08081B6
:101960008F778C93A8E3B0E0E8E3F0E080818064B7
:101970008C93A5E3B0E0E5E3F0E0808180688C9390
:1019800090917F019C871B862C85243110F031E0DB
:101990003B878C858F5F80937F018B85882359F0EF
:1019A00082E08093660007C0A9E5B0E0E9E5F0E0D9
:1019B000808180688C938091A1018870882309F4CC
:1019C00080C1E0916700F09168008091FA019091E8
:1019D000FB0109958091FA019091FB019093AA0176
:1019E0008093A9011092FB011092FA018091A1014C
:1019F000877F8093A10165C1A9E5B0E0E9E5F0E04A
:101A000080818F778C93A2E3B0E0E2E3F0E0808105
:101A10008F778C93A8E3B0E0E8E3F0E08081806406
:101A20008C93A5E3B0E0E5E3F0E0808180688C93DF
:101A30001092A6011092F60110927E0110927D0183
:101A40008091A1018E7F8093A1018091A10180628C
:101A50008093A10183E080937F0183E080936600FF
:101A600030C18091A6018823E1F490917F019A878B
:101A700019862A85233010F031E039878A858F5FF7
:101A800080937F018985882361F0A9E5B0E0E9E5CD
:101A9000F0E0808180688C9388E28093A6011092A8
:101AA0007F018091D701882369F08091F60182300F
:101AB00048F01092F60181E08093D70185E0809391
:101AC0006600FFC08091F601863048F01092F60162
:101AD00081E08093D70185E080936600F2C0209179
:101AE0007D0130917E0138872F831E828F819885FA
:101AF0008E30910510F091E09E838F81988501963C
:101B000090937E0180937D012E81222309F4D9C018
:101B10001092D70185E080936600A9E5B0E0E9E581
:101B2000F0E080818F778C93A2E3B0E0E2E3F0E015
:101B300080818F778C93A8E3B0E0E8E3F0E08081C8
:101B400080648C93A5E3B0E0E5E3F0E080818068F9
:101B50008C931092A601B5C0A9E5B0E0E9E5F0E0EC
:101B600080818F778C93A2E3B0E0E2E3F0E08081A4
:101B70008F778C93A8E3B0E0E8E3F0E080818064A5
:101B80008C93A5E3B0E0E5E3F0E0808180688C937E
:101B90001092A6011092F60110927E0110927D0122
:101BA0008091A10181608093A1018091A101806257
:101BB0008093A10183E080937F0186E0809366009B
:101BC00080C08091A6018823E1F430917F013D839C
:101BD0001C828D81833010F091E09C838D818F5F1A
:101BE00080937F012C81222361F0A9E5B0E0E9E533
:101BF000F0E0808180688C9388E28093A601109247
:101C00007F018091E001882369F08091F6018230A4
:101C100048F01092F60181E08093E00181E080932A
:101C200066004FC08091F601863048F01092F601B0
:101C300081E08093E00181E08093660042C0809162
:101C40007D0190917E019B838A8319822A813B8149
:101C50002E30310510F031E039838A819B81019665
:101C600090937E0180937D018981882351F11092A8
:101C7000E00181E080936600A9E5B0E0E9E5F0E0ED
:101C800080818F778C93A2E3B0E0E2E3F0E0808183
:101C90008F778C93A8E3B0E0E8E3F0E08081806484
:101CA0008C93A5E3B0E0E5E3F0E0808180688C935D
:101CB0001092A60106C010927E0110927D01109232
:101CC0007F0190917C018091D701981731F4909118
:101CD0007B018091E001981769F08091D701809392
:101CE0007C018091E00180937B01E0916900F0919B
:101CF0006A0009951092BA011092B9012E960FB69A
:101D0000F894DEBF0FBECDBFCF91DF910895DF9372
:101D1000CF93CDB7DEB710926600A9E5B0E0E9E554
:101D2000F0E080818F778C93A2E3B0E0E2E3F0E013
:101D300080818F778C93A8E3B0E0E8E3F0E08081C6
:101D400080648C93A5E3B0E0E5E3F0E080818068F7
:101D50008C931092E0011092D701CF91DF910895FA
:101D6000DF93CF93CDB7DEB7A9E5B0E0E9E5F0E0CA
:101D700080818F778C93A2E3B0E0E2E3F0E0808192
:101D80008F778C93A8E3B0E0E8E3F0E08081806493
:101D90008C93A5E3B0E0E5E3F0E0808180688C936C
:101DA0001092E0011092D70181E080936600CF91FC
:101DB000DF910895DF93CF93CDB7DEB7A1E3B0E015
:101DC000E1E3F0E080818F7B8C93A2E3B0E0E2E37B
:101DD000F0E080818F7B8C93A7E3B0E0E7E3F0E055
:101DE0008081877F8C93A8E3B0E0E8E3F0E0808116
:101DF000877F8C93A8E3B0E0E8E3F0E080818F7BFD
:101E00008C93A5E3B0E0E5E3F0E080818F778C93DD
:101E1000CF91DF910895DF93CF93CDB7DEB7A1E3E4
:101E2000B0E0E1E3F0E0808180648C93A2E3B0E075
:101E3000E2E3F0E0808180648C93A7E3B0E0E7E325
:101E4000F0E08081877F8C93A8E3B0E0E8E3F0E0E6
:101E50008081877F8C93CF91DF910895DF93CF931B
:101E6000CDB7DEB7A1E3B0E0E1E3F0E080818F7BA6
:101E70008C93A2E3B0E0E2E3F0E080818F7B8C936F
:101E8000A7E3B0E0E7E3F0E0808188608C93A8E30B
:101E9000B0E0E8E3F0E0808188608C93CF91DF913F
:101EA0000895DF93CF93CDB7DEB7A1E3B0E0E1E3D0
:101EB000F0E0808180648C93A2E3B0E0E2E3F0E0A4
:101EC000808180648C93A7E3B0E0E7E3F0E0808159
:101ED00088608C93A8E3B0E0E8E3F0E0808188605C
:101EE0008C93CF91DF910895DF93CF93CDB7DEB779
:101EF000A8E3B0E0E8E3F0E0808180618C9380911A
:101F0000AC01843018F483E08093AC01CF91DF9171
:101F10000895DF93CF9300D0CDB7DEB7A8E3B0E04C
:101F2000E8E3F0E080818F7E8C938091AC01843077
:101F300090F48091AC01882321F48091970188234B
:101F400029F081E090E09A83898302C01A82198285
:101F500089818093AC010F900F90CF91DF9108950C
:101F60001F920F920FB60F9211242F933F935F93FE
:101F70006F937F938F939F93AF93BF93EF93FF9351
:101F8000DF93CF93CDB7DEB72B97DEBFCDBF809168
:101F90009201909193010196909393018093920105
:101FA0008091ED018F5F8093ED012091F0012B87EF
:101FB0001A868B85893010F091E09A878B858F5F28
:101FC0008093F0012A85222309F4ECC18091C50198
:101FD000882F90E081709070882349F08091C6012D
:101FE0009091C70101969093C7018093C60180919B
:101FF000C501882F90E082709070009749F0809121
:10200000C8019091C90101969093C9018093C801BC
:102010008091C501882F90E084709070009749F0FE
:102020008091CA019091CB0101969093CB0180934E
:10203000CA018091C501882F90E088709070009748
:1020400049F08091CC019091CD0101969093CD0102
:102050008093CC018091C501882F90E080719070B1
:10206000009749F08091CE019091CF010196909315
:10207000CF018093CE018091C501882F90E08072BE
:102080009070009749F08091D0019091D101019614
:102090009093D1018093D0018091C501882F90E069
:1020A00080749070009749F08091D2019091D30193
:1020B00001969093D3018093D2018091C50188232A
:1020C0004CF48091D4019091D50101969093D50163
:1020D0008093D4018091E101898718869985993C84
:1020E00010F021E0288789858F5F8093E101888542
:1020F0008823E9F08091BF019091C0019093F20193
:102100008093F1018091E9019091EA019093B001EF
:102110008093AF011092C0011092BF011092EA01AA
:102120001092E90181E08093AB011092E10180916E
:10213000AC01833008F0A3C08091AC01823009F07B
:102140006BC080919701882309F04BC08091840176
:10215000909185019F838E8328EC30E08E819F8152
:10216000B9010E94DF1B1D82009711F491E09D834D
:102170008E819F81019690938501809384012D81AA
:10218000222309F47CC080918401909185012FE085
:10219000813A9207A8F0A7E3B0E0E7E3F0E080819E
:1021A0008D7F8C93A8E3B0E0E8E3F0E080818D7F41
:1021B0008C931092AC0110928501109284015FC043
:1021C000A7E3B0E0E7E3F0E0908182E089278C9319
:1021D000A8E3B0E0E8E3F0E0908182E089278C9307
:1021E0004EC0809197018071882371F4A7E3B0E01D
:1021F000E7E3F0E080818D7F8C93A8E3B0E0E8E333
:10220000F0E080818D7F8C93109285011092840183
:1022100081E08093AC0133C080918401909185016D
:102220002EE2813E920710F18091AC018130B1F431
:102230001092AC01809197018071882391F4A7E3FB
:10224000B0E0E7E3F0E080818D7F8C93A8E3B0E01D
:10225000E8E3F0E080818D7F8C9303C082E080937F
:10226000AC01109285011092840109C08091840113
:1022700090918501019690938501809384018091CE
:10228000B9019091BA018330910548F48091B90168
:102290009091BA0101969093BA018093B90180910F
:1022A000D901873328F48091D9018F5F8093D901B8
:1022B0008091E401843328F48091E4018F5F80935E
:1022C000E4018091DF018C831B829C81933010F0AC
:1022D00021E02B838C818F5F8093DF018B818823AA
:1022E00009F45EC08091DA01282F30E08091BD01B1
:1022F0009091BE0128173907D9F08091DA01282F73
:1023000030E08091BD019091BE012817390734F467
:102310008091DA018F5F8093DA0105C08091DA0144
:1023200081508093DA01EAE4F0E08091DA01808361
:102330008091FC01282F30E08091AD019091AE0199
:1023400028173907D9F08091FC01282F30E08091BF
:10235000AD019091AE012817390734F48091FC014A
:102360008F5F8093FC0105C08091FC0181508093B8
:10237000FC01E8E4F0E08091FC0180838091FC01A5
:10238000882321F48091DA01882329F0EFE4F0E03A
:1023900082EA808303C0EFE4F0E010821092DF0154
:1023A0001092F0018091A1018870882309F077C014
:1023B00080918001909181019A838983809182012B
:1023C0008F5F80938201809182018631F0F0898154
:1023D0009A8180709074009789F489819A818070C5
:1023E0009072009759F089819A819093FB018093B4
:1023F000FA018091A10188608093A1018091A101DF
:102400008F7E8093A1011A821982E6E3F0E0908129
:10241000809183018927882F90E0847090700097C5
:10242000C1F1809183018095809383018091820125
:10243000873038F48091A1018F7E8093A1011A82A8
:10244000198289819A81009721F0809182018F30D1
:1024500000F18091A10180618093A10189819A811D
:1024600080709074009731F489819A81880F991F48
:102470009A83898380918301882F90E08470907083
:10248000009729F489819A8181609A8389831092C7
:10249000820189819A8190938101809380012B969A
:1024A000DEBFCDBFCF91DF91FF91EF91BF91AF9193
:1024B0009F918F917F916F915F913F912F910F909D
:1024C0000FBE0F901F901895DF93CF930F92CDB74B
:1024D000DEB789831092ED019091ED018981981703
:1024E000D8F30F90CF91DF910895DF93CF9300D071
:1024F0000F92CDB7DEB79A83898303C08AE00E942A
:1025000064121B8289819A81009711F081E08B838C
:1025100089819A8101979A8389838B81882371F7B6
:102520000F900F900F90CF91DF910895DF93CF938D
:1025300000D00F92CDB7DEB79A83898301C0000027
:102540001B8289819A81009711F081E08B838981B8
:102550009A8101979A8389838B81882381F70F90D1
:102560000F900F90CF91DF910895DF93CF93CDB768
:10257000DEB7AAE3B0E0EAE3F0E0808180618C930B
:10258000ABE3B0E0EBE3F0E0808180618C93CF912E
:10259000DF910895DF93CF93CDB7DEB7ABE3B0E023
:1025A000EBE3F0E080818F7E8C93AAE3B0E0EAE376
:1025B000F0E080818F7E8C93CF91DF910895DF933F
:1025C000CF93CDB7DEB70E94C3030E941F0C0E94B9
:1025D0004B030E945B05CF91DF910895DF93CF936A
:1025E0000F92CDB7DEB7EBE3F0E01082E8E3F0E066
:1025F0001082E5E3F0E01082E2E3F0E081E0808326
:10260000EAE3F0E01082E7E3F0E088E58083E4E3CA
:10261000F0E08CE88083E1E3F0E082EF8083F894DF
:10262000A8E3B0E0E8E3F0E080818F7D8C93A7E33E
:10263000B0E0E7E3F0E0808180628C938C91A2E3CC
:10264000B0E0E2E3F0E080818F778C930E94DA0EB5
:10265000E0E4F0E01082E9E2F0E08CE08083EBE27D
:10266000F0E01082E0E4F0E086E88083EAE2F0E067
:1026700088E98083E7E2F0E01082E6E2F0E086E1BC
:102680008083E0E5F0E01082E5E5F0E085E080831E
:10269000EBE5F0E080EE8083E4E5F0E01082E3E536
:1026A000F0E08AE08083ECE5F0E083E68083EFE40D
:1026B000F0E082EA8083EEE4F0E081E18083E6E40A
:1026C000F0E082ED90E091838083EAE4F0E0108214
:1026D000E8E4F0E0108280E060E00E947E0AE5E439
:1026E000F0E089E08083E3E4F0E08EE68083E9E5D2
:1026F000F0E082E080838091A10181608093A1015C
:1027000081E08093660078940F90CF91DF910895D7
:10271000DF93CF930F92CDB7DEB78983F894E2E2CF
:10272000F0E089818083E3E2F0E08FEF8083E6E5EB
:10273000F0E084E080837894E6E5F0E085EC808347
:102740000F90CF91DF9108951F920F920FB60F92C5
:1027500011242F933F938F939F93AF93BF93EF9346
:10276000FF93DF93CF9300D0CDB7DEB7E1E2F0E087
:102770008081282F30E03A83298389819A818039AA
:10278000910509F49CC029813A81213931059CF4D5
:1027900089819A818037910509F489C029813A811C
:1027A0002038310509F45AC089819A818036910513
:1027B00009F449C098C029813A81283A3105B9F015
:1027C00089819A81893A91053CF429813A81203A9C
:1027D000310509F47EC087C089819A81883B9105C3
:1027E00061F029813A81203C3105F9F07CC084E018
:1027F00080938A0181E08093880180918A018430EE
:1028000079F4A3E2B0E020918B01822F90E0FC01EB
:10281000E05FFD4F80818C93822F8F5F80938B01CF
:10282000E6E5F0E085EC808362C010928A011092A8
:102830008B011092880181E080938601E6E5F0E04B
:1028400085EC808354C081E08093890182E080938D
:102850008A01E6E5F0E085EC808349C080918A0139
:10286000823069F4E3E2F0E0808180938B01809113
:102870008B018093870183E080938A0113C080914C
:102880008A01833079F430918B01832F90E0E3E269
:10289000F0E02081FC01E050FE4F2083832F8F5F0A
:1028A00080938B01E6E5F0E085EC808320C081E039
:1028B00080938A01E6E5F0E085EC808318C0E3E2CE
:1028C000F0E080818093FF01E6E5F0E085EC808315
:1028D0000EC085E080938A01E6E5F0E085EC808318
:1028E0001092890104C0E6E5F0E084E880830F904F
:1028F0000F90CF91DF91FF91EF91BF91AF919F9199
:102900008F913F912F910F900FBE0F901F901895B0
:10291000DF93CF930F92CDB7DEB78983EBE2F0E080
:102920008081882F90E0807290700097B9F3ECE27C
:10293000F0E0898180830F90CF91DF910895DF933C
:10294000CF9300D0CDB7DEB79A8389830BC0E981DE
:10295000FA81208189819A8101969A838983822FC5
:102960000E948814E981FA818081882381F70F9081
:102970000F90CF91DF910895DF93CF9300D000D0D7
:1029800000D0CDB7DEB79E838D8303C08C810E94BB
:1029900088148D819E819B838A838D819E8101967F
:1029A0009E838D83EA81FB818491898389818C83D5
:1029B0008C81882359F726960FB6F894DEBF0FBE98
:1029C000CDBFCF91DF910895DF93CF9300D000D09A
:1029D000CDB7DEB79A8389836B834C838C81282F94
:1029E00030E089819A81820F931F9A8389830EC078
:1029F000E981FA81208189819A8101969A8389836C
:102A0000822F0E9488148B8181508B83E981FA8107
:102A10008081882319F08B81882351F70F900F90C4
:102A20000F900F90CF91DF910895DF93CF93CDB7A3
:102A3000DEB764970FB6F894DEBF0FBECDBF9B8B99
:102A40008A8B6C8B8C89482F50E08A899B899E01E8
:102A50002F5F3F4FB9010E94551CCE0101960E9485
:102A60009F1464960FB6F894DEBF0FBECDBFCF9112
:102A7000DF910895DF93CF93CDB7DEB766970FB69A
:102A8000F894DEBF0FBECDBF9C8B8B8B6D8B4E8BB6
:102A90008D89482F50E08B899C899E012E5F3F4F86
:102AA000B9010E94551CCE0102960E944C1C982F21
:102AB0008E89891B8983898118167CF406C08981D7
:102AC0008150898380E30E94881489811816BCF3A1
:102AD000CE0102960E949F1409C089818195282FFA
:102AE000CE0102966E89422F0E94E41466960FB6BC
:102AF000F894DEBF0FBECDBFCF91DF9108951F9236
:102B00000F920FB60F9211242F933F938F939F93A1
:102B1000EF93FF93DF93CF93CDB7DEB780918F0113
:102B200090918E01891B8032E8F490918D01292FBC
:102B300030E0ECE2F0E08081F901EF5BFD4F808353
:102B4000892F8F5F80938D0180918F018F5F80939C
:102B50008F0180918D01813210F010928D011092C1
:102B6000400208C0ECE2F0E080818093900181E0B7
:102B700080934002CF91DF91FF91EF919F918F91D0
:102B80003F912F910F900FBE0F901F901895DF93DC
:102B9000CF930F92CDB7DEB71092400290918F0184
:102BA00080918E019817C9F080918E018F5F80937C
:102BB0008E0180918C01813210F010928C01209155
:102BC0008C01822F90E0FC01EF5BFD4F80818983B7
:102BD000822F8F5F80938C0101C0198289810F90B1
:102BE000CF91DF910895DF93CF9300D000D0CDB780
:102BF000DEB79B838A836C8319821092400223C0C4
:102C000080918E018F5F80938E018981282F30E023
:102C10008A819B81DC01A20FB31F20918C01822F3E
:102C200090E0FC01EF5BFD4F80818C9389818F5F89
:102C30008983822F8F5F80938C0180918C018132F8
:102C400010F010928C0190918F0180918E01981755
:102C500021F099818C81981798F289810F900F90BB
:102C60000F900F90CF91DF910895DF93CF93CDB761
:102C7000DEB790918F0180918E01292F281B822F22
:102C8000CF91DF910895DF93CF93CDB7DEB7AAE25E
:102C9000B0E0EAE2F0E080818F778C93ECE2F0E044
:102CA00080818093910110928C0110928D0110927D
:102CB0008E0110928F0110924002AAE2B0E0EAE287
:102CC000F0E0808180688C93CF91DF910895EF923E
:102CD000FF920F931F937B018C0120E030E040E0D6
:102CE0005FE40E94E91888238CF0C801B70120E056
:102CF00030E040E05FE40E94DF170E9477199B01FB
:102D0000AC01205030404040504806C0C801B701D7
:102D10000E9477199B01AC01B901CA011F910F9163
:102D2000FF90EF900895A0E0B0E0E9E9F6E10C949F
:102D3000151CDC012B01FA019C91923008F439C179
:102D4000EB018881823008F433C1943069F4843017
:102D500009F02FC111969C9111978981981709F458
:102D600028C1ABE6B0E025C1843009F421C182302E
:102D7000A9F4923009F01DC19A01AD0188E0EA0181
:102D80000990AE01E90109929E018150C1F7E2016B
:102D9000898111969C918923818308C1923009F41D
:102DA00007C112962D903C901397EB018A819B816D
:102DB0001496AD90BD90CD90DC901797EC80FD807F
:102DC0000E811F819101281B390BB90137FF04C007
:102DD00066277727621B730B603271050CF061C0A8
:102DE000121613066CF537014801062E04C096949E
:102DF0008794779467940A94D2F721E030E040E01A
:102E000050E004C0220F331F441F551F6A95D2F7AC
:102E100021503040404050402E213F21402351233B
:102E2000211531054105510521F021E030E040E058
:102E300050E079018A01E628F728082919293CC0C1
:102E4000232BD1F1260E371E35014601062E04C074
:102E500096948794779467940A94D2F721E030E0AF
:102E600040E050E004C0220F331F441F551F6A95F5
:102E7000D2F721503040404050402A213B214C2184
:102E80005D21211531054105510521F021E030E09A
:102E900040E050E059016A01A628B728C828D9287F
:102EA0000BC0821593052CF01C01AA24BB246501DC
:102EB00003C0EE24FF24870111969C91D201119644
:102EC0008C91981709F445C0992339F0A80197010E
:102ED0002A193B094C095D0906C0A60195012E1966
:102EE0003F09400B510B57FD08C0118233822282EB
:102EF00024833583468357831DC081E081833382D9
:102F0000228288279927DC01821B930BA40BB50B27
:102F100084839583A683B7830DC0220F331F441F7C
:102F2000551F24833583468357838281938101977C
:102F3000938382832481358146815781DA01C901D7
:102F40000197A109B1098F5F9F4FAF4FBF4328F38E
:102F50000BC0918333822282EA0CFB1C0C1D1D1DC9
:102F6000E482F5820683178383E0808324813581A0
:102F70004681578157FF1AC0C901AA2797FDA0951E
:102F8000BA2F81709070A070B070569547953795A4
:102F90002795822B932BA42BB52B84839583A68313
:102FA000B78382819381019693838283DF0101C07D
:102FB000D201CD01CDB7DEB7E2E10C94311CA0E225
:102FC000B0E0E5EEF7E10C94211C69837A838B83F2
:102FD0009C832D833E834F835887E9E0EE2EF12CAE
:102FE000EC0EFD1ECE010196B7010E94EF1A8E0174
:102FF0000F5E1F4FCE010596B8010E94EF1A8A8915
:1030000091E089278A8BC701B801AE01475E5F4F07
:103010000E9493160E941A1AA096E6E00C943D1C9A
:10302000A0E2B0E0E6E1F8E10C94211C69837A8328
:103030008B839C832D833E834F835887F9E0EF2E4B
:10304000F12CEC0EFD1ECE010196B7010E94EF1A85
:103050008E010F5E1F4FCE010596B8010E94EF1A38
:10306000C701B801AE01475E5F4F0E9493160E94F0
:103070001A1AA096E6E00C943D1CA8E1B0E0E3E447
:10308000F8E10C941D1C69837A838B839C832D83C8
:103090003E834F835887B9E0EB2EF12CEC0EFD1EDA
:1030A000CE010196B7010E94EF1A8E010F5E1F4FED
:1030B000CE010596B8010E94EF1A2985223008F446
:1030C0007EC03989323010F4B8017CC08A859A8973
:1030D00089278A87243011F0223031F4231709F030
:1030E0006EC06BE670E06EC0343039F41D861E860B
:1030F0001F86188A1C861B8604C0323021F484E0A7
:103100008987B7015FC02B853C858B899C89281BEB
:10311000390B3C872B87ED84FE840F851889AD8899
:10312000BE88CF88D88CEA14FB040C051D0540F43A
:10313000EE0CFF1C001F111F215030403C872B87D5
:1031400020E030E040E050E080E090E0A0E0B0E43B
:1031500060E070E0EA14FB040C051D0540F0282B2C
:10316000392B4A2B5B2BEA18FB080C091D09B69575
:10317000A79597958795EE0CFF1C001F111F6F5F99
:103180007F4F6F31710531F7DA01C9018F77907088
:10319000A070B07080349105A105B10561F427FDE0
:1031A0000AC0E114F1040105110529F0205C3F4F2C
:1031B0004F4F5F4F20782D873E874F87588BBE013A
:1031C000675F7F4FCB010E941A1A6896EAE00C9461
:1031D000391CA8E1B0E0EFEEF8E10C94211C698302
:1031E0007A838B839C832D833E834F83588789E02A
:1031F000E82EF12CEC0EFD1ECE010196B7010E94C7
:10320000EF1A8E010F5E1F4FCE010596B8010E9486
:10321000EF1A8985823040F08989823028F0C70111
:10322000B8010E94671B01C08FEF6896E6E00C941E
:103230003D1CA8E0B0E0EFE1F9E10C941E1C9B01FD
:10324000AC0183E08983DA01C9018827B7FD839542
:103250009927AA27BB27B82E21153105410551050D
:1032600019F482E089833AC08823A9F0203080E0F5
:10327000380780E0480780E8580729F460E070E0EC
:1032800080E09FEC30C0EE24FF248701E21AF30AAD
:10329000040B150B02C079018A018EE1C82ED12CD6
:1032A000DC82CB82ED82FE820F831887C801B701D2
:1032B0000E94CB1901971816190684F4082E04C031
:1032C000EE0CFF1C001F111F0A94D2F7ED82FE8244
:1032D0000F831887C81AD90ADC82CB82BA82CE0142
:1032E00001960E941A1A2896E9E00C943A1CACE068
:1032F000B0E0EDE7F9E10C94251C69837A838B83B8
:103300009C83CE010196BE016B5F7F4F0E94EF1A36
:103310008D81823061F1823050F1843021F48E81D0
:10332000882351F12EC02F81388537FD20C06E8152
:103330002F3131051CF06623F9F023C08EE190E0B7
:10334000821B930B29853A854B855C8504C0569575
:103350004795379527958A95D2F76623B1F0509512
:103360004095309521953F4F4F4F5F4F0EC020E065
:1033700030E040E050E009C02FEF3FEF4FEF5FE754
:1033800004C020E030E040E050E8B901CA012C96CA
:10339000E2E00C94411CEF92FF920F931F937B018C
:1033A0008C0180E0E81680E0F80681E0080780E004
:1033B000180788F48FEFE816F1040105110531F0C4
:1033C00028F088E090E0A0E0B0E017C080E090E056
:1033D000A0E0B0E012C080E0E81680E0F80680E0EF
:1033E000080781E0180728F088E190E0A0E0B0E04D
:1033F00004C080E190E0A0E0B0E020E230E040E0F6
:1034000050E0281B390B4A0B5B0B04C0169507953F
:10341000F794E7948A95D2F7F701ED58FF4F808132
:10342000281B310941095109C9011F910F91FF90D2
:10343000EF900895DF92EF92FF920F931F93FC019C
:10344000E480F58006811781D1808081823048F444
:1034500080E090E0A0E1B0E0E82AF92A0A2B1B2BDB
:10346000A5C0843009F49FC0823021F4EE24FF24EB
:10347000870105C0E114F1040105110519F4E0E02C
:10348000F0E096C0628173819FEF623879070CF09B
:103490005BC022E83FEF261B370B2A3131052CF0A9
:1034A00020E030E040E050E02AC0B801A701022E41
:1034B00004C076956795579547950A94D2F781E0B1
:1034C00090E0A0E0B0E004C0880F991FAA1FBB1FC6
:1034D0002A95D2F70197A109B1098E219F21A02336
:1034E000B1230097A105B10521F081E090E0A0E0B3
:1034F000B0E09A01AB01282B392B4A2B5B2BDA0168
:10350000C9018F779070A070B07080349105A105CB
:10351000B10539F427FF09C0205C3F4F4F4F5F4F83
:1035200004C0215C3F4F4F4F5F4FE0E0F0E02030A0
:10353000A0E03A07A0E04A07A0E45A0710F0E1E053
:10354000F0E079018A0127C06038710564F5FB015C
:10355000E158FF4FD801C7018F779070A070B0700D
:1035600080349105A105B10539F4E7FE0DC080E472
:1035700090E0A0E0B0E004C08FE390E0A0E0B0E015
:10358000E80EF91E0A1F1B1F17FF05C016950795A9
:10359000F794E794319687E016950795F794E794AA
:1035A0008A95D1F705C0EE24FF248701EFEFF0E004
:1035B0006E2F679566276795902F9F77D794DD24A8
:1035C000D7948E2F8695492F462B582F5D29B7010A
:1035D000CA011F910F91FF90EF90DF900895FC01B9
:1035E000DB01408151812281622F6F7770E0221FC1
:1035F0002227221F9381892F880F822B282F30E0CA
:10360000991F9927991F11969C93119721153105A0
:10361000A9F5411551056105710511F482E037C026
:1036200082E89FEF13969C938E9312979A01AB01B9
:1036300067E0220F331F441F551F6A95D1F783E0BF
:103640008C930DC0220F331F441F551F12968D916E
:103650009C911397019713969C938E931297203009
:1036600080E0380780E0480780E4580758F3149654
:103670002D933D934D935C93179708952F3F3105FC
:1036800079F4411551056105710519F484E08C93B5
:10369000089564FF03C081E08C9312C01C9210C097
:1036A0002F57304013963C932E93129783E08C93C0
:1036B00087E0440F551F661F771F8A95D1F7706406
:1036C00014964D935D936D937C93179708951F9374
:1036D000DC01FB019C91923008F447C0808182306C
:1036E00008F443C0943051F411961C91843099F53C
:1036F0008181682F70E0611B71093FC0843021F027
:10370000923031F48230B9F18181882389F12DC062
:1037100011961C9111978230F1F081811817D9F41C
:1037200012962D913C911397828193818217930772
:1037300094F028173907BCF014968D919D910D9047
:10374000BC91A02D248135814681578128173907E6
:103750004A075B0718F4112341F00AC08217930748
:10376000A407B50740F4112319F061E070E005C02B
:103770006FEF7FEF02C060E070E0CB011F91089512
:10378000629FD001739FF001829FE00DF11D649F45
:10379000E00DF11D929FF00D839FF00D749FF00DD1
:1037A000659FF00D9927729FB00DE11DF91F639F72
:1037B000B00DE11DF91FBD01CF0111240895AA1B11
:1037C000BB1B51E107C0AA1FBB1FA617B70710F00C
:1037D000A61BB70B881F991F5A95A9F7809590953E
:1037E000BC01CD010895A1E21A2EAA1BBB1BFD014D
:1037F0000DC0AA1FBB1FEE1FFF1FA217B307E407D0
:10380000F50720F0A21BB30BE40BF50B661F771F27
:10381000881F991F1A9469F7609570958095909507
:103820009B01AC01BD01CF0108952F923F924F92B1
:103830005F926F927F928F929F92AF92BF92CF9240
:10384000DF92EF92FF920F931F93CF93DF93CDB749
:10385000DEB7CA1BDB0B0FB6F894DEBF0FBECDBFC1
:1038600009942A88398848885F846E847D848C8492
:103870009B84AA84B984C884DF80EE80FD800C819B
:103880001B81AA81B981CE0FD11D0FB6F894DEBF7E
:103890000FBECDBFED010895FC0101900020E9F7B6
:1038A000809590958E0F9F1F0895FB019F01E894CE
:1038B0004230C4F04532B4F44A3029F497FB1EF488
:1038C000909581959F4F642F77270E94DF1B805D25
:1038D0008A330CF0895D8193CB010097A1F716F430
:1038E0005DE251931082C9010C94761CDC01FC014D
:1038F000672F71917723E1F7329704C07C916D9324
:1039000070836291AE17BF07C8F30895F894FFCF94
:10391000E8033203B40401E80B060C0000000000C9
:103920000000000001020203030303040404040472
:10393000040404050505050505050505050505053A
:10394000050505060606060606060606060606061A
:103950000606060606060606060606060606060607
:1039600006060607070707070707070707070707EA
:1039700007070707070707070707070707070707D7
:1039800007070707070707070707070707070707C7
:1039900007070707070707070707070707070707B7
:1039A000070707080808080808080808080808089A
:1039B0000808080808080808080808080808080887
:1039C0000808080808080808080808080808080877
:1039D0000808080808080808080808080808080867
:1039E0000808080808080808080808080808080857
:1039F0000808080808080808080808080808080847
:103A00000808080808080808080808080808080836
:103A10000808080808080808080808080808080826
:043A2000080808008A
:00000001FF
