:100000000C9409010C941B050C9441050C94590C9B
:100010000C94A50B0C9426010C9426010C9426013B
:100020000C9426010C9426010C9463100C94260168
:100030000C9426010C9432160C9426010C94260183
:100040000C9426010C9426010C9426010C94571450
:100050000C94260154686520526F626F74206E659F
:1000600065647320746F20626520726573657474B3
:100070006564206E6F772E0A0A00596F75206E65D1
:10008000656420746F20636865636B204D6F746FC7
:100090007220617373656D626C7920286F722079AC
:1000A0006F757220736F667477617265292E0A0A04
:1000B000000A0A28732E207461736B5F6D6F746F72
:1000C00072436F6E74726F6C28292066756E63744C
:1000D000696F6E20696E205250364C696221290A80
:1000E000000A0A232323204D4F544F52204F5645D8
:1000F0005243555252454E54202323230A00596F30
:1001000075206E65656420746F20636865636B207D
:10011000456E636F6465722F4D6F746F72206173EB
:1001200073656D626C7920286F7220796F7572200B
:10013000736F667477617265292E0A0A00210A0AB4
:1001400028732E207461736B5F6D6F746F72436FD1
:100150006E74726F6C28292066756E6374696F6E99
:1001600020696E205250364C696221290A0052499A
:10017000474854004C4546540041666665637465C3
:1001800064206368616E6E656C3A000A2323232045
:10019000454E434F44455220284F52204D4F544F17
:1001A0005229204D414C46554E4354494F4E212033
:1001B0002323230A00232323232320414C4C204FB5
:1001C0005045524154494F4E532053544F5050457F
:1001D0004420544F2050524556454E5420414E59CC
:1001E0002044414D414745212023232323230A0056
:1001F0000A0A232323232320454D455247454E43D6
:10020000592053485554444F574E2023232323232A
:100210000A0011241FBECFE5D8E0DEBFCDBF10E03D
:10022000A0E6B0E0E6E5FFE202C005900D92A0373F
:10023000B107D9F711E0A0E7B0E001C01D92AE35DB
:10024000B107E1F70E94AE020C94A9170C940000CC
:10025000DF93CF9300D0CDB7DEB78091910090911E
:1002600092009A83898389819A818330910509F468
:1002700044C089819A818430910560F489819A8192
:100280008130910501F189819A818230910508F0D0
:1002900055C0DCC089819A818530910509F4A7C0D9
:1002A00089819A818530910508F488C089819A8175
:1002B0008630910509F469C089819A81873091055A
:1002C00009F4ADC0C3C0809162008170882309F039
:1002D000BDC082E38093600082E3809361008091DF
:1002E000620081608093620088EE93E090936400E6
:1002F0008093630010926500A9C082E38093600040
:1003000082E380936100809162008160809362004B
:1003100088EC90E090936400809363008091660085
:10032000813019F486E08093650080916600823008
:1003300009F08CC084E08093650088C080916200E1
:100340008170882309F082C082E38093600082E399
:10035000809361008091620081608093620080E9F7
:1003600091E09093640080936300809166008130F7
:1003700019F487E08093650080916600823009F06F
:1003800065C085E08093650061C0809162008170E6
:10039000882309F05BC082E38093600082E380934E
:1003A000610080916200816080936200109264001D
:1003B0001092630082E08093650048C080916200E3
:1003C0008170882309F042C082E38093600082E359
:1003D000809361008091620081608093620010923E
:1003E00064001092630082E0809365002FC08091CA
:1003F00062008170882351F582E38093600082E37C
:10040000809361008091620081608093620010920D
:1004100064001092630081E08093650017C08091B2
:1004200062008170882391F482E38093600082E30C
:1004300080936100809162008160809362001092DD
:1004400064001092630081E0809365000F900F902C
:10045000CF91DF910895DF93CF93CDB7DEB7809131
:100460009400882349F083E090E090939200809379
:10047000910081E0809366008091F100882349F02B
:1004800083E090E0909392008093910082E08093CB
:100490006600CF91DF910895DF93CF93CDB7DEB79C
:1004A0000E94280180916500882311F40E94700940
:1004B00080916500823021F080916500813069F47F
:1004C00080916000209163003091640060E0A90198
:1004D00021E00E949A090E94700980916500833092
:1004E00069F480916000209163003091640061E0C4
:1004F000A90121E00E949A090E947009809165007B
:10050000853021F080916500863051F48091600043
:1005100062E04AE550E021E00E94650A0E9470090D
:1005200080916500843021F080916500873051F41E
:100530008091600063E04AE550E021E00E94650A96
:100540000E9470090E945409882329F0809162005A
:100550008E7F80936200CF91DF910895DF93CF93D8
:10056000CDB7DEB70E94A11384EC99E00E94281356
:100570008BE292E00E94EC030E9427100E944C0242
:100580000E949213FBCFDF93CF93CDB7DEB780915C
:10059000A800843010F01092A800CF91DF91089548
:1005A000DF93CF93CDB7DEB784E08093A800CF91DF
:1005B000DF910895DF93CF9300D0CDB7DEB7A7E3E7
:1005C000B0E0E7E3F0E080818C778C93A8E3B0E0C3
:1005D000E8E3F0E080818C778C93809193008870C1
:1005E000882371F0A7E3B0E0E7E3F0E08081806862
:1005F0008C93A8E3B0E0E8E3F0E0808180688C931E
:10060000809193008071882371F0A7E3B0E0E7E365
:10061000F0E0808182608C93A8E3B0E0E8E3F0E052
:10062000808182608C93809193008072882371F026
:10063000A7E3B0E0E7E3F0E0808181608C93A8E37A
:10064000B0E0E8E3F0E0808181608C93A4E3B0E067
:10065000E4E3F0E080818F788C93A5E3B0E0E5E3FC
:10066000F0E080818F788C93A4E3B0E0E4E3F0E0E5
:100670008081282F80919300882F90E08295929519
:10068000907F9827807F98278077822B8C93A5E393
:10069000B0E0E5E3F0E08081282F80919300882F7F
:1006A00090E082959295907F9827807F9827807719
:1006B000822B8C938091A800882359F48091930019
:1006C0008A838A81882311F081E08A838A818983E1
:1006D00003C08091A800898389818093A8000F902E
:1006E0000F90CF91DF910895DF93CF930F92CDB705
:1006F000DEB789838981809393000E94DA020F908C
:10070000CF91DF910895DF93CF930F92CDB7DEB7EE
:10071000A8E3B0E0E8E3F0E080818E7F8C93A7E36C
:10072000B0E0E7E3F0E080818E7F8C930000E6E3A9
:10073000F0E08081817089838091930080728823AA
:1007400071F0A7E3B0E0E7E3F0E0808181608C9393
:10075000A8E3B0E0E8E3F0E0808181608C938981D8
:100760000F90CF91DF910895DF93CF930F92CDB784
:10077000DEB7A5E3B0E0E5E3F0E080818F7B8C930A
:10078000A4E3B0E0E4E3F0E080818F7B8C93000091
:10079000E3E3F0E08081807489838091930084702A
:1007A000882371F0A4E3B0E0E4E3F0E080818064AA
:1007B0008C93A5E3B0E0E5E3F0E0808180648C9366
:1007C00089810F90CF91DF910895DF93CF93CDB7BB
:1007D000DEB7CF91DF910895DF93CF9300D0CDB7EF
:1007E000DEB79A83898389819A8190936800809388
:1007F00067000F900F90CF91DF910895DF93CF9313
:1008000000D0CDB7DEB78091E0008333E8F00E94DE
:1008100083038A830E94B4038983909194008A8120
:10082000981729F49091F1008981981759F08A81DD
:100830008093940089818093F100E0916700F091AA
:10084000680009951092E0000F900F90CF91DF9112
:100850000895DF93CF9300D00F92CDB7DEB7898391
:10086000E6E2F0E08081882F90E08074907000973D
:1008700019F01B821A821FC0E7E2F0E089818064D0
:100880008083E6E2F0E086ED8083E6E2F0E08081BE
:10089000882F90E0807490700097B9F7A6E2B0E0DE
:1008A000E6E2F0E0808180618C93E4E2F0E0808118
:1008B00091819B838A838A819B810F900F900F90F7
:1008C000CF91DF910895DF93CF930F92CDB7DEB72D
:1008D0008983E7E2F0E0898180648083E6E2F0E0EA
:1008E00086ED80830F90CF91DF910895DF93CF93B2
:1008F00000D0CDB7DEB7E6E2F0E08081882F90E04F
:1009000080749070009709F091C080917500282F35
:1009100030E03A83298389819A818330910509F4F3
:100920004AC029813A81243031057CF489819A8139
:100930008130910541F129813A81223031057CF5E0
:1009400089819A81009799F065C029813A81253083
:10095000310509F448C089819A8185309105BCF13F
:1009600029813A812630310509F449C053C0E4E2B7
:10097000F0E0808191819093F5008093F40086E00F
:100980000E94630447C0E4E2F0E08081918190938B
:10099000FA008093F90085E00E9463043BC0E4E222
:1009A000F0E0808191819093EB008093EA0083E0F6
:1009B0000E9463042FC0E4E2F0E080819181909373
:1009C000B4008093B30082E00E94630423C0E4E299
:1009D000F0E0808191819093DA008093D90080E0EB
:1009E0000E94630417C0E4E2F0E08081918190935B
:1009F000E8008093E70081E00E9463040BC0E4E21A
:100A0000F0E0808191819093B2008093B10087E003
:100A10000E94630480917500863019F4109275006D
:100A200005C0809175008F5F809375000F900F90C7
:100A3000CF91DF9108951F920F920FB60F9211245C
:100A40008F939F93DF93CF93CDB7DEB78091EF0065
:100A50009091F00001969093F0008093EF008091C8
:100A6000E5009091E60001969093E6008093E50002
:100A7000CF91DF919F918F910F900FBE0F901F909C
:100A800018951F920F920FB60F9211248F939F9378
:100A9000DF93CF93CDB7DEB78091E1009091E20074
:100AA00001969093E2008093E1008091BB009091C9
:100AB000BC0001969093BC008093BB00CF91DF9166
:100AC0009F918F910F900FBE0F901F901895DF93FD
:100AD000CF93CDB7DEB7CF91DF910895DF93CF935A
:100AE00000D0CDB7DEB79A83898389819A819093AC
:100AF0006A00809369000F900F90CF91DF91089565
:100B0000DF93CF9300D0CDB7DEB78A83F894A2E30A
:100B1000B0E0E2E3F0E080818F778C930E948D0F4C
:100B20001092AA001092A9001092BA001092B90077
:100B30001092A4001092A3001092DF001092DE0029
:100B40001092F8001092D600EAE4F0E01082E8E497
:100B5000F0E01082EFE4F0E010820E943C1080EFA1
:100B600091E00E946F1585EB91E00E946F158A81DC
:100B7000813019F08A818230E9F48BE891E00E949B
:100B80006F1589E791E00E946F158A81813029F401
:100B900084E791E00E946F1504C08EE691E00E9408
:100BA0006F158DE391E00E946F158EEF90E00E942B
:100BB0006F150FC08A81833061F481EE90E00E944E
:100BC0006F1581EB90E00E946F158AE790E00E941C
:100BD0006F1584E590E00E946F1586E30E94740310
:100BE0008AE0898307C080E090E80E9449138981E8
:100BF0008150898389818823B1F780E00E94740342
:100C00008AE0898307C08FEF9FEF0E944913898193
:100C10008150898389818823B1F7DFCFDF93CF9318
:100C2000CDB7DEB728970FB6F894DEBF0FBECDBFA5
:100C30008091D500823308F47EC01092D500809157
:100C4000D200882309F043C08091F9009091FA0006
:100C500023E08330920740F48091EA009091EB000A
:100C600043E083309407F0F08091D4008F5F80934D
:100C7000D4008AE08093D2001092AA001092A900BA
:100C80001092BA001092B9001092A4001092A30022
:100C90001092DF001092DE008091900084608093BB
:100CA000900059C2809190008B7F8093900080913A
:100CB0009F00853628F01092D40010929F0007C044
:100CC0008091D400833018F083E00E9480058091E9
:100CD000F9009091FA008639910598F48091AB0063
:100CE0009091AC00009769F48091990090919A00DE
:100CF000009739F08091F800873918F081E00E9460
:100D000080058091EA009091EB008639910598F476
:100D10008091ED009091EE00009769F4809197002A
:100D200090919800009739F08091D600873918F09B
:100D300082E00E9480058091A700882309F4FCC10D
:100D40008091D200882309F0F0C18091D4008823DB
:100D500031F080919F008F5F80939F0002C01092BE
:100D60009F00809190008270882309F43FC02091F9
:100D7000EF003091F0008091950090919600281737
:100D8000390790F010929A00109299001092A400E6
:100D90001092A3001092AA001092A90080919000D6
:100DA0008D7F8093900022C02091EF003091F00061
:100DB0008091AD009091AE0028173907B8F080916E
:100DC000990090919A009695879590939A008093B8
:100DD00099008091990090919A008631910530F4A4
:100DE00086E190E090939A00809399008091900022
:100DF0008170882309F43FC02091E1003091E20026
:100E00008091B7009091B8002817390790F01092A0
:100E10009800109297001092DF001092DE0010925E
:100E2000BA001092B900809190008E7F809390005C
:100E300022C02091E1003091E2008091E300909186
:100E4000E40028173907B8F0809197009091980036
:100E5000969587959093980080939700809197003E
:100E6000909198008631910530F486E190E090935E
:100E7000980080939700909170008091720098176D
:100E800039F49091710080917300981709F464C04F
:100E90008091990090919A00009731F48091970089
:100EA00090919800009741F18091990090919A005B
:100EB00090939C0080939B00809197009091980064
:100EC0009093B0008093AF0010929A001092990016
:100ED00010929800109297001092BA001092B900E8
:100EE0001092AA001092A9001092A4001092A300E0
:100EF0001092DF001092DE00EFE4F0E080818823A2
:100F000059F58091700090917100692F0E94310B0A
:100F100080919B0090919C0090939A0080939900FF
:100F20008091AF009091B0009093980080939700CB
:100F30008091990090919A00969587959093A4003E
:100F40008093A30080919700909198009695879543
:100F50009093DF008093DE002091990030919A00F9
:100F60008091AB009091AC00A901481B590BCA01BC
:100F70009C838B832091A3003091A4008B819C8162
:100F8000820F931F9093A4008093A3008091A300ED
:100F90009091A40051E0853A950734F084EA91E0FD
:100FA0009093A4008093A3008091A3009091A4004B
:100FB0002EEF8C35920734F48CE59EEF9093A400CD
:100FC0008093A3008091AB009091AC00009751F406
:100FD0008091990090919A00009721F41092A400BA
:100FE0001092A3008091A3009091A4009E838D8312
:100FF0004D815E8155232CF48D819E8101969E83C7
:101000008D838D819E81959587959093AA0080937D
:10101000A9008091A9009091AA00833D910534F028
:1010200082ED90E09093AA008093A9008091A9009E
:101030009091AA00992324F41092AA001092A9007A
:1010400020919700309198008091ED009091EE00F2
:10105000A901481B590BCA019A8389832091DE009C
:101060003091DF0089819A81820F931F9093DF0076
:101070008093DE008091DE009091DF0051E0853AA0
:10108000950734F084EA91E09093DF008093DE00CE
:101090008091DE009091DF002EEF8C35920734F4C2
:1010A0008CE59EEF9093DF008093DE008091ED0051
:1010B0009091EE00009751F48091970090919800E4
:1010C000009721F41092DF001092DE008091DE0084
:1010D0009091DF0098878F834F81588555232CF49A
:1010E0008F819885019698878F838F8198859595B4
:1010F00087959093BA008093B9008091B900909140
:10110000BA00833D910534F082ED90E09093BA00EF
:101110008093B9008091B9009091BA00992354F45A
:101120001092BA001092B90005C08091D20081508F
:101130008093D2001092A700909190008091F300CC
:10114000981749F0809190008093F300E091690036
:10115000F0916A00099528960FB6F894DEBF0FBE8D
:10116000CDBFCF91DF910895DF93CF9300D0CDB75E
:10117000DEB789836A838981893C10F088EC898392
:101180008A81893C10F088EC8A838981882F90E0DD
:1011900090939A00809399008A81882F90E0909391
:1011A0009800809397000F900F90CF91DF91089552
:1011B000DF93CF9300D000D00F92CDB7DEB78983F5
:1011C0008981809374008981813019F0898182300E
:1011D00029F481E090E09D838C8302C01D821C82F3
:1011E0008C81809370008981813019F089818330EE
:1011F00029F481E090E09B838A8302C01B821A82DB
:101200008A81809371000F900F900F900F900F9034
:10121000CF91DF910895DF93CF93CDB7DEB72A97B3
:101220000FB6F894DEBF0FBECDBF9C838B837E8349
:101230006D831A868B819C81992314F481E08A87BF
:101240008A858093700019868D819E81992314F47C
:1012500081E089878985809371008B819C81181634
:1012600019061CF48B81888703C08B818195888740
:1012700088858A838B819C81181619061CF48D81C0
:101280008F8303C08D8181958F838F8189838A812C
:1012900069810E94B4082A960FB6F894DEBF0FBE8B
:1012A000CDBFCF91DF910895DF93CF9300D0CDB71D
:1012B000DEB7809190008170882351F48091900076
:1012C0008270882329F481E090E09A83898302C0A8
:1012D0001A82198289810F900F90CF91DF91089522
:1012E000DF93CF93CDB7DEB710929A00109299009A
:1012F00010929800109297001092A4001092A300F0
:101300001092DF001092DE00809190008E7F80931B
:101310009000809190008D7F80939000809190004C
:101320008093F300E0916900F0916A000995CF91F4
:10133000DF910895DF93CF9300D000D00F92CDB707
:10134000DEB789836A835C834B832D838091900011
:1013500081608093900080919000826080939000E3
:101360001092E4001092E3001092AE001092AD00D3
:1013700089818731D0F08981282F30E086EF9FEF77
:10138000821B930B880F991F9C018B819C81820F7C
:10139000931F9093E4008093E3008091E300909189
:1013A000E4009093AE008093AD008B819C81029706
:1013B0009093B8008093B7008091B7009091B800E7
:1013C00090939600809395008B819C818832910543
:1013D00000F588E290E09C838B8384E190E0909319
:1013E000B8008093B7008091B7009091B8009093B7
:1013F0009600809395008AE090E09093E4008093BB
:10140000E3008091E3009091E4009093AE0080931C
:10141000AD008B819C8121E080399207E0F48981C5
:101420008932C8F088E289838B819C819C01369542
:101430002795369527958B819C81821B930B9093E2
:10144000E4008093E3008091E3009091E4009093A6
:10145000AE008093AD001092F0001092EF00109259
:10146000E2001092E100898169810E94B4088A81BA
:101470000E94D8088B819C819093C0008093BF000C
:101480008B819C819093A1008093A000809190001B
:101490008093F300809190008093F300E0916900C5
:1014A000F0916A0009958D81882339F002C00E946D
:1014B00092130E9454098823D1F30F900F900F903C
:1014C0000F900F90CF91DF910895DF93CF93CDB719
:1014D000DEB727970FB6F894DEBF0FBECDBF8B8364
:1014E0006C835E834D832F83809190008160809315
:1014F0009000809190008260809390008D819E8109
:10150000CC01A0E0B0E020EB32E040E050E0BC01D4
:10151000CD010E941A17DC01CB0124E630E040E047
:1015200050E0BC01CD010E944D17DA01C9019A8338
:10153000898389819A81845690409093E4008093B6
:10154000E30089819A81845690409093AE00809305
:10155000AD0089819A819093B8008093B70089810A
:101560009A81909396008093950089819A81883220
:101570009105E0F488E290E09A83898384E190E029
:101580009093B8008093B70084E190E09093960028
:10159000809395008AE090E09093E4008093E300CC
:1015A0008AE090E09093AE008093AD008B816B81D8
:1015B0000E94B4088C810E94D8081092F00010920A
:1015C000EF001092E2001092E10089819A819093DD
:1015D000C0008093BF0089819A819093A10080937D
:1015E000A000809190008093F300E0916900F09159
:1015F0006A0009958F81882339F002C00E949213F6
:101600000E9454098823D1F327960FB6F894DEBFC1
:101610000FBECDBFCF91DF910895DF93CF9300D060
:10162000CDB7DEB789836A838981833D10F082ED6F
:1016300089838A81833D10F082ED8A838A81882F95
:1016400090E09093BA008093B9008981882F90E050
:101650009093AA008093A9000F900F90CF91DF91F3
:101660000895DF93CF9300D0CDB7DEB789836A8327
:101670008981809372008A8180937300898180932D
:1016800070008A81809371008981882341F0A5E3ED
:10169000B0E0E5E3F0E0808184608C9307C0A5E3CF
:1016A000B0E0E5E3F0E080818B7F8C938A81882332
:1016B00041F0A5E3B0E0E5E3F0E0808188608C9341
:1016C00007C0A5E3B0E0E5E3F0E08081877F8C937D
:1016D0000F900F90CF91DF910895DF93CF9300D0BB
:1016E000CDB7DEB789836A8307C0A9E5B0E0E9E535
:1016F000F0E0808180688C9380919E008823A9F718
:101700008981882F90E08F7390709C01002436951A
:1017100027950794369527950794322F202D8A8197
:10172000882F90E08F739070822B932B906390930F
:10173000BE008093BD0080919D00806480939D00D9
:101740000F900F90CF91DF9108951F920F920FB6D7
:101750000F9211248F939F93AF93BF93EF93FF93B7
:10176000DF93CF93CDB7DEB780916B00823008F066
:1017700065C0809176008823D9F1809176008C3302
:10178000C8F48091D7009091D80080709074009731
:1017900049F0A2E3B0E0E2E3F0E0908180E889273D
:1017A0008C9320C0A2E3B0E0E2E3F0E080818F7789
:1017B0008C9318C08091D7009091D800807090745D
:1017C000009741F0A2E3B0E0E2E3F0E080818F77A0
:1017D0008C9308C0A2E3B0E0E2E3F0E0908180E8FF
:1017E00089278C938091760081508093760054C035
:1017F00080919E008823D1F0A2E3B0E0E2E3F0E024
:1018000080818F778C938091D7009091D800880F3A
:10181000991F9093D8008093D70088E78093760033
:1018200080919E00815080939E0036C0A2E3B0E07C
:10183000E2E3F0E080818F778C932EC08091A2004C
:101840008823E1F080919D008170882349F4A8E30A
:10185000B0E0E8E3F0E0908180E489278C9308C051
:10186000A5E3B0E0E5E3F0E0908180E889278C9380
:101870008091A20081508093A2000EC0A8E3B0E046
:10188000E8E3F0E0808180648C93A5E3B0E0E5E3D9
:10189000F0E0808180688C93CF91DF91FF91EF9190
:1018A000BF91AF919F918F910F900FBE0F901F909E
:1018B00018951F920F920FB60F9211248F939F933A
:1018C000EF93FF93DF93CF930F92CDB7DEB7809165
:1018D0006B00833021F080916B008630C1F48091E1
:1018E0009D008071882399F480919D0080728823E7
:1018F00071F0E6E3F0E08081882F90E084709070D2
:10190000009729F48091F2008F5F8093F200E6E364
:10191000F0E0808180919D008D7F80939D000F90ED
:10192000CF91DF91FF91EF919F918F910F900FBE1B
:101930000F901F901895DF93CF9300D0CDB7DEB7EF
:101940009A8389830F900F90CF91DF910895DF9351
:10195000CF9300D0CDB7DEB79A83898389819A81EE
:1019600090936D0080936C000F900F90CF91DF915A
:101970000895DF93CF93CDB7DEB7CF91DF91089570
:10198000DF93CF9300D0CDB7DEB79A838983898167
:101990009A8190936F0080936E000F900F90CF917B
:1019A000DF910895DF93CF93CDB7DEB72E970FB6B3
:1019B000F894DEBF0FBECDBF8091B5009091B60008
:1019C0008230910508F44DC280919D00807188237A
:1019D00009F024C280916B00282F30E03E872D87CC
:1019E0008D859E858230910509F4B9C02D853E858F
:1019F0002330310554F48D859E850097C9F02D85DF
:101A00003E852130310589F10FC28D859E85853057
:101A1000910509F454C12D853E852630310509F420
:101A200083C18D859E858330910509F4CDC0FCC1AD
:101A3000A9E5B0E0E9E5F0E080818F778C93A2E33F
:101A4000B0E0E2E3F0E080818F778C93A8E3B0E030
:101A5000E8E3F0E0808180648C93A5E3B0E0E5E307
:101A6000F0E0808180688C93DFC180919E008823A4
:101A700009F04DC080919D0080748823C1F0809151
:101A8000BD009091BE009093D8008093D7008EE067
:101A900080939E0080919D008F7B80939D00A9E59F
:101AA000B0E0E9E5F0E0808180688C931CC0A9E596
:101AB000B0E0E9E5F0E080818F778C93A2E3B0E0BD
:101AC000E2E3F0E080818F778C93A8E3B0E0E8E375
:101AD000F0E0808180648C93A5E3B0E0E5E3F0E082
:101AE000808180688C9390917B009C871B862C85DD
:101AF000243110F031E03B878C858F5F80937B0031
:101B00008B85882359F082E080936B0007C0A9E59C
:101B1000B0E0E9E5F0E0808180688C9380919D00E1
:101B20008870882309F480C1E0916C00F0916D0009
:101B30008091F6009091F70009958091F6009091C0
:101B4000F7009093A6008093A5001092F7001092E2
:101B5000F60080919D00877F80939D0065C1A9E577
:101B6000B0E0E9E5F0E080818F778C93A2E3B0E00C
:101B7000E2E3F0E080818F778C93A8E3B0E0E8E3C4
:101B8000F0E0808180648C93A5E3B0E0E5E3F0E0D1
:101B9000808180688C931092A2001092F2001092C3
:101BA0007A001092790080919D008E7F80939D0035
:101BB00080919D00806280939D0083E080937B00F4
:101BC00083E080936B0030C18091A2008823E1F410
:101BD00090917B009A8719862A85233010F031E096
:101BE00039878A858F5F80937B008985882361F0A0
:101BF000A9E5B0E0E9E5F0E0808180688C9388E2B7
:101C00008093A20010927B008091D300882369F01A
:101C10008091F200823048F01092F20081E08093CF
:101C2000D30085E080936B00FFC08091F200863086
:101C300048F01092F20081E08093D30085E0809319
:101C40006B00F2C02091790030917A0038872F83A1
:101C50001E828F8198858E30910510F091E09E83D1
:101C60008F819885019690937A00809379002E81D8
:101C7000222309F4D9C01092D30085E080936B0031
:101C8000A9E5B0E0E9E5F0E080818F778C93A2E3ED
:101C9000B0E0E2E3F0E080818F778C93A8E3B0E0DE
:101CA000E8E3F0E0808180648C93A5E3B0E0E5E3B5
:101CB000F0E0808180688C931092A200B5C0A9E505
:101CC000B0E0E9E5F0E080818F778C93A2E3B0E0AB
:101CD000E2E3F0E080818F778C93A8E3B0E0E8E363
:101CE000F0E0808180648C93A5E3B0E0E5E3F0E070
:101CF000808180688C931092A2001092F200109262
:101D00007A001092790080919D00816080939D00FF
:101D100080919D00806280939D0083E080937B0092
:101D200086E080936B0080C08091A2008823E1F45C
:101D300030917B003D831C828D81833010F091E0D7
:101D40009C838D818F5F80937B002C81222361F0A7
:101D5000A9E5B0E0E9E5F0E0808180688C9388E255
:101D60008093A20010927B008091DC00882369F0B0
:101D70008091F200823048F01092F20081E080936E
:101D8000DC0081E080936B004FC08091F2008630D0
:101D900048F01092F20081E08093DC0081E08093B3
:101DA0006B0042C08091790090917A009B838A8376
:101DB00019822A813B812E30310510F031E03983C0
:101DC0008A819B81019690937A0080937900898122
:101DD000882351F11092DC0081E080936B00A9E52B
:101DE000B0E0E9E5F0E080818F778C93A2E3B0E08A
:101DF000E2E3F0E080818F778C93A8E3B0E0E8E342
:101E0000F0E0808180648C93A5E3B0E0E5E3F0E04E
:101E1000808180688C931092A20006C010927A0094
:101E20001092790010927B00909178008091D300FD
:101E3000981731F4909177008091DC00981769F041
:101E40008091D300809378008091DC0080937700AC
:101E5000E0916E00F0916F0009951092B60010921B
:101E6000B5002E960FB6F894DEBF0FBECDBFCF9152
:101E7000DF910895DF93CF93CDB7DEB710926B005B
:101E8000A9E5B0E0E9E5F0E080818F778C93A2E3EB
:101E9000B0E0E2E3F0E080818F778C93A8E3B0E0DC
:101EA000E8E3F0E0808180648C93A5E3B0E0E5E3B3
:101EB000F0E0808180688C931092DC001092D30057
:101EC000CF91DF910895DF93CF93CDB7DEB7A9E52A
:101ED000B0E0E9E5F0E080818F778C93A2E3B0E099
:101EE000E2E3F0E080818F778C93A8E3B0E0E8E351
:101EF000F0E0808180648C93A5E3B0E0E5E3F0E05E
:101F0000808180688C931092DC001092D30081E075
:101F100080936B00CF91DF910895DF93CF93CDB77E
:101F2000DEB7A1E3B0E0E1E3F0E080818F7B8C934A
:101F3000A2E3B0E0E2E3F0E080818F7B8C93A7E343
:101F4000B0E0E7E3F0E08081877F8C93A8E3B0E026
:101F5000E8E3F0E08081877F8C93A8E3B0E0E8E3DA
:101F6000F0E080818F7B8C93A5E3B0E0E5E3F0E0C7
:101F700080818F778C93CF91DF910895DF93CF93FA
:101F8000CDB7DEB7A1E3B0E0E1E3F0E080818064AB
:101F90008C93A2E3B0E0E2E3F0E0808180648C9374
:101FA000A7E3B0E0E7E3F0E08081877F8C93A8E3CC
:101FB000B0E0E8E3F0E08081877F8C93CF91DF9100
:101FC0000895DF93CF93CDB7DEB7A1E3B0E0E1E3AF
:101FD000F0E080818F7B8C93A2E3B0E0E2E3F0E05D
:101FE00080818F7B8C93A7E3B0E0E7E3F0E0808112
:101FF00088608C93A8E3B0E0E8E3F0E0808188603B
:102000008C93CF91DF910895DF93CF93CDB7DEB757
:10201000A1E3B0E0E1E3F0E0808180648C93A2E38F
:10202000B0E0E2E3F0E0808180648C93A7E3B0E06D
:10203000E7E3F0E0808188608C93A8E3B0E0E8E318
:10204000F0E0808188608C93CF91DF910895DF93D9
:10205000CF93CDB7DEB7A8E3B0E0E8E3F0E080814E
:1020600080618C938091A800843018F483E0809381
:10207000A800CF91DF910895DF93CF9300D0CDB723
:10208000DEB7A8E3B0E0E8E3F0E080818F7E8C93D8
:102090008091A800843090F48091A800882321F4D6
:1020A00080919300882329F081E090E09A838983CE
:1020B00002C01A82198289818093A8000F900F9024
:1020C000CF91DF9108951F920F920FB60F921124B6
:1020D0002F933F935F936F937F938F939F93AF93D0
:1020E000BF93EF93FF93DF93CF93CDB7DEB72B97DB
:1020F000DEBFCDBF80918E0090918F0001969093AE
:102100008F0080938E008091E9008F5F8093E900BB
:102110002091EC002B871A868B85893010F091E096
:102120009A878B858F5F8093EC002A85222309F4A0
:10213000ECC18091C100882F90E08170907088235D
:1021400049F08091C2009091C30001969093C30022
:102150008093C2008091C100882F90E082709070BF
:10216000009749F08091C4009091C500019690932A
:10217000C5008093C4008091C100882F90E08470D6
:102180009070009749F08091C6009091C700019629
:102190009093C7008093C6008091C100882F90E083
:1021A00088709070009749F08091C8009091C900A4
:1021B00001969093C9008093C8008091C100882F38
:1021C00090E080719070009749F08091CA009091E2
:1021D000CB0001969093CB008093CA008091C10000
:1021E000882F90E080729070009749F08091CC0029
:1021F0009091CD0001969093CD008093CC0080917A
:10220000C100882F90E080749070009749F0809111
:10221000CE009091CF0001969093CF008093CE0096
:102220008091C10088234CF48091D0009091D1001E
:1022300001969093D1008093D0008091DD00898732
:1022400018869985993C10F021E0288789858F5F51
:102250008093DD0088858823E9F08091BB00909110
:10226000BC009093EE008093ED008091E50090918A
:10227000E6009093AC008093AB001092BC001092EB
:10228000BB001092E6001092E50081E08093A70069
:102290001092DD008091A800833008F0A3C08091E7
:1022A000A800823009F06BC080919300882309F068
:1022B0004BC080918000909181009F838E8328EC99
:1022C00030E08E819F81B9010E9439171D820097ED
:1022D00011F491E09D838E819F81019690938100FE
:1022E000809380002D81222309F47CC0809180009E
:1022F000909181002FE0813A9207A8F0A7E3B0E027
:10230000E7E3F0E080818D7F8C93A8E3B0E0E8E321
:10231000F0E080818D7F8C931092A8001092810054
:10232000109280005FC0A7E3B0E0E7E3F0E09081A7
:1023300082E089278C93A8E3B0E0E8E3F0E09081A5
:1023400082E089278C934EC080919300807188230E
:1023500071F4A7E3B0E0E7E3F0E080818D7F8C9338
:10236000A8E3B0E0E8E3F0E080818D7F8C931092E9
:1023700081001092800081E08093A80033C080919A
:102380008000909181002EE2813E920710F18091B1
:10239000A8008130B1F41092A80080919300807160
:1023A000882391F4A7E3B0E0E7E3F0E080818D7F3C
:1023B0008C93A8E3B0E0E8E3F0E080818D7F8C931C
:1023C00003C082E08093A8001092810010928000E8
:1023D00009C08091800090918100019690938100C6
:1023E000809380008091B5009091B6008330910574
:1023F00048F48091B5009091B60001969093B60094
:102400008093B5008091D500873328F48091D50062
:102410008F5F8093D5008091E000843328F4809111
:10242000E0008F5F8093E0008091DB008C831B8253
:102430009C81933010F021E02B838C818F5F8093FF
:10244000DB008B81882309F45EC08091D600282FA1
:1024500030E08091B9009091BA0028173907D9F07F
:102460008091D600282F30E08091B9009091BA0079
:102470002817390734F48091D6008F5F8093D600F7
:1024800005C08091D60081508093D600EAE4F0E048
:102490008091D60080838091F800282F30E08091D1
:1024A000A9009091AA0028173907D9F08091F80067
:1024B000282F30E08091A9009091AA0028173907B1
:1024C00034F48091F8008F5F8093F80005C080910C
:1024D000F80081508093F800E8E4F0E08091F80083
:1024E00080838091F800882321F48091D60088238E
:1024F00029F0EFE4F0E082EA808303C0EFE4F0E04B
:1025000010821092DB001092EC0080919D00887088
:10251000882309F077C080917C0090917D009A8398
:10252000898380917E008F5F80937E0080917E0002
:102530008631F0F089819A8180709074009789F4D7
:1025400089819A8180709072009759F089819A816F
:102550009093F7008093F60080919D0088608093AF
:102560009D0080919D008F7E80939D001A8219822C
:10257000E6E3F0E0908180917F008927882F90E04A
:10258000847090700097C1F180917F008095809356
:102590007F0080917E00873038F480919D008F7E8F
:1025A00080939D001A82198289819A81009721F077
:1025B00080917E008F3000F180919D00806180933A
:1025C0009D0089819A8180709074009731F489818F
:1025D0009A81880F991F9A83898380917F00882F21
:1025E00090E084709070009729F489819A818160CD
:1025F0009A83898310927E0089819A8190937D00CD
:1026000080937C002B96DEBFCDBFCF91DF91FF91F1
:10261000EF91BF91AF919F918F917F916F915F915A
:102620003F912F910F900FBE0F901F901895DF9341
:10263000CF930F92CDB7DEB789831092E9009091C6
:10264000E90089819817D8F30F90CF91DF91089511
:10265000DF93CF9300D00F92CDB7DEB79A838983F3
:1026600003C08AE00E9417131B8289819A81009718
:1026700011F081E08B8389819A8101979A83898304
:102680008B81882371F70F900F900F90CF91DF917E
:102690000895DF93CF9300D00F92CDB7DEB79A8322
:1026A000898301C000001B8289819A81009711F003
:1026B00081E08B8389819A8101979A8389838B81B9
:1026C000882381F70F900F900F90CF91DF9108959D
:1026D000DF93CF93CDB7DEB7AAE3B0E0EAE3F0E053
:1026E000808180618C93ABE3B0E0EBE3F0E080812C
:1026F00080618C93CF91DF910895DF93CF93CDB715
:10270000DEB7ABE3B0E0EBE3F0E080818F7E8C934B
:10271000AAE3B0E0EAE3F0E080818F7E8C93CF9172
:10272000DF910895DF93CF93CDB7DEB70E94760493
:102730000E94D20C0E94FE030E940E06CF91DF91F0
:102740000895DF93CF930F92CDB7DEB7EBE3F0E0C0
:102750001082E8E3F0E01082E5E3F0E01082E2E3CB
:10276000F0E081E08083EAE3F0E01082E7E3F0E06C
:1027700088E58083E4E3F0E08CE88083E1E3F0E047
:1027800082EF8083F894A8E3B0E0E8E3F0E0808192
:102790008F7D8C93A7E3B0E0E7E3F0E08081806277
:1027A0008C938C91A2E3B0E0E2E3F0E080818F773C
:1027B0008C930E948D0FE0E4F0E01082E9E2F0E0FB
:1027C0008CE08083EBE2F0E01082E0E4F0E086E869
:1027D0008083EAE2F0E088E98083E7E2F0E01082BB
:1027E000E6E2F0E086E18083E0E5F0E01082E5E5F6
:1027F000F0E085E08083EBE5F0E080EE8083E4E5C7
:10280000F0E01082E3E5F0E08AE08083ECE5F0E0C0
:1028100083E68083EFE4F0E082EA8083EEE4F0E098
:1028200081E18083E6E4F0E082ED90E091838083B3
:10283000EAE4F0E01082E8E4F0E0108280E060E09A
:102840000E94310BE5E4F0E089E08083E3E4F0E00E
:102850008EE68083E9E5F0E082E0808380919D0050
:10286000816080939D0081E080936B0078940F904D
:10287000CF91DF910895DF93CF930F92CDB7DEB75D
:102880008983F894E2E2F0E089818083E3E2F0E07A
:102890008FEF8083E6E5F0E084E080837894E6E5DE
:1028A000F0E085EC80830F90CF91DF9108951F9227
:1028B0000F920FB60F9211242F933F938F939F93F4
:1028C000AF93BF93EF93FF93DF93CF9300D0CDB738
:1028D000DEB7E1E2F0E08081282F30E03A832983FF
:1028E00089819A818039910509F49CC029813A81B6
:1028F000213931059CF489819A818037910509F449
:1029000089C029813A812038310509F45AC089816A
:102910009A818036910509F449C098C029813A818D
:10292000283A3105B9F089819A81893A91053CF4B8
:1029300029813A81203A310509F47EC087C0898116
:102940009A81883B910561F029813A81203C3105CB
:10295000F9F07CC084E08093860081E0809384005D
:1029600080918600843079F4A3E2B0E02091870062
:10297000822F90E0FC01E45FFE4F80818C93822FD8
:102980008F5F80938700E6E5F0E085EC808362C08E
:1029900010928600109287001092840081E080934C
:1029A0008200E6E5F0E085EC808354C081E080930E
:1029B000850082E080938600E6E5F0E085EC808388
:1029C00049C080918600823069F4E3E2F0E08081C2
:1029D00080938700809187008093830083E08093B9
:1029E000860013C080918600833079F4309187008F
:1029F000832F90E0E3E2F0E02081FC01E450FF4F00
:102A00002083832F8F5F80938700E6E5F0E085ECDD
:102A1000808320C081E080938600E6E5F0E085ECCD
:102A2000808318C0E3E2F0E080818093FB00E6E55C
:102A3000F0E085EC80830EC085E080938600E6E5BB
:102A4000F0E085EC80831092850004C0E6E5F0E0BC
:102A500084E880830F900F90CF91DF91FF91EF91E9
:102A6000BF91AF919F918F913F912F910F900FBE8A
:102A70000F901F901895DF93CF930F92CDB7DEB7CD
:102A80008983EBE2F0E08081882F90E08072907083
:102A90000097B9F3ECE2F0E0898180830F90CF9149
:102AA000DF910895DF93CF9300D0CDB7DEB79A833F
:102AB00089830BC0E981FA81208189819A810196FD
:102AC0009A838983822F0E943B15E981FA81808154
:102AD000882381F70F900F90CF91DF910895DF93B6
:102AE000CF9300D000D000D0CDB7DEB79E838D83CA
:102AF00003C08C810E943B158D819E819B838A83BC
:102B00008D819E8101969E838D83EA81FB818491D4
:102B1000898389818C838C81882359F726960FB607
:102B2000F894DEBF0FBECDBFCF91DF910895DF9344
:102B3000CF9300D000D0CDB7DEB79A8389836B8363
:102B40004C838C81282F30E089819A81820F931FDA
:102B50009A8389830EC0E981FA81208189819A81D3
:102B600001969A838983822F0E943B158B81815025
:102B70008B83E981FA818081882319F08B818823F6
:102B800051F70F900F900F900F90CF91DF91089514
:102B9000DF93CF93CDB7DEB764970FB6F894DEBF5F
:102BA0000FBECDBF9B8B8A8B6C8B8C89482F50E0DE
:102BB0008A899B899E012F5F3F4FB9010E94781738
:102BC000CE0101960E94521564960FB6F894DEBFAE
:102BD0000FBECDBFCF91DF910895DF93CF93CDB7D7
:102BE000DEB766970FB6F894DEBF0FBECDBF9C8BE5
:102BF0008B8B6D8B4E8B8D89482F50E08B899C89F8
:102C00009E012E5F3F4FB9010E947817CE010296B8
:102C10000E946F17982F8E89891B898389811816C6
:102C20007CF406C089818150898380E30E943B1532
:102C300089811816BCF3CE0102960E94521509C074
:102C400089818195282FCE0102966E89422F0E949C
:102C5000971566960FB6F894DEBF0FBECDBFCF9125
:102C6000DF9108951F920F920FB60F9211242F93A8
:102C70003F938F939F93EF93FF93DF93CF93CDB7C2
:102C8000DEB780918B0090918A00891B8032E8F436
:102C900090918900292F30E0ECE2F0E08081F90189
:102CA000E35CFE4F8083892F8F5F80938900809142
:102CB0008B008F5F80938B0080918900813210F0B0
:102CC0001092890010923C0108C0ECE2F0E0808193
:102CD00080938C0081E080933C01CF91DF91FF9144
:102CE000EF919F918F913F912F910F900FBE0F9079
:102CF0001F901895DF93CF930F92CDB7DEB7109248
:102D00003C0190918B0080918A009817C9F08091C6
:102D10008A008F5F80938A0080918800813210F052
:102D20001092880020918800822F90E0FC01E35CE3
:102D3000FE4F80818983822F8F5F8093880001C03E
:102D4000198289810F90CF91DF910895DF93CF93FE
:102D500000D000D0CDB7DEB79B838A836C83198205
:102D600010923C0123C080918A008F5F80938A007B
:102D70008981282F30E08A819B81DC01A20FB31F5B
:102D800020918800822F90E0FC01E35CFE4F80815F
:102D90008C9389818F5F8983822F8F5F80938800D6
:102DA00080918800813210F01092880090918B0001
:102DB00080918A00981721F099818C81981798F258
:102DC00089810F900F900F900F90CF91DF91089510
:102DD000DF93CF93CDB7DEB790918B0080918A00BF
:102DE000292F281B822FCF91DF910895DF93CF9356
:102DF000CDB7DEB7AAE2B0E0EAE2F0E080818F77FB
:102E00008C93ECE2F0E0808180938D00109288003A
:102E10001092890010928A0010928B0010923C014F
:102E2000AAE2B0E0EAE2F0E0808180688C93CF9182
:102E3000DF910895629FD001739FF001829FE00DA2
:102E4000F11D649FE00DF11D929FF00D839FF00D29
:102E5000749FF00D659FF00D9927729FB00DE11DD5
:102E6000F91F639FB00DE11DF91FBD01CF011124B2
:102E70000895AA1BBB1B51E107C0AA1FBB1FA617C1
:102E8000B70710F0A61BB70B881F991F5A95A9F713
:102E900080959095BC01CD010895A1E21A2EAA1B40
:102EA000BB1BFD010DC0AA1FBB1FEE1FFF1FA217FA
:102EB000B307E407F50720F0A21BB30BE40BF50BF7
:102EC000661F771F881F991F1A9469F76095709580
:102ED000809590959B01AC01BD01CF010895FC0147
:102EE00001900020E9F7809590958E0F9F1F08951F
:102EF000FB019F01E8944230C4F04532B4F44A30FB
:102F000029F497FB1EF4909581959F4F642F7727A6
:102F10000E943917805D8A330CF0895D8193CB0163
:102F20000097A1F716F45DE251931082C9010C9449
:102F30009917DC01FC01672F71917723E1F7329734
:102F400004C07C916D9370836291AE17BF07C8F384
:062F50000895F894FFCF84
:102F5600505000C8000100E5036705019B0CB90C41
:00000001FF
