:100000000C9409010C94C0050C94E6050C94FE0CAC
:100010000C944A0C0C9426010C9426010C94260195
:100020000C9426010C9426010C9408110C942601C2
:100030000C9426010C94D7160C9426010C942601DE
:100040000C9426010C9426010C9426010C94FC14AB
:100050000C94260154686520526F626F74206E659F
:1000600065647320746F20626520726573657474B3
:100070006564206E6F772E0A0A00596F75206E65D1
:10008000656420746F20636865636B204D6F746FC7
:100090007220617373656D626C7920286F722079AC
:1000A0006F757220736F667477617265292E0A0A04
:1000B000000A0A28732E207461736B5F6D6F746F72
:1000C00072436F6E74726F6C28292066756E63744C
:1000D000696F6E20696E205250364C696221290A80
:1000E000000A0A232323204D4F544F52204F5645D8
:1000F0005243555252454E54202323230A00596F30
:1001000075206E65656420746F20636865636B207D
:10011000456E636F6465722F4D6F746F72206173EB
:1001200073656D626C7920286F7220796F7572200B
:10013000736F667477617265292E0A0A00210A0AB4
:1001400028732E207461736B5F6D6F746F72436FD1
:100150006E74726F6C28292066756E6374696F6E99
:1001600020696E205250364C696221290A0052499A
:10017000474854004C4546540041666665637465C3
:1001800064206368616E6E656C3A000A2323232045
:10019000454E434F44455220284F52204D4F544F17
:1001A0005229204D414C46554E4354494F4E212033
:1001B0002323230A00232323232320414C4C204FB5
:1001C0005045524154494F4E532053544F5050457F
:1001D0004420544F2050524556454E5420414E59CC
:1001E0002044414D414745212023232323230A0056
:1001F0000A0A232323232320454D455247454E43D6
:10020000592053485554444F574E2023232323232A
:100210000A0011241FBECFE5D8E0DEBFCDBF11E03C
:10022000A0E6B0E0E6EFFBE302C005900D92A83730
:10023000B107D9F712E0A8E7B1E001C01D92A337DA
:10024000B107E1F70E9453030C94F91D0C940000D0
:10025000DF93CF93CDB7DEB7CF91DF910895DF93D2
:10026000CF9300D0CDB7DEB780917D01282F30E04D
:100270003A83298389819A818430910509F482C067
:1002800029813A812530310564F489819A8182304F
:10029000910501F129813A81233031050CF042C0EA
:1002A00021C189819A818630910509F4BDC02981D7
:1002B0003A81263031050CF48DC089819A818730CE
:1002C000910509F4D9C029813A812830310509F412
:1002D000FDC008C18CE38093780180917A018C7F06
:1002E000816080937A0180917A01846080937A01A1
:1002F00080918401843038F084EB90E090937C010D
:1003000080937B0106C088E790E090937C01809306
:100310007B0183E080937D01809184018E5F8093D7
:100320008401E0C080917A018470882309F0DAC0EA
:1003300082E38093780180918401843070F08AE5B3
:1003400090E090937C0180937B0180917A0183609F
:1003500080937A01109284010CC080917A018C7F85
:10036000826080937A0182E390E090937C01809395
:100370007B0180917A01886080937A0188E0809384
:100380007D01B0C08CE38093780180917A018C7FED
:10039000816080937A0180917A01846080937A01F0
:1003A00080918401843038F080EA90E090937C0161
:1003B00080937B0106C084E690E090937C0180935B
:1003C0007B0185E080937D01809184018F5F809324
:1003D000840188C080917A018470882309F082C0EA
:1003E00082E38093780180917A01836080937A011F
:1003F00080917A01886080937A01809184018430B1
:1004000048F080E590E090937C0180937B0110920E
:10041000840106C08DE290E090937C0180937B0183
:1004200088E080937D015EC08CE3809378018091A9
:100430007A018C7F816080937A0180917A01846057
:1004400080937A0180918401843038F080EA90E0D2
:1004500090937C0180937B0106C084E690E09093AA
:100460007C0180937B0187E080937D0180918401F2
:100470008F5F8093840136C080917A0184708823D5
:1004800089F582E38093780180917A018C7F826084
:1004900080937A0180917A01886080937A018091BB
:1004A0008401843048F080E590E090937C01809353
:1004B0007B011092840106C08DE290E090937C0154
:1004C00080937B0188E080937D010CC080917A014C
:1004D0008470882339F480917A018870882311F41C
:1004E00010927D010F900F90CF91DF910895DF93CF
:1004F000CF93CDB7DEB78091A901882341F08091D9
:100500000602882321F082E080937D0117C080914C
:10051000A901882341F080917D01833079F084E046
:1005200080937D010BC080910602882339F0809171
:100530007D01833019F086E080937D01CF91DF91BA
:1005400008950F931F93DF93CF9300D0CDB7DEB7FD
:100550009A838983E981FA8183819481009709F4E0
:1005600050C0E981FA8182818870882399F0E981FD
:10057000FA814081E981FA8182818370982FE98133
:10058000FA8123813481842F692FA90120E00E9400
:100590000A0B32C0E981FA8182818470882361F17B
:1005A000E981FA811081E981FA8182818370082FC3
:1005B000E981FA8183819481CC01A0E0B0E0BC01A3
:1005C000CD010E94C51ADC01CB01BC01CD012FE891
:1005D00032EC45E75EE30E949519DC01CB01BC01DA
:1005E000CD010E94BF17DC01CB019C01812F602F40
:1005F000A90120E00E943F0AE981FA811482138256
:100600002AC0E981FA81828184708823B1F4E9816A
:10061000FA8182818870882381F4E981FA8182815C
:1006200083700E947D09E981FA818081E981FA81E4
:100630009181692F0E9459090EC00E94F9098823EF
:1006400051F0E981FA818281877F8283E981FA8191
:1006500082818B7F82830F900F90CF91DF911F91CA
:100660000F910895DF93CF93CDB7DEB70E94280195
:100670000E942F0180917D01882329F088E791E075
:100680000E94A1020DC080916500882329F080E6B8
:1006900090E00E94A10204C08EE791E00E94A102B6
:1006A000CF91DF910895DF93CF93CDB7DEB70E944E
:1006B000461484EC99E00E94CD1387E792E00E94F3
:1006C00091040E94CC100E9432030E943714FBCF89
:1006D000DF93CF93CDB7DEB78091BD01843010F0AA
:1006E0001092BD01CF91DF910895DF93CF93CDB7E5
:1006F000DEB784E08093BD01CF91DF910895DF9351
:10070000CF9300D0CDB7DEB7A7E3B0E0E7E3F0E0EA
:1007100080818C778C93A8E3B0E0E8E3F0E08081FF
:100720008C778C938091A8018870882371F0A7E35F
:10073000B0E0E7E3F0E0808180688C93A8E3B0E06C
:10074000E8E3F0E0808180688C938091A80180715B
:10075000882371F0A7E3B0E0E7E3F0E080818260F6
:100760008C93A8E3B0E0E8E3F0E0808182608C93B2
:100770008091A8018072882371F0A7E3B0E0E7E3DD
:10078000F0E0808181608C93A8E3B0E0E8E3F0E0E2
:10079000808181608C93A4E3B0E0E4E3F0E08081A9
:1007A0008F788C93A5E3B0E0E5E3F0E080818F786B
:1007B0008C93A4E3B0E0E4E3F0E08081282F809103
:1007C000A801882F90E082959295907F9827807F4E
:1007D00098278077822B8C93A5E3B0E0E5E3F0E0E7
:1007E0008081282F8091A801882F90E08295929592
:1007F000907F9827807F98278077822B8C93809199
:10080000BD01882359F48091A8018A838A818823B5
:1008100011F081E08A838A81898303C08091BD01C0
:10082000898389818093BD010F900F90CF91DF91D3
:100830000895DF93CF930F92CDB7DEB78983898177
:100840008093A8010E947F030F90CF91DF910895BC
:10085000DF93CF930F92CDB7DEB7A8E3B0E0E8E324
:10086000F0E080818E7F8C93A7E3B0E0E7E3F0E0D7
:1008700080818E7F8C930000E6E3F0E080818170C0
:1008800089838091A8018072882371F0A7E3B0E08A
:10089000E7E3F0E0808181608C93A8E3B0E0E8E3D7
:1008A000F0E0808181608C9389810F90CF91DF91FE
:1008B0000895DF93CF930F92CDB7DEB7A5E3B0E0F5
:1008C000E5E3F0E080818F7B8C93A4E3B0E0E4E388
:1008D000F0E080818F7B8C930000E3E3F0E0808187
:1008E000807489838091A8018470882371F0A4E3C7
:1008F000B0E0E4E3F0E0808180648C93A5E3B0E0B5
:10090000E5E3F0E0808180648C9389810F90CF9142
:10091000DF910895DF93CF93CDB7DEB7CF91DF910D
:100920000895DF93CF9300D0CDB7DEB79A83898344
:1009300089819A8190936700809366000F900F9051
:10094000CF91DF910895DF93CF9300D0CDB7DEB77D
:100950008091F5018333E8F00E9428048A830E9485
:10096000590489839091A9018A81981729F490915B
:1009700006028981981759F08A818093A90189819B
:1009800080930602E0916600F0916700099510924D
:10099000F5010F900F90CF91DF910895DF93CF93E2
:1009A00000D00F92CDB7DEB78983E6E2F0E0808118
:1009B000882F90E080749070009719F01B821A8243
:1009C0001FC0E7E2F0E0898180648083E6E2F0E026
:1009D00086ED8083E6E2F0E08081882F90E08074ED
:1009E00090700097B9F7A6E2B0E0E6E2F0E080810F
:1009F00080618C93E4E2F0E0808191819B838A8323
:100A00008A819B810F900F900F90CF91DF91089575
:100A1000DF93CF930F92CDB7DEB78983E7E2F0E0A3
:100A2000898180648083E6E2F0E086ED80830F9028
:100A3000CF91DF910895DF93CF9300D0CDB7DEB78C
:100A4000E6E2F0E08081882F90E08074907000975B
:100A500009F091C080918A01282F30E03A832983E0
:100A600089819A818330910509F44AC029813A81AC
:100A7000243031057CF489819A818130910541F1DE
:100A800029813A81223031057CF589819A8100974C
:100A900099F065C029813A812530310509F448C0B3
:100AA00089819A8185309105BCF129813A8126306E
:100AB000310509F449C053C0E4E2F0E0808191813E
:100AC00090930A028093090286E00E94080547C0BD
:100AD000E4E2F0E08081918190930F0280930E0216
:100AE00085E00E9408053BC0E4E2F0E0808191814E
:100AF000909300028093FF0183E00E9408052FC0BD
:100B0000E4E2F0E0808191819093C9018093C80173
:100B100082E00E94080523C0E4E2F0E08081918138
:100B20009093EF018093EE0180E00E94080517C0CA
:100B3000E4E2F0E0808191819093FD018093FC01DB
:100B400081E00E9408050BC0E4E2F0E08081918121
:100B50009093C7018093C60187E00E9408058091A9
:100B60008A01863019F410928A0105C080918A01A9
:100B70008F5F80938A010F900F90CF91DF9108953E
:100B80001F920F920FB60F9211248F939F93DF93B2
:100B9000CF93CDB7DEB78091040290910502019604
:100BA00090930502809304028091FA019091FB01D9
:100BB00001969093FB018093FA01CF91DF919F9171
:100BC0008F910F900FBE0F901F9018951F920F924C
:100BD0000FB60F9211248F939F93DF93CF93CDB7CE
:100BE000DEB78091F6019091F70101969093F7019D
:100BF0008093F6018091D0019091D101019690935C
:100C0000D1018093D001CF91DF919F918F910F906F
:100C10000FBE0F901F901895DF93CF93CDB7DEB71F
:100C2000CF91DF910895DF93CF9300D0CDB7DEB79A
:100C30009A83898389819A8190936900809368005F
:100C40000F900F90CF91DF910895DF93CF9300D055
:100C5000CDB7DEB78A83F894A2E3B0E0E2E3F0E038
:100C600080818F778C930E9432101092BF01109276
:100C7000BE011092CF011092CE011092B9011092D4
:100C8000B8011092F4011092F30110920D0210922B
:100C9000EB01EAE4F0E01082E8E4F0E01082EFE437
:100CA000F0E010820E94E11080EF91E00E941416A3
:100CB00085EB91E00E9414168A81813019F08A81B7
:100CC0008230E9F48BE891E00E94141689E791E004
:100CD0000E9414168A81813029F484E791E00E94F1
:100CE000141604C08EE691E00E9414168DE391E084
:100CF0000E9414168EEF90E00E9414160FC08A8195
:100D0000833061F481EE90E00E94141681EB90E054
:100D10000E9414168AE790E00E94141684E590E081
:100D20000E94141686E30E9419048AE0898307C092
:100D300080E090E80E94EE13898181508983898147
:100D40008823B1F780E00E9419048AE0898307C0F4
:100D50008FEF9FEF0E94EE138981815089838981F3
:100D60008823B1F7DFCFDF93CF93CDB7DEB72897D6
:100D70000FB6F894DEBF0FBECDBF8091EA0182337B
:100D800008F47EC01092EA018091E701882309F0FF
:100D900043C080910E0290910F0223E083309207AE
:100DA00040F48091FF019091000243E0833094076A
:100DB000F0F08091E9018F5F8093E9018AE08093F0
:100DC000E7011092BF011092BE011092CF01109264
:100DD000CE011092B9011092B8011092F401109254
:100DE000F3018091A50184608093A50159C280918F
:100DF000A5018B7F8093A5018091B401853628F0F1
:100E00001092E9011092B40107C08091E90183308A
:100E100018F083E00E94250680910E0290910F0247
:100E20008639910598F48091C0019091C101009795
:100E300069F48091AE019091AF01009739F08091F3
:100E40000D02873918F081E00E9425068091FF018C
:100E5000909100028639910598F480910202909158
:100E60000302009769F48091AC019091AD01009765
:100E700039F08091EB01873918F082E00E94250655
:100E80008091BC01882309F4FCC18091E70188238B
:100E900009F0F0C18091E901882331F08091B4011B
:100EA0008F5F8093B40102C01092B4018091A501BC
:100EB0008270882309F43FC020910402309105021A
:100EC0008091AA019091AB012817390790F01092F8
:100ED000AF011092AE011092B9011092B8011092B8
:100EE000BF011092BE018091A5018D7F8093A50165
:100EF00022C020910402309105028091C20190919C
:100F0000C30128173907B8F08091AE019091AF0165
:100F1000969587959093AF018093AE018091AE0135
:100F20009091AF018631910530F486E190E0909385
:100F3000AF018093AE018091A5018170882309F4EF
:100F40003FC02091F6013091F7018091CC01909142
:100F5000CD012817390790F01092AD011092AC0125
:100F60001092F4011092F3011092CF011092CE0171
:100F70008091A5018E7F8093A50122C02091F6016A
:100F80003091F7018091F8019091F9012817390704
:100F9000B8F08091AC019091AD01969587959093B2
:100FA000AD018093AC018091AC019091AD0186318F
:100FB000910530F486E190E09093AD018093AC010F
:100FC0009091850180918701981739F4909186015D
:100FD00080918801981709F464C08091AE019091C6
:100FE000AF01009731F48091AC019091AD01009771
:100FF00041F18091AE019091AF019093B101809346
:10100000B0018091AC019091AD019093C5018093A6
:10101000C4011092AF011092AE011092AD01109276
:10102000AC011092CF011092CE011092BF0110922C
:10103000BE011092B9011092B8011092F401109201
:10104000F301EFE4F0E08081882359F58091850178
:1010500090918601692F0E94D60B8091B0019091EA
:10106000B1019093AF018093AE018091C401909142
:10107000C5019093AD018093AC018091AE01909138
:10108000AF01969587959093B9018093B8018091AF
:10109000AC019091AD01969587959093F401809362
:1010A000F3012091AE013091AF018091C001909188
:1010B000C101A901481B590BCA019C838B83209154
:1010C000B8013091B9018B819C81820F931F90935D
:1010D000B9018093B8018091B8019091B90151E0B4
:1010E000853A950734F084EA91E09093B9018093B2
:1010F000B8018091B8019091B9012EEF8C3592071B
:1011000034F48CE59EEF9093B9018093B8018091FF
:10111000C0019091C101009751F48091AE0190916E
:10112000AF01009721F41092B9011092B80180919B
:10113000B8019091B9019E838D834D815E815523C5
:101140002CF48D819E8101969E838D838D819E815D
:10115000959587959093BF018093BE018091BE01C4
:101160009091BF01833D910534F082ED90E0909322
:10117000BF018093BE018091BE019091BF01992370
:1011800024F41092BF011092BE012091AC01309165
:10119000AD018091020290910302A901481B590BF5
:1011A000CA019A8389832091F3013091F4018981E6
:1011B0009A81820F931F9093F4018093F3018091A1
:1011C000F3019091F40151E0853A950734F084EAF7
:1011D00091E09093F4018093F3018091F301909159
:1011E000F4012EEF8C35920734F48CE59EEF90934A
:1011F000F4018093F3018091020290910302009721
:1012000051F48091AC019091AD01009721F41092BE
:10121000F4011092F3018091F3019091F401988709
:101220008F834F81588555232CF48F8198850196A3
:1012300098878F838F819885959587959093CF0117
:101240008093CE018091CE019091CF01833D910595
:1012500034F082ED90E09093CF018093CE018091A5
:10126000CE019091CF01992354F41092CF011092A6
:10127000CE0105C08091E70181508093E701109273
:10128000BC019091A50180910802981749F08091C6
:10129000A50180930802E0916800F091690009952A
:1012A00028960FB6F894DEBF0FBECDBFCF91DF9169
:1012B0000895DF93CF9300D0CDB7DEB789836A83DB
:1012C0008981893C10F088EC89838A81893C10F0FF
:1012D00088EC8A838981882F90E09093AF01809376
:1012E000AE018A81882F90E09093AD018093AC018C
:1012F0000F900F90CF91DF910895DF93CF9300D09F
:1013000000D00F92CDB7DEB78983898180938901A0
:101310008981813019F08981823029F481E090E05F
:101320009D838C8302C01D821C828C8180938501E9
:101330008981813019F08981833029F481E090E03E
:101340009B838A8302C01B821A828A8180938601D2
:101350000F900F900F900F900F90CF91DF91089505
:10136000DF93CF93CDB7DEB72A970FB6F894DEBFE1
:101370000FBECDBF9C838B837E836D831A868B814A
:101380009C81992314F481E08A878A858093850162
:1013900019868D819E81992314F481E0898789853E
:1013A000809386018B819C81181619061CF48B8111
:1013B000888703C08B818195888788858A838B8104
:1013C0009C81181619061CF48D818F8303C08D81B2
:1013D00081958F838F8189838A8169810E945909D0
:1013E0002A960FB6F894DEBF0FBECDBFCF91DF9126
:1013F0000895DF93CF9300D0CDB7DEB78091A501DC
:101400008170882351F48091A5018270882329F48A
:1014100081E090E09A83898302C01A8219828981CF
:101420000F900F90CF91DF910895DF93CF93CDB7B9
:10143000DEB71092AF011092AE011092AD01109282
:10144000AC011092B9011092B8011092F4011092FF
:10145000F3018091A5018E7F8093A5018091A50164
:101460008D7F8093A5018091A50180930802E09172
:101470006800F09169000995CF91DF910895DF939D
:10148000CF9300D000D00F92CDB7DEB789836A83A7
:101490005C834B832D838091A50181608093A5019E
:1014A0008091A50182608093A5011092F9011092AC
:1014B000F8011092C3011092C20189818731D0F0E6
:1014C0008981282F30E086EF9FEF821B930B880FD6
:1014D000991F9C018B819C81820F931F9093F9012E
:1014E0008093F8018091F8019091F9019093C301E4
:1014F0008093C2018B819C8102979093CD01809350
:10150000CC018091CC019091CD019093AB0180935F
:10151000AA018B819C818832910500F588E290E0D8
:101520009C838B8384E190E09093CD018093CC01E8
:101530008091CC019091CD019093AB018093AA0151
:101540008AE090E09093F9018093F8018091F8018E
:101550009091F9019093C3018093C2018B819C818A
:1015600021E080399207E0F489818932C8F088E26D
:1015700089838B819C819C0136952795369527958B
:101580008B819C81821B930B9093F9018093F801CE
:101590008091F8019091F9019093C3018093C20169
:1015A00010920502109204021092F7011092F601B7
:1015B000898169810E9459098A810E947D098B81F4
:1015C0009C819093D5018093D4018B819C819093D1
:1015D000B6018093B5018091A501809308028091A6
:1015E000A50180930802E0916800F09169000995D7
:1015F0008D81882339F002C00E9437140E94F909B6
:101600008823D1F30F900F900F900F900F90CF91F0
:10161000DF910895DF93CF93CDB7DEB727970FB64D
:10162000F894DEBF0FBECDBF8B836C835E834D838A
:101630002F838091A50181608093A5018091A501F0
:1016400082608093A5018D819E81CC01A0E0B0E0F5
:1016500020EB32E040E050E0BC01CD010E94331DA0
:10166000DC01CB0124E630E040E050E0BC01CD01DC
:101670000E94661DDA01C9019A83898389819A8152
:10168000845690409093F9018093F80189819A8162
:10169000845690409093C3018093C20189819A81BE
:1016A0009093CD018093CC0189819A819093AB0175
:1016B0008093AA0189819A8188329105E0F488E2B9
:1016C00090E09A83898384E190E09093CD018093A8
:1016D000CC0184E190E09093AB018093AA018AE071
:1016E00090E09093F9018093F8018AE090E0909364
:1016F000C3018093C2018B816B810E9459098C8147
:101700000E947D0910920502109204021092F701C6
:101710001092F60189819A819093D5018093D4012A
:1017200089819A819093B6018093B5018091A5013A
:1017300080930802E0916800F091690009958F811B
:10174000882339F002C00E9437140E94F9098823C7
:10175000D1F327960FB6F894DEBF0FBECDBFCF9161
:10176000DF910895DF93CF9300D0CDB7DEB78983A3
:101770006A838981833D10F082ED89838A81833D6C
:1017800010F082ED8A838A81882F90E09093CF01B8
:101790008093CE018981882F90E09093BF01809340
:1017A000BE010F900F90CF91DF910895DF93CF93FB
:1017B00000D0CDB7DEB789836A83898180938701A2
:1017C0008A81809388018981809385018A818093B1
:1017D00086018981882341F0A5E3B0E0E5E3F0E0EC
:1017E000808184608C9307C0A5E3B0E0E5E3F0E07E
:1017F00080818B7F8C938A81882341F0A5E3B0E0C0
:10180000E5E3F0E0808188608C9307C0A5E3B0E059
:10181000E5E3F0E08081877F8C930F900F90CF916C
:10182000DF910895DF93CF9300D0CDB7DEB78983E2
:101830006A8307C0A9E5B0E0E9E5F0E0808180684F
:101840008C938091B3018823A9F78981882F90E038
:101850008F7390709C0100243695279507943695D8
:1018600027950794322F202D8A81882F90E08F733F
:101870009070822B932B90639093D3018093D2012D
:101880008091B20180648093B2010F900F90CF914C
:10189000DF9108951F920F920FB60F9211248F932C
:1018A0009F93AF93BF93EF93FF93DF93CF93CDB706
:1018B000DEB780916A00823008F065C080918B01AC
:1018C0008823D9F180918B018C33C8F48091EC018D
:1018D0009091ED0180709074009749F0A2E3B0E020
:1018E000E2E3F0E0908180E889278C9320C0A2E3B6
:1018F000B0E0E2E3F0E080818F778C9318C08091B4
:10190000EC019091ED0180709074009741F0A2E39A
:10191000B0E0E2E3F0E080818F778C9308C0A2E32F
:10192000B0E0E2E3F0E0908180E889278C93809139
:101930008B01815080938B0154C08091B301882327
:10194000D1F0A2E3B0E0E2E3F0E080818F778C9306
:101950008091EC019091ED01880F991F9093ED011A
:101960008093EC0188E780938B018091B3018150D3
:101970008093B30136C0A2E3B0E0E2E3F0E08081FF
:101980008F778C932EC08091B7018823E1F08091EE
:10199000B2018170882349F4A8E3B0E0E8E3F0E005
:1019A000908180E489278C9308C0A5E3B0E0E5E34B
:1019B000F0E0908180E889278C938091B701815075
:1019C0008093B7010EC0A8E3B0E0E8E3F0E08081C7
:1019D00080648C93A5E3B0E0E5E3F0E0808180686B
:1019E0008C93CF91DF91FF91EF91BF91AF919F9138
:1019F0008F910F900FBE0F901F9018951F920F920E
:101A00000FB60F9211248F939F93EF93FF93DF9361
:101A1000CF930F92CDB7DEB780916A00833021F06B
:101A200080916A008630C1F48091B2018071882370
:101A300099F48091B2018072882371F0E6E3F0E0BE
:101A40008081882F90E084709070009729F48091B5
:101A500007028F5F80930702E6E3F0E080818091C8
:101A6000B2018D7F8093B2010F90CF91DF91FF91F2
:101A7000EF919F918F910F900FBE0F901F9018952F
:101A8000DF93CF9300D0CDB7DEB79A8389830F90D1
:101A90000F90CF91DF910895DF93CF9300D0CDB712
:101AA000DEB79A83898389819A8190936C008093B1
:101AB0006B000F900F90CF91DF910895DF93CF933C
:101AC000CDB7DEB7CF91DF910895DF93CF9300D0EC
:101AD000CDB7DEB79A83898389819A8190936E000E
:101AE00080936D000F900F90CF91DF910895DF9359
:101AF000CF93CDB7DEB72E970FB6F894DEBF0FBEEB
:101B0000CDBF8091CA019091CB018230910508F43C
:101B10004DC28091B2018071882309F024C2809166
:101B20006A00282F30E03E872D878D859E85823084
:101B3000910509F4B9C02D853E852330310554F453
:101B40008D859E850097C9F02D853E852130310514
:101B500089F10FC28D859E858530910509F454C1A8
:101B60002D853E852630310509F483C18D859E85FE
:101B70008330910509F4CDC0FCC1A9E5B0E0E9E5E9
:101B8000F0E080818F778C93A2E3B0E0E2E3F0E0B5
:101B900080818F778C93A8E3B0E0E8E3F0E0808168
:101BA00080648C93A5E3B0E0E5E3F0E08081806899
:101BB0008C93DFC18091B301882309F04DC08091DF
:101BC000B20180748823C1F08091D2019091D30139
:101BD0009093ED018093EC018EE08093B3018091AE
:101BE000B2018F7B8093B201A9E5B0E0E9E5F0E0B6
:101BF000808180688C931CC0A9E5B0E0E9E5F0E045
:101C000080818F778C93A2E3B0E0E2E3F0E0808103
:101C10008F778C93A8E3B0E0E8E3F0E08081806404
:101C20008C93A5E3B0E0E5E3F0E0808180688C93DD
:101C3000909190019C871B862C85243110F031E017
:101C40003B878C858F5F809390018B85882359F02B
:101C500082E080936A0007C0A9E5B0E0E9E5F0E022
:101C6000808180688C938091B2018870882309F408
:101C700080C1E0916B00F0916C0080910B0290911B
:101C80000C02099580910B0290910C029093BB017C
:101C90008093BA0110920C0210920B028091B20153
:101CA000877F8093B20165C1A9E5B0E0E9E5F0E086
:101CB00080818F778C93A2E3B0E0E2E3F0E0808153
:101CC0008F778C93A8E3B0E0E8E3F0E08081806454
:101CD0008C93A5E3B0E0E5E3F0E0808180688C932D
:101CE0001092B7011092070210928F0110928E018C
:101CF0008091B2018E7F8093B2018091B2018062A7
:101D00008093B20183E08093900183E080936A0026
:101D100030C18091B7018823E1F4909190019A87B6
:101D200019862A85233010F031E039878A858F5F44
:101D3000809390018985882361F0A9E5B0E0E9E509
:101D4000F0E0808180688C9388E28093B7011092E4
:101D500090018091E801882369F080910702823028
:101D600048F01092070281E08093E80185E08093BB
:101D70006A00FFC080910702863048F01092070287
:101D800081E08093E80185E080936A00F2C02091B1
:101D90008E0130918F0138872F831E828F81988525
:101DA0008E30910510F091E09E838F819885019689
:101DB00090938F0180938E012E81222309F4D9C044
:101DC0001092E80185E080936A00A9E5B0E0E9E5BA
:101DD000F0E080818F778C93A2E3B0E0E2E3F0E063
:101DE00080818F778C93A8E3B0E0E8E3F0E0808116
:101DF00080648C93A5E3B0E0E5E3F0E08081806847
:101E00008C931092B701B5C0A9E5B0E0E9E5F0E028
:101E100080818F778C93A2E3B0E0E2E3F0E08081F1
:101E20008F778C93A8E3B0E0E8E3F0E080818064F2
:101E30008C93A5E3B0E0E5E3F0E0808180688C93CB
:101E40001092B7011092070210928F0110928E012A
:101E50008091B20181608093B2018091B201806271
:101E60008093B20183E08093900186E080936A00C2
:101E700080C08091B7018823E1F4309190013D83C7
:101E80001C828D81833010F091E09C838D818F5F67
:101E9000809390012C81222361F0A9E5B0E0E9E56F
:101EA000F0E0808180688C9388E28093B701109283
:101EB00090018091F101882369F0809107028230BE
:101EC00048F01092070281E08093F10181E0809355
:101ED0006A004FC080910702863048F010920702D6
:101EE00081E08093F10181E080936A0042C080919B
:101EF0008E0190918F019B838A8319822A813B8175
:101F00002E30310510F031E039838A819B810196B2
:101F100090938F0180938E018981882351F11092D3
:101F2000F10181E080936A00A9E5B0E0E9E5F0E025
:101F300080818F778C93A2E3B0E0E2E3F0E08081D0
:101F40008F778C93A8E3B0E0E8E3F0E080818064D1
:101F50008C93A5E3B0E0E5E3F0E0808180688C93AA
:101F60001092B70106C010928F0110928E0110924C
:101F7000900190918D018091E801981731F4909132
:101F80008C018091F101981769F08091E8018093AC
:101F90008D018091F10180938C01E0916D00F091B1
:101FA0006E0009951092CB011092CA012E960FB6C1
:101FB000F894DEBF0FBECDBFCF91DF910895DF93C0
:101FC000CF93CDB7DEB710926A00A9E5B0E0E9E59E
:101FD000F0E080818F778C93A2E3B0E0E2E3F0E061
:101FE00080818F778C93A8E3B0E0E8E3F0E0808114
:101FF00080648C93A5E3B0E0E5E3F0E08081806845
:102000008C931092F1011092E801CF91DF91089525
:10201000DF93CF93CDB7DEB7A9E5B0E0E9E5F0E017
:1020200080818F778C93A2E3B0E0E2E3F0E08081DF
:102030008F778C93A8E3B0E0E8E3F0E080818064E0
:102040008C93A5E3B0E0E5E3F0E0808180688C93B9
:102050001092F1011092E80181E080936A00CF9123
:10206000DF910895DF93CF93CDB7DEB7A1E3B0E062
:10207000E1E3F0E080818F7B8C93A2E3B0E0E2E3C8
:10208000F0E080818F7B8C93A7E3B0E0E7E3F0E0A2
:102090008081877F8C93A8E3B0E0E8E3F0E0808163
:1020A000877F8C93A8E3B0E0E8E3F0E080818F7B4A
:1020B0008C93A5E3B0E0E5E3F0E080818F778C932B
:1020C000CF91DF910895DF93CF93CDB7DEB7A1E332
:1020D000B0E0E1E3F0E0808180648C93A2E3B0E0C3
:1020E000E2E3F0E0808180648C93A7E3B0E0E7E373
:1020F000F0E08081877F8C93A8E3B0E0E8E3F0E034
:102100008081877F8C93CF91DF910895DF93CF9368
:10211000CDB7DEB7A1E3B0E0E1E3F0E080818F7BF3
:102120008C93A2E3B0E0E2E3F0E080818F7B8C93BC
:10213000A7E3B0E0E7E3F0E0808188608C93A8E358
:10214000B0E0E8E3F0E0808188608C93CF91DF918C
:102150000895DF93CF93CDB7DEB7A1E3B0E0E1E31D
:10216000F0E0808180648C93A2E3B0E0E2E3F0E0F1
:10217000808180648C93A7E3B0E0E7E3F0E08081A6
:1021800088608C93A8E3B0E0E8E3F0E080818860A9
:102190008C93CF91DF910895DF93CF93CDB7DEB7C6
:1021A000A8E3B0E0E8E3F0E0808180618C93809167
:1021B000BD01843018F483E08093BD01CF91DF919D
:1021C0000895DF93CF9300D0CDB7DEB7A8E3B0E09A
:1021D000E8E3F0E080818F7E8C938091BD018430B4
:1021E00090F48091BD01882321F48091A801882377
:1021F00029F081E090E09A83898302C01A821982D3
:1022000089818093BD010F900F90CF91DF91089548
:102210001F920F920FB60F9211242F933F935F934B
:102220006F937F938F939F93AF93BF93EF93FF939E
:10223000DF93CF93CDB7DEB72B97DEBFCDBF8091B5
:10224000A3019091A40101969093A4018093A3010E
:102250008091FE018F5F8093FE01209101022B8708
:102260001A868B85893010F091E09A878B858F5F75
:10227000809301022A85222309F4ECC18091D601C2
:10228000882F90E081709070882349F08091D70169
:102290009091D80101969093D8018093D7018091B5
:1022A000D601882F90E082709070009749F080915D
:1022B000D9019091DA0101969093DA018093D901C6
:1022C0008091D601882F90E084709070009749F03B
:1022D0008091DB019091DC0101969093DC01809369
:1022E000DB018091D601882F90E088709070009774
:1022F00049F08091DD019091DE0101969093DE011D
:102300008093DD018091D601882F90E080719070DC
:10231000009749F08091DF019091E0010196909340
:10232000E0018093DF018091D601882F90E08072D8
:102330009070009749F08091E1019091E20101963F
:102340009093E2018093E1018091D601882F90E083
:1023500080749070009749F08091E3019091E401BE
:1023600001969093E4018093E3018091D601882344
:102370004CF48091E5019091E60101969093E6017D
:102380008093E5018091F201898718869985993CAF
:1023900010F021E0288789858F5F8093F20188857E
:1023A0008823E9F08091D0019091D10190930302AC
:1023B000809302028091FA019091FB019093C101F8
:1023C0008093C0011092D1011092D0011092FB01B4
:1023D0001092FA0181E08093BC011092F201809189
:1023E000BD01833008F0A3C08091BD01823009F0A7
:1023F0006BC08091A801882309F04BC080919501A2
:10240000909196019F838E8328EC30E08E819F818E
:10241000B9010E94521D1D82009711F491E09D8325
:102420008E819F81019690939601809395012D81D5
:10243000222309F47CC080919501909196012FE0B0
:10244000813A9207A8F0A7E3B0E0E7E3F0E08081EB
:102450008D7F8C93A8E3B0E0E8E3F0E080818D7F8E
:102460008C931092BD0110929601109295015FC05D
:10247000A7E3B0E0E7E3F0E0908182E089278C9366
:10248000A8E3B0E0E8E3F0E0908182E089278C9354
:102490004EC08091A8018071882371F4A7E3B0E059
:1024A000E7E3F0E080818D7F8C93A8E3B0E0E8E380
:1024B000F0E080818D7F8C931092960110929501AF
:1024C00081E08093BD0133C0809195019091960188
:1024D0002EE2813E920710F18091BD018130B1F46E
:1024E0001092BD018091A8018071882391F4A7E327
:1024F000B0E0E7E3F0E080818D7F8C93A8E3B0E06B
:10250000E8E3F0E080818D7F8C9303C082E08093CC
:10251000BD01109296011092950109C0809195011C
:1025200090919601019690939601809395018091E8
:10253000CA019091CB018330910548F48091CA0182
:102540009091CB0101969093CB018093CA01809129
:10255000EA01873328F48091EA018F5F8093EA01D2
:102560008091F501843328F48091F5018F5F809389
:10257000F5018091F0018C831B829C81933010F0D7
:1025800021E02B838C818F5F8093F0018B818823E6
:1025900009F45EC08091EB01282F30E08091CE01DC
:1025A0009091CF0128173907D9F08091EB01282F9E
:1025B00030E08091CE019091CF012817390734F493
:1025C0008091EB018F5F8093EB0105C08091EB015F
:1025D00081508093EB01EAE4F0E08091EB0180838D
:1025E00080910D02282F30E08091BE019091BF01B3
:1025F00028173907D9F080910D02282F30E08091FB
:10260000BE019091BF012817390734F480910D0263
:102610008F5F80930D0205C080910D0281508093E1
:102620000D02E8E4F0E080910D02808380910D02BC
:10263000882321F48091EB01882329F0EFE4F0E076
:1026400082EA808303C0EFE4F0E010821092F00190
:10265000109201028091B2018870882309F077C03E
:1026600080919101909192019A8389838091930145
:102670008F5F80939301809193018631F0F089817F
:102680009A8180709074009789F489819A81807012
:102690009072009759F089819A8190930C028093EF
:1026A0000B028091B20188608093B2018091B201E7
:1026B0008F7E8093B2011A821982E6E3F0E0908166
:1026C000809194018927882F90E084709070009702
:1026D000C1F1809194018095809394018091930140
:1026E000873038F48091B2018F7E8093B2011A82D4
:1026F000198289819A81009721F0809193018F300E
:1027000000F18091B20180618093B20189819A8148
:1027100080709074009731F489819A81880F991F95
:102720009A83898380919401882F90E084709070BF
:10273000009729F489819A8181609A838983109214
:10274000930189819A8190939201809391012B96B4
:10275000DEBFCDBFCF91DF91FF91EF91BF91AF91E0
:102760009F918F917F916F915F913F912F910F90EA
:102770000FBE0F901F901895DF93CF930F92CDB798
:10278000DEB789831092FE019091FE01898198172E
:10279000D8F30F90CF91DF910895DF93CF9300D0BE
:1027A0000F92CDB7DEB79A83898303C08AE00E9477
:1027B000BC131B8289819A81009711F081E08B8381
:1027C00089819A8101979A8389838B81882371F704
:1027D0000F900F900F90CF91DF910895DF93CF93DB
:1027E00000D00F92CDB7DEB79A83898301C0000075
:1027F0001B8289819A81009711F081E08B83898106
:102800009A8101979A8389838B81882381F70F901E
:102810000F900F90CF91DF910895DF93CF93CDB7B5
:10282000DEB7AAE3B0E0EAE3F0E0808180618C9358
:10283000ABE3B0E0EBE3F0E0808180618C93CF917B
:10284000DF910895DF93CF93CDB7DEB7ABE3B0E070
:10285000EBE3F0E080818F7E8C93AAE3B0E0EAE3C3
:10286000F0E080818F7E8C93CF91DF910895DF938C
:10287000CF93CDB7DEB70E941B050E94770D0E9453
:10288000A3040E94B306CF91DF910895DF93CF9305
:102890000F92CDB7DEB7EBE3F0E01082E8E3F0E0B3
:1028A0001082E5E3F0E01082E2E3F0E081E0808373
:1028B000EAE3F0E01082E7E3F0E088E58083E4E318
:1028C000F0E08CE88083E1E3F0E082EF8083F8942D
:1028D000A8E3B0E0E8E3F0E080818F7D8C93A7E38C
:1028E000B0E0E7E3F0E0808180628C938C91A2E31A
:1028F000B0E0E2E3F0E080818F778C930E943210A9
:10290000E0E4F0E01082E9E2F0E08CE08083EBE2CA
:10291000F0E01082E0E4F0E086E88083EAE2F0E0B4
:1029200088E98083E7E2F0E01082E6E2F0E086E109
:102930008083E0E5F0E01082E5E5F0E085E080836B
:10294000EBE5F0E080EE8083E4E5F0E01082E3E583
:10295000F0E08AE08083ECE5F0E083E68083EFE45A
:10296000F0E082EA8083EEE4F0E081E18083E6E457
:10297000F0E082ED90E091838083EAE4F0E0108261
:10298000E8E4F0E0108280E060E00E94D60BE5E42D
:10299000F0E089E08083E3E4F0E08EE68083E9E51F
:1029A000F0E082E080838091B20181608093B20187
:1029B00081E080936A0078940F90CF91DF91089521
:1029C000DF93CF930F92CDB7DEB78983F894E2E21D
:1029D000F0E089818083E3E2F0E08FEF8083E6E539
:1029E000F0E084E080837894E6E5F0E085EC808395
:1029F0000F90CF91DF9108951F920F920FB60F9213
:102A000011242F933F938F939F93AF93BF93EF9393
:102A1000FF93DF93CF9300D0CDB7DEB7E1E2F0E0D4
:102A20008081282F30E03A83298389819A818039F7
:102A3000910509F49CC029813A81213931059CF422
:102A400089819A818037910509F489C029813A8169
:102A50002038310509F45AC089819A818036910560
:102A600009F449C098C029813A81283A3105B9F062
:102A700089819A81893A91053CF429813A81203AE9
:102A8000310509F47EC087C089819A81883B910510
:102A900061F029813A81203C3105F9F07CC084E065
:102AA00080939B0181E08093990180919B01843008
:102AB00079F4A3E2B0E020919C01822F90E0FC0128
:102AC000EF5DFD4F80818C93822F8F5F80939C01FF
:102AD000E6E5F0E085EC808362C010929B011092E5
:102AE0009C011092990181E080939701E6E5F0E066
:102AF00085EC808354C081E080939A0182E08093CA
:102B00009B01E6E5F0E085EC808349C080919B0164
:102B1000823069F4E3E2F0E0808180939C0180914F
:102B20009C018093980183E080939B0113C0809166
:102B30009B01833079F430919C01832F90E0E3E294
:102B4000F0E02081FC01EF5EFD4F2083832F8F5F3B
:102B500080939C01E6E5F0E085EC808320C081E075
:102B600080939B01E6E5F0E085EC808318C0E3E20A
:102B7000F0E0808180931002E6E5F0E085EC808350
:102B80000EC085E080939B01E6E5F0E085EC808354
:102B900010929A0104C0E6E5F0E084E880830F908B
:102BA0000F90CF91DF91FF91EF91BF91AF919F91E6
:102BB0008F913F912F910F900FBE0F901F901895FE
:102BC000DF93CF930F92CDB7DEB78983EBE2F0E0CE
:102BD0008081882F90E0807290700097B9F3ECE2CA
:102BE000F0E0898180830F90CF91DF910895DF938A
:102BF000CF9300D0CDB7DEB79A8389830BC0E9812C
:102C0000FA81208189819A8101969A838983822F12
:102C10000E94E015E981FA818081882381F70F9075
:102C20000F90CF91DF910895DF93CF9300D000D024
:102C300000D0CDB7DEB79E838D8303C08C810E9408
:102C4000E0158D819E819B838A838D819E81019673
:102C50009E838D83EA81FB818491898389818C8322
:102C60008C81882359F726960FB6F894DEBF0FBEE5
:102C7000CDBFCF91DF910895DF93CF9300D000D0E7
:102C8000CDB7DEB79A8389836B834C838C81282FE1
:102C900030E089819A81820F931F9A8389830EC0C5
:102CA000E981FA81208189819A8101969A838983B9
:102CB000822F0E94E0158B8181508B83E981FA81FC
:102CC0008081882319F08B81882351F70F900F9012
:102CD0000F900F90CF91DF910895DF93CF93CDB7F1
:102CE000DEB764970FB6F894DEBF0FBECDBF9B8BE7
:102CF0008A8B6C8B8C89482F50E08A899B899E0136
:102D00002F5F3F4FB9010E94C81DCE0101960E945E
:102D1000F71564960FB6F894DEBF0FBECDBFCF9106
:102D2000DF910895DF93CF93CDB7DEB766970FB6E7
:102D3000F894DEBF0FBECDBF9C8B8B8B6D8B4E8B03
:102D40008D89482F50E08B899C899E012E5F3F4FD3
:102D5000B9010E94C81DCE0102960E94BF1D982F86
:102D60008E89891B8983898118167CF406C0898124
:102D70008150898380E30E94E01589811816BCF395
:102D8000CE0102960E94F71509C089818195282FEE
:102D9000CE0102966E89422F0E943C1666960FB6AF
:102DA000F894DEBF0FBECDBFCF91DF9108951F9283
:102DB0000F920FB60F9211242F933F938F939F93EF
:102DC000EF93FF93DF93CF93CDB7DEB78091A00150
:102DD00090919F01891B8032E8F490919E01292FE8
:102DE00030E0ECE2F0E08081F901EE5AFD4F8083A3
:102DF000892F8F5F80939E018091A0018F5F8093C8
:102E0000A00180919E01813210F010929E011092DB
:102E1000510208C0ECE2F0E080818093A10181E0E2
:102E200080935102CF91DF91FF91EF919F918F910C
:102E30003F912F910F900FBE0F901F901895DF9329
:102E4000CF930F92CDB7DEB7109251029091A001AF
:102E500080919F019817C9F080919F018F5F8093A7
:102E60009F0180919D01813210F010929D0120916F
:102E70009D01822F90E0FC01EE5AFD4F80818983F5
:102E8000822F8F5F80939D0101C0198289810F90ED
:102E9000CF91DF910895DF93CF9300D000D0CDB7CD
:102EA000DEB79B838A836C8319821092510223C000
:102EB00080919F018F5F80939F018981282F30E04F
:102EC0008A819B81DC01A20FB31F20919D01822F7B
:102ED00090E0FC01EE5AFD4F80818C9389818F5FD9
:102EE0008983822F8F5F80939D0180919D01813224
:102EF00010F010929D019091A00180919F01981770
:102F000021F099818C81981798F289810F900F9008
:102F10000F900F90CF91DF910895DF93CF93CDB7AE
:102F2000DEB79091A00180919F01292F281B822F4D
:102F3000CF91DF910895DF93CF93CDB7DEB7AAE2AB
:102F4000B0E0EAE2F0E080818F778C93ECE2F0E091
:102F500080818093A20110929D0110929E01109297
:102F60009F011092A00110925102AAE2B0E0EAE2A1
:102F7000F0E0808180688C93CF91DF910895EF928B
:102F8000FF920F931F937B018C0120E030E040E023
:102F90005FE40E94411A88238CF0C801B70120E049
:102FA00030E040E05FE40E9437190E94711A9B01F3
:102FB000AC01205030404040504806C0C801B70125
:102FC0000E94711A9B01AC01B901CA011F910F91B6
:102FD000FF90EF900895A0E0B0E0E1EFF7E10C94EE
:102FE000881DDC012B01FA019C91923008F439C153
:102FF000EB018881823008F433C1943069F4843065
:1030000009F02FC111969C9111978981981709F4A5
:1030100028C1AFE6B0E025C1843009F421C1823077
:10302000A9F4923009F01DC19A01AD0188E0EA01CE
:103030000990AE01E90109929E018150C1F7E201B8
:10304000898111969C918923818308C1923009F46A
:1030500007C112962D903C901397EB018A819B81BA
:103060001496AD90BD90CD90DC901797EC80FD80CC
:103070000E811F819101281B390BB90137FF04C054
:1030800066277727621B730B603271050CF061C0F5
:10309000121613066CF537014801062E04C09694EB
:1030A0008794779467940A94D2F721E030E040E067
:1030B00050E004C0220F331F441F551F6A95D2F7FA
:1030C00021503040404050402E213F214023512389
:1030D000211531054105510521F021E030E040E0A6
:1030E00050E079018A01E628F728082919293CC00F
:1030F000232BD1F1260E371E35014601062E04C0C2
:1031000096948794779467940A94D2F721E030E0FC
:1031100040E050E004C0220F331F441F551F6A9542
:10312000D2F721503040404050402A213B214C21D1
:103130005D21211531054105510521F021E030E0E7
:1031400040E050E059016A01A628B728C828D928CC
:103150000BC0821593052CF01C01AA24BB24650129
:1031600003C0EE24FF24870111969C91D201119691
:103170008C91981709F445C0992339F0A80197015B
:103180002A193B094C095D0906C0A60195012E19B3
:103190003F09400B510B57FD08C011823382228238
:1031A00024833583468357831DC081E08183338226
:1031B000228288279927DC01821B930BA40BB50B75
:1031C00084839583A683B7830DC0220F331F441FCA
:1031D000551F2483358346835783828193810197CA
:1031E000938382832481358146815781DA01C90125
:1031F0000197A109B1098F5F9F4FAF4FBF4328F3DC
:103200000BC0918333822282EA0CFB1C0C1D1D1D16
:10321000E482F5820683178383E0808324813581ED
:103220004681578157FF1AC0C901AA2797FDA0956B
:10323000BA2F81709070A070B070569547953795F1
:103240002795822B932BA42BB52B84839583A68360
:10325000B78382819381019693838283DF0101C0CA
:10326000D201CD01CDB7DEB7E2E10C94A41DA0E2FE
:10327000B0E0EDE3F9E10C94941D69837A838B83CC
:103280009C832D833E834F835887E9E0EE2EF12CFB
:10329000EC0EFD1ECE010196B7010E94621C8E014C
:1032A0000F5E1F4FCE010596B8010E94621C8A89ED
:1032B00091E089278A8BC701B801AE01475E5F4F55
:1032C0000E94EB170E948D1BA096E6E00C94B01DA7
:1032D000A0E2B0E0EEE6F9E10C94941D69837A83F4
:1032E0008B839C832D833E834F835887F9E0EF2E99
:1032F000F12CEC0EFD1ECE010196B7010E94621C5E
:103300008E010F5E1F4FCE010596B8010E94621C10
:10331000C701B801AE01475E5F4F0E94EB170E94E4
:103320008D1BA096E6E00C94B01DA8E1B0E0EBE99F
:10333000F9E10C94901D69837A838B839C832D83A0
:103340003E834F835887B9E0EB2EF12CEC0EFD1E27
:10335000CE010196B7010E94621C8E010F5E1F4FC5
:10336000CE010596B8010E94621C2985223008F41E
:103370007EC03989323010F4B8017CC08A859A89C0
:1033800089278A87243011F0223031F4231709F07D
:103390006EC06FE670E06EC0343039F41D861E8654
:1033A0001F86188A1C861B8604C0323021F484E0F4
:1033B0008987B7015FC02B853C858B899C89281B39
:1033C000390B3C872B87ED84FE840F851889AD88E7
:1033D000BE88CF88D88CEA14FB040C051D0540F488
:1033E000EE0CFF1C001F111F215030403C872B8723
:1033F00020E030E040E050E080E090E0A0E0B0E489
:1034000060E070E0EA14FB040C051D0540F0282B79
:10341000392B4A2B5B2BEA18FB080C091D09B695C2
:10342000A79597958795EE0CFF1C001F111F6F5FE6
:103430007F4F6F31710531F7DA01C9018F779070D5
:10344000A070B07080349105A105B10561F427FD2D
:103450000AC0E114F1040105110529F0205C3F4F79
:103460004F4F5F4F20782D873E874F87588BBE0187
:10347000675F7F4FCB010E948D1B6896EAE00C943A
:10348000AC1DA8E1B0E0E7E4FAE10C94941D698377
:103490007A838B839C832D833E834F83588789E077
:1034A000E82EF12CEC0EFD1ECE010196B7010E9414
:1034B000621C8E010F5E1F4FCE010596B8010E945F
:1034C000621C8985823040F08989823028F0C701EA
:1034D000B8010E94DA1C01C08FEF6896E6E00C94F8
:1034E000B01DACE0B0E0E7E7FAE10C94981D698309
:1034F0007A838B839C83CE010196BE016B5F7F4FE5
:103500000E94621C8D81823061F1823050F18430E2
:1035100021F48E81882351F12EC02F81388537FD0B
:1035200020C06E812F3131051CF06623F9F023C0D5
:103530008EE190E0821B930B29853A854B855C8553
:1035400004C056954795379527958A95D2F76623F7
:10355000B1F050954095309521953F4F4F4F5F4FBB
:103560000EC020E030E040E050E009C02FEF3FEF18
:103570004FEF5FE704C020E030E040E050E8B901E1
:10358000CA012C96E2E00C94B41DA8E0B0E0EBEC8C
:10359000FAE10C94901D7B018C0161157105810588
:1035A000910519F482E0898360C083E089838EE10C
:1035B000C82ED12CDC82CB82ED82FE820F8318874D
:1035C000C801B7010E943E1BFC013197F7FF3BC0C9
:1035D000222733272E1B3F0B57016801022E04C000
:1035E000D694C794B794A7940A94D2F740E050E0D9
:1035F00060E070E081E090E0A0E0B0E004C0880FFF
:10360000991FAA1FBB1F2A95D2F70197A109B109DB
:103610008E219F21A023B1230097A105B10521F0A0
:1036200041E050E060E070E04A295B296C297D2987
:103630004D835E836F8378878EE190E08E1B9F0BB6
:103640009C838B8312C0309781F00E2E04C0EE0C49
:10365000FF1C001F111F0A94D2F7ED82FE820F8318
:103660001887CE1ADF0ADC82CB821A82CE0101963D
:103670000E948D1B2896EAE00C94AC1DEF92FF92FD
:103680000F931F937B018C0180E0E81680E0F80621
:1036900081E0080780E0180788F48FEFE816F1044E
:1036A0000105110531F028F088E090E0A0E0B0E0DD
:1036B00017C080E090E0A0E0B0E012C080E0E81623
:1036C00080E0F80680E0080781E0180728F088E12C
:1036D00090E0A0E0B0E004C080E190E0A0E0B0E0C5
:1036E00020E230E040E050E0281B390B4A0B5B0B36
:1036F00004C016950795F794E7948A95D2F7F701D9
:10370000E958FF4F8081281B310941095109C9013E
:103710001F910F91FF90EF900895DF92EF92FF922B
:103720000F931F93FC01E480F58006811781D180FF
:103730008081823048F480E090E0A0E1B0E0E82AA7
:10374000F92A0A2B1B2BA5C0843009F49FC08230B4
:1037500021F4EE24FF24870105C0E114F1040105E2
:10376000110519F4E0E0F0E096C0628173819FEFEB
:10377000623879070CF05BC022E83FEF261B370B5D
:103780002A3131052CF020E030E040E050E02AC042
:10379000B801A701022E04C0769567955795479505
:1037A0000A94D2F781E090E0A0E0B0E004C0880F76
:1037B000991FAA1FBB1F2A95D2F70197A109B1092A
:1037C0008E219F21A023B1230097A105B10521F0EF
:1037D00081E090E0A0E0B0E09A01AB01282B392B0A
:1037E0004A2B5B2BDA01C9018F779070A070B07003
:1037F00080349105A105B10539F427FF09C0205C8B
:103800003F4F4F4F5F4F04C0215C3F4F4F4F5F4FC3
:10381000E0E0F0E02030A0E03A07A0E04A07A0E4B2
:103820005A0710F0E1E0F0E079018A0127C0603822
:10383000710564F5FB01E158FF4FD801C7018F778F
:103840009070A070B07080349105A105B10539F475
:10385000E7FE0DC080E490E0A0E0B0E004C08FE39C
:1038600090E0A0E0B0E0E80EF91E0A1F1B1F17FF52
:1038700005C016950795F794E794319687E016955D
:103880000795F794E7948A95D1F705C0EE24FF24B5
:103890008701EFEFF0E06E2F679566276795902F11
:1038A0009F77D794DD24D7948E2F8695492F462B6A
:1038B000582F5D29B701CA011F910F91FF90EF901A
:1038C000DF900895FC01DB01408151812281622F4C
:1038D0006F7770E0221F2227221F9381892F880F84
:1038E000822B282F30E0991F9927991F11969C93BE
:1038F000119721153105A9F541155105610571058E
:1039000011F482E037C082E89FEF13969C938E9368
:1039100012979A01AB0167E0220F331F441F551F16
:103920006A95D1F783E08C930DC0220F331F441F9B
:10393000551F12968D919C911397019713969C9306
:103940008E931297203080E0380780E0480780E4AB
:10395000580758F314962D933D934D935C93179706
:1039600008952F3F310579F4411551056105710521
:1039700019F484E08C93089564FF03C081E08C9374
:1039800012C01C9210C02F57304013963C932E93B8
:10399000129783E08C9387E0440F551F661F771FB3
:1039A0008A95D1F7706414964D935D936D937C93D3
:1039B000179708951F93DC01FB019C91923008F446
:1039C00047C08081823008F443C0943051F411968E
:1039D0001C91843099F58181682F70E0611B710919
:1039E0003FC0843021F0923031F48230B9F18181CE
:1039F000882389F12DC011961C9111978230F1F026
:103A000081811817D9F412962D913C9113978281D8
:103A100093818217930794F028173907BCF0149606
:103A20008D919D910D90BC91A02D24813581468171
:103A30005781281739074A075B0718F4112341F00B
:103A40000AC082179307A407B50740F4112319F0A1
:103A500061E070E005C06FEF7FEF02C060E070E0F2
:103A6000CB011F910895629FD001739FF001829F47
:103A7000E00DF11D649FE00DF11D929FF00D839FFD
:103A8000F00D749FF00D659FF00D9927729FB00D9A
:103A9000E11DF91F639FB00DE11DF91FBD01CF01AD
:103AA00011240895AA1BBB1B51E107C0AA1FBB1F0D
:103AB000A617B70710F0A61BB70B881F991F5A95BA
:103AC000A9F780959095BC01CD010895A1E21A2E29
:103AD000AA1BBB1BFD010DC0AA1FBB1FEE1FFF1FB2
:103AE000A217B307E407F50720F0A21BB30BE40B02
:103AF000F50B661F771F881F991F1A9469F7609549
:103B00007095809590959B01AC01BD01CF01089502
:103B10002F923F924F925F926F927F928F929F92DD
:103B2000AF92BF92CF92DF92EF92FF920F931F93CB
:103B3000CF93DF93CDB7DEB7CA1BDB0B0FB6F8947C
:103B4000DEBF0FBECDBF09942A88398848885F84BC
:103B50006E847D848C849B84AA84B984C884DF802D
:103B6000EE80FD800C811B81AA81B981CE0FD11D11
:103B70000FB6F894DEBF0FBECDBFED010895FC0176
:103B800001900020E9F7809590958E0F9F1F089572
:103B9000FB019F01E8944230C4F04532B4F44A304E
:103BA00029F497FB1EF4909581959F4F642F7727FA
:103BB0000E94521D805D8A330CF0895D8193CB0198
:103BC0000097A1F716F45DE251931082C9010C949D
:103BD000E91DDC01FC01672F71917723E1F7329732
:103BE00004C07C916D9370836291AE17BF07C8F3D8
:063BF0000895F894FFCFD8
:103BF6005050000000018A040C0601400D5E0D00C5
:103C06000000000000000000010202030303030499
:103C16000404040404040405050505050505050555
:103C26000505050505050506060606060606060635
:103C3600060606060606060606060606060606061E
:103C46000606060606060607070707070707070705
:103C560007070707070707070707070707070707EE
:103C660007070707070707070707070707070707DE
:103C760007070707070707070707070707070707CE
:103C860007070707070707080808080808080808B5
:103C9600080808080808080808080808080808089E
:103CA600080808080808080808080808080808088E
:103CB600080808080808080808080808080808087E
:103CC600080808080808080808080808080808086E
:103CD600080808080808080808080808080808085E
:103CE600080808080808080808080808080808084E
:103CF600080808080808080808080808080808083E
:083D060008080808080808007D
:00000001FF
