:100000000C9409010C94AE030C94D4030C94EC0AE8
:100010000C94380A0C9426010C9426010C942601A9
:100020000C9426010C9426010C94F60E0C942601D7
:100030000C9426010C94C5140C9426010C942601F2
:100040000C9426010C9426010C9426010C94EA12BF
:100050000C94260154686520526F626F74206E659F
:1000600065647320746F20626520726573657474B3
:100070006564206E6F772E0A0A00596F75206E65D1
:10008000656420746F20636865636B204D6F746FC7
:100090007220617373656D626C7920286F722079AC
:1000A0006F757220736F667477617265292E0A0A04
:1000B000000A0A28732E207461736B5F6D6F746F72
:1000C00072436F6E74726F6C28292066756E63744C
:1000D000696F6E20696E205250364C696221290A80
:1000E000000A0A232323204D4F544F52204F5645D8
:1000F0005243555252454E54202323230A00596F30
:1001000075206E65656420746F20636865636B207D
:10011000456E636F6465722F4D6F746F72206173EB
:1001200073656D626C7920286F7220796F7572200B
:10013000736F667477617265292E0A0A00210A0AB4
:1001400028732E207461736B5F6D6F746F72436FD1
:100150006E74726F6C28292066756E6374696F6E99
:1001600020696E205250364C696221290A0052499A
:10017000474854004C4546540041666665637465C3
:1001800064206368616E6E656C3A000A2323232045
:10019000454E434F44455220284F52204D4F544F17
:1001A0005229204D414C46554E4354494F4E212033
:1001B0002323230A00232323232320414C4C204FB5
:1001C0005045524154494F4E532053544F5050457F
:1001D0004420544F2050524556454E5420414E59CC
:1001E0002044414D414745212023232323230A0056
:1001F0000A0A232323232320454D455247454E43D6
:10020000592053485554444F574E2023232323232A
:100210000A0011241FBECFE5D8E0DEBFCDBF10E03D
:10022000A0E6B0E0ECE7FCE202C005900D92AA3631
:10023000B107D9F711E0AAE6B0E001C01D92AF35D1
:10024000B107E1F70E9445010C943C160C940000A4
:10025000DF93CF93CDB7DEB780919500882339F037
:1002600082E362E044EB50E021E00E94F8088091D4
:10027000F200882339F082E363E044EB50E021E0B0
:100280000E94F808CF91DF910895DF93CF93CDB707
:10029000DEB70E9434128CED95E00E94BB110E94E3
:1002A000BA0E88E291E00E947F02FBCFDF93CF93EA
:1002B000CDB7DEB78091A900843010F01092A9006C
:1002C000CF91DF910895DF93CF93CDB7DEB784E070
:1002D0008093A900CF91DF910895DF93CF9300D051
:1002E000CDB7DEB7A7E3B0E0E7E3F0E080818C773D
:1002F0008C93A8E3B0E0E8E3F0E080818C778C9306
:10030000809192008870882371F0A7E3B0E0E7E362
:10031000F0E0808180688C93A8E3B0E0E8E3F0E04F
:10032000808180688C93809192008071882371F025
:10033000A7E3B0E0E7E3F0E0808182608C93A8E37C
:10034000B0E0E8E3F0E0808182608C9380919200DD
:100350008072882371F0A7E3B0E0E7E3F0E08081EA
:1003600081608C93A8E3B0E0E8E3F0E080818160F5
:100370008C93A4E3B0E0E4E3F0E080818F788C9389
:10038000A5E3B0E0E5E3F0E080818F788C93A4E30F
:10039000B0E0E4E3F0E08081282F80919200882F84
:1003A00090E082959295907F9827807F982780771C
:1003B000822B8C93A5E3B0E0E5E3F0E08081282F69
:1003C00080919200882F90E082959295907F982757
:1003D000807F98278077822B8C938091A900882337
:1003E00059F4809192008A838A81882311F081E0F8
:1003F0008A838A81898303C08091A9008983898146
:100400008093A9000F900F90CF91DF910895DF9313
:10041000CF930F92CDB7DEB7898389818093920005
:100420000E946D010F90CF91DF910895DF93CF93DC
:100430000F92CDB7DEB7A8E3B0E0E8E3F0E080814B
:100440008E7F8C93A7E3B0E0E7E3F0E080818E7FBE
:100450008C930000E6E3F0E08081817089838091D5
:1004600092008072882371F0A7E3B0E0E7E3F0E048
:10047000808181608C93A8E3B0E0E8E3F0E08081C4
:1004800081608C9389810F90CF91DF910895DF93E4
:10049000CF930F92CDB7DEB7A5E3B0E0E5E3F0E090
:1004A00080818F7B8C93A4E3B0E0E4E3F0E0808173
:1004B0008F7B8C930000E3E3F0E08081807489837C
:1004C000809192008470882371F0A4E3B0E0E4E3AB
:1004D000F0E0808180648C93A5E3B0E0E5E3F0E098
:1004E000808180648C9389810F90CF91DF910895F2
:1004F000DF93CF93CDB7DEB7CF91DF910895DF9330
:10050000CF9300D0CDB7DEB79A83898389819A8152
:1005100090936100809360000F900F90CF91DF91D6
:100520000895DF93CF9300D0CDB7DEB78091E1007F
:100530008333E8F00E9416028A830E94470289836F
:10054000909195008A81981729F49091F200898101
:10055000981759F08A818093950089818093F200E1
:10056000E0916000F091610009951092E1000F9018
:100570000F90CF91DF910895DF93CF9300D00F922A
:10058000CDB7DEB78983E6E2F0E08081882F90E086
:1005900080749070009719F01B821A821FC0E7E2E6
:1005A000F0E0898180648083E6E2F0E086ED80837C
:1005B000E6E2F0E08081882F90E0807490700097F0
:1005C000B9F7A6E2B0E0E6E2F0E0808180618C93CA
:1005D000E4E2F0E0808191819B838A838A819B8120
:1005E0000F900F900F90CF91DF910895DF93CF93ED
:1005F0000F92CDB7DEB78983E7E2F0E089818064AE
:100600008083E6E2F0E086ED80830F90CF91DF916A
:100610000895DF93CF9300D0CDB7DEB7E6E2F0E0E8
:100620008081882F90E080749070009709F091C0CD
:1006300080916F00282F30E03A83298389819A8145
:100640008330910509F44AC029813A81243031056B
:100650007CF489819A818130910541F129813A8127
:10066000223031057CF589819A81009799F065C027
:1006700029813A812530310509F448C089819A8160
:1006800085309105BCF129813A812630310509F484
:1006900049C053C0E4E2F0E0808191819093F6007C
:1006A0008093F50086E00E94F60247C0E4E2F0E0A5
:1006B000808191819093FB008093FA0085E00E94F5
:1006C000F6023BC0E4E2F0E0808191819093EC007F
:1006D0008093EB0083E00E94F6022FC0E4E2F0E09A
:1006E000808191819093B5008093B40082E00E9454
:1006F000F60223C0E4E2F0E0808191819093DB0078
:100700008093DA0080E00E94F60217C0E4E2F0E095
:10071000808191819093E9008093E80081E00E94BC
:10072000F6020BC0E4E2F0E0808191819093B30087
:100730008093B20087E00E94F60280916F008630BD
:1007400019F410926F0005C080916F008F5F809345
:100750006F000F900F90CF91DF9108951F920F922D
:100760000FB60F9211248F939F93DF93CF93CDB742
:10077000DEB78091F0009091F10001969093F10026
:100780008093F0008091E6009091E70001969093AD
:10079000E7008093E600CF91DF919F918F910F90BA
:1007A0000FBE0F901F9018951F920F920FB60F92C9
:1007B00011248F939F93DF93CF93CDB7DEB78091B2
:1007C000E2009091E30001969093E3008093E200B1
:1007D0008091BC009091BD0001969093BD008093E4
:1007E000BC00CF91DF919F918F910F900FBE0F9022
:1007F0001F901895DF93CF93CDB7DEB7CF91DF91E0
:100800000895DF93CF9300D0CDB7DEB79A83898365
:1008100089819A8190936300809362000F900F907A
:10082000CF91DF910895DF93CF9300D0CDB7DEB79E
:100830008A83F894A2E3B0E0E2E3F0E080818F776E
:100840008C930E94200E1092AB001092AA0010927E
:10085000BB001092BA001092A5001092A400109252
:10086000E0001092DF001092F9001092D700EAE445
:10087000F0E01082E8E4F0E01082EFE4F0E01082B3
:100880000E94CF0E80EF91E00E94021485EB91E070
:100890000E9402148A81813019F08A818230E9F441
:1008A0008BE891E00E94021489E791E00E94021413
:1008B0008A81813029F484E791E00E94021404C007
:1008C0008EE691E00E9402148DE391E00E940214F2
:1008D0008EEF90E00E9402140FC08A81833061F491
:1008E00081EE90E00E94021481EB90E00E940214DD
:1008F0008AE790E00E94021484E590E00E940214CE
:1009000086E30E9407028AE0898307C080E090E8BE
:100910000E94DC1189818150898389818823B1F704
:1009200080E00E9407028AE0898307C08FEF9FEF73
:100930000E94DC1189818150898389818823B1F7E4
:10094000DFCFDF93CF93CDB7DEB728970FB6F894FC
:10095000DEBF0FBECDBF8091D600823308F47EC0CB
:100960001092D6008091D300882309F043C0809173
:10097000FA009091FB0023E08330920740F48091CD
:10098000EB009091EC0043E083309407F0F080910D
:10099000D5008F5F8093D5008AE08093D3001092BA
:1009A000AB001092AA001092BB001092BA001092F5
:1009B000A5001092A4001092E0001092DF00809138
:1009C0008A00846080938A0059C280918A008B7F5C
:1009D00080938A008091A000853628F01092D5007F
:1009E0001092A00007C08091D500833018F083E0FA
:1009F0000E9413048091FA009091FB0086399105C2
:100A000098F48091AC009091AD00009769F48091CA
:100A10009A0090919B00009739F08091F9008739F6
:100A200018F081E00E9413048091EB009091EC009B
:100A30008639910598F48091EE009091EF0000972F
:100A400069F48091980090919900009739F0809115
:100A5000D700873918F082E00E9413048091A80023
:100A6000882309F4FCC18091D300882309F0F0C1E8
:100A70008091D500882331F08091A0008F5F809312
:100A8000A00002C01092A00080918A00827088238A
:100A900009F43FC02091F0003091F1008091960060
:100AA000909197002817390790F010929B001092B0
:100AB0009A001092A5001092A4001092AB00109220
:100AC000AA0080918A008D7F80938A0022C02091A5
:100AD000F0003091F1008091AE009091AF002817A6
:100AE0003907B8F080919A0090919B009695879570
:100AF00090939B0080939A0080919A0090919B0024
:100B00008631910530F486E190E090939B008093CC
:100B10009A0080918A008170882309F43FC0209157
:100B2000E2003091E3008091B8009091B90028175D
:100B3000390790F010929900109298001092E000FE
:100B40001092DF001092BB001092BA0080918A00D0
:100B50008E7F80938A0022C02091E2003091E300D2
:100B60008091E4009091E50028173907B8F0809152
:100B7000980090919900969587959093990080930D
:100B8000980080919800909199008631910530F4F9
:100B900086E190E0909399008093980090916A008C
:100BA00080916C00981739F490916B0080916D00E2
:100BB000981709F464C080919A0090919B00009767
:100BC00031F48091980090919900009741F18091C3
:100BD0009A0090919B0090939D0080939C0080913F
:100BE0009800909199009093B1008093B00010927A
:100BF0009B0010929A001092990010929800109207
:100C0000BB001092BA001092AB001092AA00109292
:100C1000A5001092A4001092E0001092DF00EFE413
:100C2000F0E08081882359F580916A0090916B00F3
:100C3000692F0E94C40980919C0090919D0090931F
:100C40009B0080939A008091B0009091B1009093A6
:100C500099008093980080919A0090919B009695BE
:100C600087959093A5008093A4008091980090911F
:100C70009900969587959093E0008093DF002091EE
:100C80009A0030919B008091AC009091AD00A90139
:100C9000481B590BCA019C838B832091A40030917F
:100CA000A5008B819C81820F931F9093A500809358
:100CB000A4008091A4009091A50051E0853A950789
:100CC00034F084EA91E09093A5008093A400809191
:100CD000A4009091A5002EEF8C35920734F48CE59A
:100CE0009EEF9093A5008093A4008091AC0090911A
:100CF000AD00009751F480919A0090919B0000976D
:100D000021F41092A5001092A4008091A40090916B
:100D1000A5009E838D834D815E8155232CF48D81AA
:100D20009E8101969E838D838D819E819595879569
:100D30009093AB008093AA008091AA009091AB00A1
:100D4000833D910534F082ED90E09093AB00809369
:100D5000AA008091AA009091AB00992324F41092EC
:100D6000AB001092AA0020919800309199008091D8
:100D7000EE009091EF00A901481B590BCA019A831C
:100D800089832091DF003091E00089819A81820F70
:100D9000931F9093E0008093DF008091DF0090919B
:100DA000E00051E0853A950734F084EA91E09093B1
:100DB000E0008093DF008091DF009091E0002EEF53
:100DC0008C35920734F48CE59EEF9093E00080938D
:100DD000DF008091EE009091EF00009751F4809138
:100DE000980090919900009721F41092E0001092E1
:100DF000DF008091DF009091E00098878F834F8122
:100E0000588555232CF48F819885019698878F8378
:100E10008F819885959587959093BB008093BA00B4
:100E20008091BA009091BB00833D910534F082ED32
:100E300090E09093BB008093BA008091BA009091AB
:100E4000BB00992354F41092BB001092BA0005C065
:100E50008091D30081508093D3001092A80090918C
:100E60008A008091F400981749F080918A0080935D
:100E7000F400E0916200F0916300099528960FB6A6
:100E8000F894DEBF0FBECDBFCF91DF910895DF9301
:100E9000CF9300D0CDB7DEB789836A838981893C3F
:100EA00010F088EC89838A81893C10F088EC8A8371
:100EB0008981882F90E090939B0080939A008A818B
:100EC000882F90E090939900809398000F900F9056
:100ED000CF91DF910895DF93CF9300D000D00F9290
:100EE000CDB7DEB78983898180936E008981813097
:100EF00019F08981823029F481E090E09D838C8310
:100F000002C01D821C828C8180936A00898181309D
:100F100019F08981833029F481E090E09B838A83F2
:100F200002C01B821A828A8180936B000F900F90FF
:100F30000F900F900F90CF91DF910895DF93CF9393
:100F4000CDB7DEB72A970FB6F894DEBF0FBECDBF80
:100F50009C838B837E836D831A868B819C819923EE
:100F600014F481E08A878A8580936A0019868D81CE
:100F70009E81992314F481E08987898580936B0091
:100F80008B819C81181619061CF48B81888703C0FD
:100F90008B818195888788858A838B819C811816AF
:100FA00019061CF48D818F8303C08D8181958F83F9
:100FB0008F8189838A8169810E9447072A960FB6AB
:100FC000F894DEBF0FBECDBFCF91DF910895DF93C0
:100FD000CF9300D0CDB7DEB780918A00817088238F
:100FE00051F480918A008270882329F481E090E096
:100FF0009A83898302C01A82198289810F900F9087
:10100000CF91DF910895DF93CF93CDB7DEB71092E4
:101010009B0010929A0010929900109298001092E2
:10102000A5001092A4001092E0001092DF008091C1
:101030008A008E7F80938A0080918A008D7F8093C2
:101040008A0080918A008093F400E0916200F09120
:1010500063000995CF91DF910895DF93CF9300D07E
:1010600000D00F92CDB7DEB789836A835C834B8350
:101070002D8380918A00816080938A0080918A000C
:10108000826080938A001092E5001092E400109232
:10109000AF001092AE0089818731D0F08981282F6E
:1010A00030E086EF9FEF821B930B880F991F9C0106
:1010B0008B819C81820F931F9093E5008093E400C5
:1010C0008091E4009091E5009093AF008093AE0092
:1010D0008B819C8102979093B9008093B800809196
:1010E000B8009091B90090939700809396008B81FF
:1010F0009C818832910500F588E290E09C838B8387
:1011000084E190E09093B9008093B8008091B8009A
:101110009091B90090939700809396008AE090E0B8
:101120009093E5008093E4008091E4009091E500C5
:101130009093AF008093AE008B819C8121E0803939
:101140009207E0F489818932C8F088E289838B8133
:101150009C819C0136952795369527958B819C819E
:10116000821B930B9093E5008093E4008091E40050
:101170009091E5009093AF008093AE001092F10043
:101180001092F0001092E3001092E20089816981D0
:101190000E9447078A810E946B078B819C819093F4
:1011A000C1008093C0008B819C819093A2008093AA
:1011B000A10080918A008093F40080918A0080933E
:1011C000F400E0916200F091630009958D8188231D
:1011D00039F002C00E9425120E94E7078823D1F34C
:1011E0000F900F900F900F900F90CF91DF91089577
:1011F000DF93CF93CDB7DEB727970FB6F894DEBF56
:101200000FBECDBF8B836C835E834D832F83809114
:101210008A00816080938A0080918A008260809336
:101220008A008D819E81CC01A0E0B0E020EB32E00D
:1012300040E050E0BC01CD010E94AD15DC01CB01C6
:1012400024E630E040E050E0BC01CD010E94E01512
:10125000DA01C9019A83898389819A8184569040F1
:101260009093E5008093E40089819A8184569040B0
:101270009093AF008093AE0089819A819093B900DA
:101280008093B80089819A8190939700809396000B
:1012900089819A8188329105E0F488E290E09A830E
:1012A000898384E190E09093B9008093B80084E151
:1012B00090E090939700809396008AE090E090935E
:1012C000E5008093E4008AE090E09093AF00809383
:1012D000AE008B816B810E9447078C810E946B0757
:1012E0001092F1001092F0001092E3001092E200D0
:1012F00089819A819093C1008093C00089819A81ED
:101300009093A2008093A10080918A008093F400C2
:10131000E0916200F091630009958F81882339F094
:1013200002C00E9425120E94E7078823D1F3279666
:101330000FB6F894DEBF0FBECDBFCF91DF910895F9
:10134000DF93CF9300D0CDB7DEB789836A838981DD
:10135000833D10F082ED89838A81833D10F082ED18
:101360008A838A81882F90E09093BB008093BA0093
:101370008981882F90E09093AB008093AA000F9012
:101380000F90CF91DF910895DF93CF9300D0CDB729
:10139000DEB789836A83898180936C008A81809318
:1013A0006D00898180936A008A8180936B008981B6
:1013B000882341F0A5E3B0E0E5E3F0E080818460BC
:1013C0008C9307C0A5E3B0E0E5E3F0E080818B7F7C
:1013D0008C938A81882341F0A5E3B0E0E5E3F0E057
:1013E000808188608C9307C0A5E3B0E0E5E3F0E07E
:1013F0008081877F8C930F900F90CF91DF9108951C
:10140000DF93CF9300D0CDB7DEB789836A8307C05F
:10141000A9E5B0E0E9E5F0E0808180688C938091F7
:101420009F008823A9F78981882F90E08F7390709F
:101430009C010024369527950794369527950794A7
:10144000322F202D8A81882F90E08F739070822B0D
:10145000932B90639093BF008093BE0080919E0079
:10146000806480939E000F900F90CF91DF9108953C
:101470001F920F920FB60F9211248F939F93AF93E9
:10148000BF93EF93FF93DF93CF93CDB7DEB78091F8
:101490006400823008F065C0809170008823D9F123
:1014A000809170008C33C8F48091D8009091D9005D
:1014B00080709074009749F0A2E3B0E0E2E3F0E0BE
:1014C000908180E889278C9320C0A2E3B0E0E2E31A
:1014D000F0E080818F778C9318C08091D800909134
:1014E000D90080709074009741F0A2E3B0E0E2E38D
:1014F000F0E080818F778C9308C0A2E3B0E0E2E354
:10150000F0E0908180E889278C9380917000815071
:101510008093700054C080919F008823D1F0A2E393
:10152000B0E0E2E3F0E080818F778C938091D80087
:101530009091D900880F991F9093D9008093D8007B
:1015400088E78093700080919F00815080939F0076
:1015500036C0A2E3B0E0E2E3F0E080818F778C93C5
:101560002EC08091A3008823E1F080919E008170BD
:10157000882349F4A8E3B0E0E8E3F0E0908180E458
:1015800089278C9308C0A5E3B0E0E5E3F0E0908103
:1015900080E889278C938091A30081508093A300D9
:1015A0000EC0A8E3B0E0E8E3F0E0808180648C93B3
:1015B000A5E3B0E0E5E3F0E0808180688C93CF9113
:1015C000DF91FF91EF91BF91AF919F918F910F901C
:1015D0000FBE0F901F9018951F920F920FB60F928B
:1015E00011248F939F93EF93FF93DF93CF930F92E9
:1015F000CDB7DEB780916400833021F08091640024
:101600008630C1F480919E008071882399F4809186
:101610009E008072882371F0E6E3F0E08081882FDD
:1016200090E084709070009729F48091F3008F5FB0
:101630008093F300E6E3F0E0808180919E008D7F4F
:1016400080939E000F90CF91DF91FF91EF919F913A
:101650008F910F900FBE0F901F901895DF93CF932F
:1016600000D0CDB7DEB79A8389830F900F90CF91CA
:10167000DF910895DF93CF9300D0CDB7DEB79A8383
:10168000898389819A8190936600809365000F9089
:101690000F90CF91DF910895DF93CF93CDB7DEB751
:1016A000CF91DF910895DF93CF9300D0CDB7DEB710
:1016B0009A83898389819A819093680080936700D7
:1016C0000F900F90CF91DF910895DF93CF93CDB717
:1016D000DEB72E970FB6F894DEBF0FBECDBF809158
:1016E000B6009091B7008230910508F44DC2809108
:1016F0009E008071882309F024C280916400282F05
:1017000030E03E872D878D859E858230910509F4D6
:10171000B9C02D853E852330310554F48D859E85D5
:101720000097C9F02D853E852130310589F10FC222
:101730008D859E858530910509F454C12D853E85A2
:101740002630310509F483C18D859E85833091054E
:1017500009F4CDC0FCC1A9E5B0E0E9E5F0E0808185
:101760008F778C93A2E3B0E0E2E3F0E080818F77A3
:101770008C93A8E3B0E0E8E3F0E0808180648C9390
:10178000A5E3B0E0E5E3F0E0808180688C93DFC101
:1017900080919F00882309F04DC080919E00807445
:1017A0008823C1F08091BE009091BF009093D90032
:1017B0008093D8008EE080939F0080919E008F7B65
:1017C00080939E00A9E5B0E0E9E5F0E080818068C3
:1017D0008C931CC0A9E5B0E0E9E5F0E080818F774B
:1017E0008C93A2E3B0E0E2E3F0E080818F778C930A
:1017F000A8E3B0E0E8E3F0E0808180648C93A5E3A7
:10180000B0E0E5E3F0E0808180688C939091750012
:101810009C871B862C85243110F031E03B878C851A
:101820008F5F809375008B85882359F082E08093C9
:10183000640007C0A9E5B0E0E9E5F0E080818068D8
:101840008C9380919E008870882309F480C1E09178
:101850006500F09166008091F7009091F80009957D
:101860008091F7009091F8009093A7008093A600D4
:101870001092F8001092F70080919E00877F80936D
:101880009E0065C1A9E5B0E0E9E5F0E080818F77D1
:101890008C93A2E3B0E0E2E3F0E080818F778C9359
:1018A000A8E3B0E0E8E3F0E0808180648C93A5E3F6
:1018B000B0E0E5E3F0E0808180688C931092A300B3
:1018C0001092F300109274001092730080919E00A9
:1018D0008E7F80939E0080919E00806280939E0008
:1018E00083E08093750083E08093640030C1809131
:1018F000A3008823E1F4909175009A8719862A85C0
:10190000233010F031E039878A858F5F809375002E
:101910008985882361F0A9E5B0E0E9E5F0E0808100
:1019200080688C9388E28093A30010927500809168
:10193000D400882369F08091F300823048F010923F
:10194000F30081E08093D40085E080936400FFC0C1
:101950008091F300863048F01092F30081E080938C
:10196000D40085E080936400F2C020917300309130
:10197000740038872F831E828F8198858E30910561
:1019800010F091E09E838F8198850196909374006A
:10199000809373002E81222309F4D9C01092D400C1
:1019A00085E080936400A9E5B0E0E9E5F0E080819E
:1019B0008F778C93A2E3B0E0E2E3F0E080818F7751
:1019C0008C93A8E3B0E0E8E3F0E0808180648C933E
:1019D000A5E3B0E0E5E3F0E0808180688C931092AD
:1019E000A300B5C0A9E5B0E0E9E5F0E080818F771C
:1019F0008C93A2E3B0E0E2E3F0E080818F778C93F8
:101A0000A8E3B0E0E8E3F0E0808180648C93A5E394
:101A1000B0E0E5E3F0E0808180688C931092A30051
:101A20001092F300109274001092730080919E0047
:101A3000816080939E0080919E00806280939E00D2
:101A400083E08093750086E08093640080C080917D
:101A5000A3008823E1F4309175003D831C828D81C1
:101A6000833010F091E09C838D818F5F80937500AF
:101A70002C81222361F0A9E5B0E0E9E5F0E0808166
:101A800080688C9388E28093A30010927500809107
:101A9000DD00882369F08091F300823048F01092D5
:101AA000F30081E08093DD0081E0809364004FC00B
:101AB0008091F300863048F01092F30081E080932B
:101AC000DD0081E08093640042C0809173009091BA
:101AD00074009B838A8319822A813B812E303105D1
:101AE00010F031E039838A819B81019690937400D4
:101AF000809373008981882351F11092DD0081E089
:101B000080936400A9E5B0E0E9E5F0E080818F779B
:101B10008C93A2E3B0E0E2E3F0E080818F778C93D6
:101B2000A8E3B0E0E8E3F0E0808180648C93A5E373
:101B3000B0E0E5E3F0E0808180688C931092A30030
:101B400006C010927400109273001092750090916C
:101B500072008091D400981731F4909171008091B7
:101B6000DD00981769F08091D40080937200809115
:101B7000DD0080937100E0916700F09168000995A5
:101B80001092B7001092B6002E960FB6F894DEBFF2
:101B90000FBECDBFCF91DF910895DF93CF93CDB727
:101BA000DEB710926400A9E5B0E0E9E5F0E08081DD
:101BB0008F778C93A2E3B0E0E2E3F0E080818F774F
:101BC0008C93A8E3B0E0E8E3F0E0808180648C933C
:101BD000A5E3B0E0E5E3F0E0808180688C931092AB
:101BE000DD001092D400CF91DF910895DF93CF9361
:101BF000CDB7DEB7A9E5B0E0E9E5F0E080818F7709
:101C00008C93A2E3B0E0E2E3F0E080818F778C93E5
:101C1000A8E3B0E0E8E3F0E0808180648C93A5E382
:101C2000B0E0E5E3F0E0808180688C931092DD0005
:101C30001092D40081E080936400CF91DF910895E9
:101C4000DF93CF93CDB7DEB7A1E3B0E0E1E3F0E0FF
:101C500080818F7B8C93A2E3B0E0E2E3F0E08081AF
:101C60008F7B8C93A7E3B0E0E7E3F0E08081877F90
:101C70008C93A8E3B0E0E8E3F0E08081877F8C9369
:101C8000A8E3B0E0E8E3F0E080818F7B8C93A5E3EC
:101C9000B0E0E5E3F0E080818F778C93CF91DF9126
:101CA0000895DF93CF93CDB7DEB7A1E3B0E0E1E3D2
:101CB000F0E0808180648C93A2E3B0E0E2E3F0E0A6
:101CC000808180648C93A7E3B0E0E7E3F0E080815B
:101CD000877F8C93A8E3B0E0E8E3F0E08081877F22
:101CE0008C93CF91DF910895DF93CF93CDB7DEB77B
:101CF000A1E3B0E0E1E3F0E080818F7B8C93A2E38D
:101D0000B0E0E2E3F0E080818F7B8C93A7E3B0E06A
:101D1000E7E3F0E0808188608C93A8E3B0E0E8E33B
:101D2000F0E0808188608C93CF91DF910895DF93FC
:101D3000CF93CDB7DEB7A1E3B0E0E1E3F0E080817F
:101D400080648C93A2E3B0E0E2E3F0E08081806401
:101D50008C93A7E3B0E0E7E3F0E0808188608C93A8
:101D6000A8E3B0E0E8E3F0E0808188608C93CF9155
:101D7000DF910895DF93CF93CDB7DEB7A8E3B0E04E
:101D8000E8E3F0E0808180618C938091A900843049
:101D900018F483E08093A900CF91DF910895DF9339
:101DA000CF9300D0CDB7DEB7A8E3B0E0E8E3F0E032
:101DB00080818F7E8C938091A900843090F48091F3
:101DC000A900882321F480919200882329F081E0E2
:101DD00090E09A83898302C01A8219828981809354
:101DE000A9000F900F90CF91DF9108951F920F924D
:101DF0000FB60F9211242F933F935F936F937F93AE
:101E00008F939F93AF93BF93EF93FF93DF93CF9302
:101E1000CDB7DEB72B97DEBFCDBF80918800909104
:101E20008900019690938900809388008091EA0050
:101E30008F5F8093EA002091ED002B871A868B85B7
:101E4000893010F091E09A878B858F5F8093ED0049
:101E50002A85222309F4ECC18091C200882F90E0EA
:101E600081709070882349F08091C3009091C400E4
:101E700001969093C4008093C3008091C200882F84
:101E800090E082709070009749F08091C500909129
:101E9000C60001969093C6008093C5008091C20051
:101EA000882F90E084709070009749F08091C7006F
:101EB0009091C80001969093C8008093C7008091CC
:101EC000C200882F90E088709070009749F0809150
:101ED000C9009091CA0001969093CA008093C900EE
:101EE0008091C200882F90E080719070009749F037
:101EF0008091CB009091CC0001969093CC00809380
:101F0000CB008091C200882F90E080729070009783
:101F100049F08091CD009091CE0001969093CE0033
:101F20008093CD008091C200882F90E080749070E3
:101F3000009749F08091CF009091D0000196909346
:101F4000D0008093CF008091C20088234CF4809110
:101F5000D1009091D20001969093D2008093D1004D
:101F60008091DE00898718869985993C10F021E0E0
:101F7000288789858F5F8093DE0088858823E9F034
:101F80008091BC009091BD009093EF008093EE0093
:101F90008091E6009091E7009093AD008093AC00B3
:101FA0001092BD001092BC001092E7001092E60063
:101FB00081E08093A8001092DE008091A900833018
:101FC00008F0A3C08091A900823009F06BC0809115
:101FD0009200882309F04BC080917A0090917B0099
:101FE0009F838E8328EC30E08E819F81B9010E940F
:101FF000CC151D82009711F491E09D838E819F8105
:10200000019690937B0080937A002D81222309F41E
:102010007CC080917A0090917B002FE0813A9207FA
:10202000A8F0A7E3B0E0E7E3F0E080818D7F8C9338
:10203000A8E3B0E0E8E3F0E080818D7F8C9310921C
:10204000A90010927B0010927A005FC0A7E3B0E075
:10205000E7E3F0E0908182E089278C93A8E3B0E089
:10206000E8E3F0E0908182E089278C934EC0809174
:1020700092008071882371F4A7E3B0E0E7E3F0E019
:1020800080818D7F8C93A8E3B0E0E8E3F0E080816D
:102090008D7F8C9310927B0010927A0081E0809368
:1020A000A90033C080917A0090917B002EE2813E9E
:1020B000920710F18091A9008130B1F41092A9002B
:1020C000809192008071882391F4A7E3B0E0E7E368
:1020D000F0E080818D7F8C93A8E3B0E0E8E3F0E04E
:1020E00080818D7F8C9303C082E08093A900109241
:1020F0007B0010927A0009C080917A0090917B0059
:10210000019690937B0080937A008091B600909125
:10211000B7008330910548F48091B6009091B700E4
:1021200001969093B7008093B6008091D6008733D4
:1021300028F48091D6008F5F8093D6008091E100D3
:10214000843328F48091E1008F5F8093E1008091D7
:10215000DC008C831B829C81933010F021E02B8368
:102160008C818F5F8093DC008B81882309F45EC0B3
:102170008091D700282F30E08091BA009091BB0069
:1021800028173907D9F08091D700282F30E08091A7
:10219000BA009091BB002817390734F48091D7001A
:1021A0008F5F8093D70005C08091D70081508093C6
:1021B000D700EAE4F0E08091D70080838091F900B5
:1021C000282F30E08091AA009091AB0028173907A2
:1021D000D9F08091F900282F30E08091AA009091E9
:1021E000AB002817390734F48091F9008F5F809392
:1021F000F90005C08091F90081508093F900E8E46E
:10220000F0E08091F90080838091F900882321F427
:102210008091D700882329F0EFE4F0E082EA808300
:1022200003C0EFE4F0E010821092DC001092ED00A9
:1022300080919E008870882309F077C08091760095
:10224000909177009A838983809178008F5F809343
:102250007800809178008631F0F089819A818070D1
:102260009074009789F489819A81807090720097A8
:1022700059F089819A819093F8008093F7008091BA
:102280009E00886080939E0080919E008F7E809348
:102290009E001A821982E6E3F0E090818091790035
:1022A0008927882F90E0847090700097C1F1809109
:1022B000790080958093790080917800873038F498
:1022C00080919E008F7E80939E001A821982898160
:1022D0009A81009721F0809178008F3000F18091F1
:1022E0009E00806180939E0089819A8180709074A5
:1022F000009731F489819A81880F991F9A83898385
:1023000080917900882F90E084709070009729F474
:1023100089819A8181609A8389831092780089816A
:102320009A8190937700809376002B96DEBFCDBF85
:10233000CF91DF91FF91EF91BF91AF919F918F91DD
:102340007F916F915F913F912F910F900FBE0F90F2
:102350001F901895DF93CF930F92CDB7DEB7898387
:102360001092EA009091EA0089819817D8F30F90B3
:10237000CF91DF910895DF93CF9300D00F92CDB727
:10238000DEB79A83898303C08AE00E94AA111B8268
:1023900089819A81009711F081E08B8389819A81EC
:1023A00001979A8389838B81882371F70F900F900F
:1023B0000F90CF91DF910895DF93CF9300D00F92CC
:1023C000CDB7DEB79A83898301C000001B82898163
:1023D0009A81009711F081E08B8389819A8101971E
:1023E0009A8389838B81882381F70F900F900F90B8
:1023F000CF91DF910895DF93CF93CDB7DEB7AAE3F6
:10240000B0E0EAE3F0E0808180618C93ABE3B0E080
:10241000EBE3F0E0808180618C93CF91DF910895B0
:10242000DF93CF93CDB7DEB7ABE3B0E0EBE3F0E003
:1024300080818F7E8C93AAE3B0E0EAE3F0E08081B4
:102440008F7E8C93CF91DF910895DF93CF93CDB79B
:10245000DEB70E9409030E94650B0E9491020E9450
:10246000A104CF91DF910895DF93CF930F92CDB761
:10247000DEB7EBE3F0E01082E8E3F0E01082E5E3A2
:10248000F0E01082E2E3F0E081E08083EAE3F0E054
:102490001082E7E3F0E088E58083E4E3F0E08CE895
:1024A0008083E1E3F0E082EF8083F894A8E3B0E07A
:1024B000E8E3F0E080818F7D8C93A7E3B0E0E7E371
:1024C000F0E0808180628C938C91A2E3B0E0E2E343
:1024D000F0E080818F778C930E94200EE0E4F0E0A2
:1024E0001082E9E2F0E08CE08083EBE2F0E0108221
:1024F000E0E4F0E086E88083EAE2F0E088E98083C7
:10250000E7E2F0E01082E6E2F0E086E18083E0E5D9
:10251000F0E01082E5E5F0E085E08083EBE5F0E0B7
:1025200080EE8083E4E5F0E01082E3E5F0E08AE00D
:102530008083ECE5F0E083E68083EFE4F0E082EA7C
:102540008083EEE4F0E081E18083E6E4F0E082ED78
:1025500090E091838083EAE4F0E01082E8E4F0E028
:10256000108280E060E00E94C409E5E4F0E089E0C8
:102570008083E3E4F0E08EE68083E9E5F0E082E04A
:10258000808380919E00816080939E0081E0809393
:10259000640078940F90CF91DF910895DF93CF93EB
:1025A0000F92CDB7DEB78983F894E2E2F0E089813B
:1025B0008083E3E2F0E08FEF8083E6E5F0E084E003
:1025C00080837894E6E5F0E085EC80830F90CF91EE
:1025D000DF9108951F920F920FB60F9211242F933F
:1025E0003F938F939F93AF93BF93EF93FF93DF93AB
:1025F000CF9300D0CDB7DEB7E1E2F0E08081282FA5
:1026000030E03A83298389819A818039910509F4E0
:102610009CC029813A81213931059CF489819A81B4
:102620008037910509F489C029813A812038310524
:1026300009F45AC089819A818036910509F449C00C
:1026400098C029813A81283A3105B9F089819A8167
:10265000893A91053CF429813A81203A310509F4FF
:102660007EC087C089819A81883B910561F029816C
:102670003A81203C3105F9F07CC084E080938000F1
:1026800081E080937E0080918000843079F4A3E221
:10269000B0E020918100822F90E0FC01E35FFE4FCB
:1026A00080818C93822F8F5F80938100E6E5F0E03C
:1026B00085EC808362C0109280001092810010929D
:1026C0007E0081E080937C00E6E5F0E085EC80838D
:1026D00054C081E080937F0082E080938000E6E533
:1026E000F0E085EC808349C080918000823069F4FD
:1026F000E3E2F0E08081809381008091810080930B
:102700007D0083E08093800013C08091800083303F
:1027100079F430918100832F90E0E3E2F0E02081B2
:10272000FC01E350FF4F2083832F8F5F8093810054
:10273000E6E5F0E085EC808320C081E080938000B6
:10274000E6E5F0E085EC808318C0E3E2F0E080810C
:102750008093FC00E6E5F0E085EC80830EC085E028
:1027600080938000E6E5F0E085EC808310927F00A6
:1027700004C0E6E5F0E084E880830F900F90CF91ED
:10278000DF91FF91EF91BF91AF919F918F913F9119
:102790002F910F900FBE0F901F901895DF93CF933E
:1027A0000F92CDB7DEB78983EBE2F0E08081882F0E
:1027B00090E0807290700097B9F3ECE2F0E08981CC
:1027C00080830F90CF91DF910895DF93CF9300D056
:1027D000CDB7DEB79A8389830BC0E981FA81208166
:1027E00089819A8101969A838983822F0E94CE13D0
:1027F000E981FA818081882381F70F900F90CF9132
:10280000DF910895DF93CF9300D000D000D0CDB7F3
:10281000DEB79E838D8303C08C810E94CE138D8191
:102820009E819B838A838D819E8101969E838D8369
:10283000EA81FB818491898389818C838C818823BF
:1028400059F726960FB6F894DEBF0FBECDBFCF91D5
:10285000DF910895DF93CF9300D000D0CDB7DEB7DE
:102860009A8389836B834C838C81282F30E0898104
:102870009A81820F931F9A8389830EC0E981FA811E
:10288000208189819A8101969A838983822F0E946F
:10289000CE138B8181508B83E981FA8180818823DB
:1028A00019F08B81882351F70F900F900F900F90A4
:1028B000CF91DF910895DF93CF93CDB7DEB76497C3
:1028C0000FB6F894DEBF0FBECDBF9B8B8A8B6C8B8F
:1028D0008C89482F50E08A899B899E012F5F3F4F4A
:1028E000B9010E940B16CE0101960E94E513649671
:1028F0000FB6F894DEBF0FBECDBFCF91DF91089524
:10290000DF93CF93CDB7DEB766970FB6F894DEBFEF
:102910000FBECDBF9C8B8B8B6D8B4E8B8D89482FC3
:1029200050E08B899C899E012E5F3F4FB9010E9428
:102930000B16CE0102960E940216982F8E89891BD3
:102940008983898118167CF406C089818150898326
:1029500080E30E94CE1389811816BCF3CE01029643
:102960000E94E51309C089818195282FCE01029626
:102970006E89422F0E942A1466960FB6F894DEBF25
:102980000FBECDBFCF91DF9108951F920F920FB66A
:102990000F9211242F933F938F939F93EF93FF9365
:1029A000DF93CF93CDB7DEB78091850090918400FF
:1029B000891B8032E8F490918300292F30E0ECE20B
:1029C000F0E08081F901E25CFE4F8083892F8F5F08
:1029D00080938300809185008F5F80938500809134
:1029E0008300813210F01092830010923D0108C0E4
:1029F000ECE2F0E080818093860081E080933D01ED
:102A0000CF91DF91FF91EF919F918F913F912F9106
:102A10000F900FBE0F901F901895DF93CF930F92DA
:102A2000CDB7DEB710923D01909185008091840072
:102A30009817C9F0809184008F5F80938400809103
:102A40008200813210F01092820020918200822F49
:102A500090E0FC01E25CFE4F80818983822F8F5FD2
:102A60008093820001C0198289810F90CF91DF91FC
:102A70000895DF93CF9300D000D0CDB7DEB79B830E
:102A80008A836C83198210923D0123C08091840057
:102A90008F5F809384008981282F30E08A819B8119
:102AA000DC01A20FB31F20918200822F90E0FC0175
:102AB000E25CFE4F80818C9389818F5F8983822FB6
:102AC0008F5F8093820080918200813210F010929B
:102AD00082009091850080918400981721F099815F
:102AE0008C81981798F289810F900F900F900F901A
:102AF000CF91DF910895DF93CF93CDB7DEB790915B
:102B0000850080918400292F281B822FCF91DF918F
:102B10000895DF93CF93CDB7DEB7AAE2B0E0EAE243
:102B2000F0E080818F778C93ECE2F0E080818093FD
:102B300087001092820010928300109284001092FD
:102B4000850010923D01AAE2B0E0EAE2F0E0808167
:102B500080688C93CF91DF910895629FD001739F1D
:102B6000F001829FE00DF11D649FE00DF11D929F29
:102B7000F00D839FF00D749FF00D659FF00D992768
:102B8000729FB00DE11DF91F639FB00DE11DF91F8C
:102B9000BD01CF0111240895AA1BBB1B51E107C041
:102BA000AA1FBB1FA617B70710F0A61BB70B881FDD
:102BB000991F5A95A9F780959095BC01CD0108956C
:102BC000A1E21A2EAA1BBB1BFD010DC0AA1FBB1F31
:102BD000EE1FFF1FA217B307E407F50720F0A21BA3
:102BE000B30BE40BF50B661F771F881F991F1A9410
:102BF00069F760957095809590959B01AC01BD013A
:102C0000CF010895FC0101900020E9F7809590958F
:102C10008E0F9F1F0895FB019F01E8944230C4F07E
:102C20004532B4F44A3029F497FB1EF4909581950F
:102C30009F4F642F77270E94CC15805D8A330CF05C
:102C4000895D8193CB010097A1F716F45DE2519362
:102C50001082C9010C942C16DC01FC01672F7191C4
:102C60007723E1F7329704C07C916D937083629172
:0C2C7000AE17BF07C8F30895F894FFCF1B
:0A2C7C007802FA03012E0B4C0B0046
:00000001FF
