:100000000C9409010C9425050C944B050C94630C7D
:100010000C94AF0B0C9426010C9426010C94260131
:100020000C9426010C9426010C946D100C9426015E
:100030000C9426010C943C160C9426010C94260179
:100040000C9426010C9426010C9426010C94611446
:100050000C94260154686520526F626F74206E659F
:1000600065647320746F20626520726573657474B3
:100070006564206E6F772E0A0A00596F75206E65D1
:10008000656420746F20636865636B204D6F746FC7
:100090007220617373656D626C7920286F722079AC
:1000A0006F757220736F667477617265292E0A0A04
:1000B000000A0A28732E207461736B5F6D6F746F72
:1000C00072436F6E74726F6C28292066756E63744C
:1000D000696F6E20696E205250364C696221290A80
:1000E000000A0A232323204D4F544F52204F5645D8
:1000F0005243555252454E54202323230A00596F30
:1001000075206E65656420746F20636865636B207D
:10011000456E636F6465722F4D6F746F72206173EB
:1001200073656D626C7920286F7220796F7572200B
:10013000736F667477617265292E0A0A00210A0AB4
:1001400028732E207461736B5F6D6F746F72436FD1
:100150006E74726F6C28292066756E6374696F6E99
:1001600020696E205250364C696221290A0052499A
:10017000474854004C4546540041666665637465C3
:1001800064206368616E6E656C3A000A2323232045
:10019000454E434F44455220284F52204D4F544F17
:1001A0005229204D414C46554E4354494F4E212033
:1001B0002323230A00232323232320414C4C204FB5
:1001C0005045524154494F4E532053544F5050457F
:1001D0004420544F2050524556454E5420414E59CC
:1001E0002044414D414745212023232323230A0056
:1001F0000A0A232323232320454D455247454E43D6
:10020000592053485554444F574E2023232323232A
:100210000A0011241FBECFE5D8E0DEBFCDBF11E03C
:10022000A0E6B0E0E0ECFAE302C005900D92A8373A
:10023000B107D9F712E0A8E7B1E001C01D92A237DB
:10024000B107E1F70E94B8020C945E1D0C94000007
:10025000DF93CF93CDB7DEB7CF91DF910895DF93D2
:10026000CF9300D0CDB7DEB780917D01282F30E04D
:100270003A83298389819A8185309105D1F1298139
:100280003A81263031055CF489819A81009709F41E
:100290008EC029813A812430310599F088C0898146
:1002A0009A818730910509F459C029813A81273014
:1002B0003105E4F189819A818830910509F46BC098
:1002C00076C08CE38093780180917A018C7F816085
:1002D00080937A0180917A01846080937A0180EA28
:1002E00090E090937C0180937B0185E080937D0179
:1002F0005EC080917A018470882309F058C082E33F
:100300008093780180917A01836080937A01809153
:100310007A01886080937A0180E590E090937C0177
:1003200080937B0188E080937D0141C08CE38093C2
:10033000780180917A018C7F816080937A0180912D
:100340007A01846080937A0180EA90E090937C0146
:1003500080937B0187E080937D0129C080917A01A1
:100360008470882321F582E38093780180917A015B
:100370008C7F826080937A0180917A01886080937B
:100380007A0180E590E090937C0180937B0188E086
:1003900080937D010CC080917A018470882339F4A8
:1003A00080917A018870882311F410927D010F905A
:1003B0000F90CF91DF910895DF93CF93CDB7DEB744
:1003C0008091A801882341F080910502882321F0C3
:1003D00082E080937D0117C08091A801882341F0BD
:1003E00080917D01833079F084E080937D010BC0A2
:1003F00080910502882339F080917D01833019F0C6
:1004000086E080937D01CF91DF9108950F931F9334
:10041000DF93CF9300D0CDB7DEB79A838983E9818C
:10042000FA8183819481009709F450C0E981FA81AF
:1004300082818870882399F0E981FA814081E9817D
:10044000FA8182818370982FE981FA812381348136
:10045000842F692FA90120E00E946F0A32C0E98130
:10046000FA8182818470882361F1E981FA811081A7
:10047000E981FA8182818370082FE981FA81838181
:100480009481CC01A0E0B0E0BC01CD010E942A1A09
:10049000DC01CB01BC01CD012FE832EC45E75EE386
:1004A0000E94FA18DC01CB01BC01CD010E94241787
:1004B000DC01CB019C01812F602FA90120E00E946B
:1004C000A409E981FA81148213822AC0E981FA81A0
:1004D000828184708823B1F4E981FA8182818870F5
:1004E000882381F4E981FA81828183700E94E20885
:1004F000E981FA818081E981FA819181692F0E94E5
:10050000BE080EC00E945E09882351F0E981FA817D
:100510008281877F8283E981FA8182818B7F8283D6
:100520000F900F90CF91DF911F910F910895DF935E
:10053000CF93CDB7DEB70E9428010E942F01809192
:100540007D01882329F088E791E00E9406020DC012
:1005500080916500882329F080E690E00E940602E1
:1005600004C08EE791E00E940602CF91DF910895CA
:10057000DF93CF93CDB7DEB70E94AB1384EC99E045
:100580000E9432138CED91E00E94F6030E9431101C
:100590000E9497020E949C13FBCFDF93CF93CDB7AD
:1005A000DEB78091BC01843010F01092BC01CF9175
:1005B000DF910895DF93CF93CDB7DEB784E08093CA
:1005C000BC01CF91DF910895DF93CF9300D0CDB7D9
:1005D000DEB7A7E3B0E0E7E3F0E080818C778C93AF
:1005E000A8E3B0E0E8E3F0E080818C778C93809121
:1005F000A7018870882371F0A7E3B0E0E7E3F0E09B
:10060000808180688C93A8E3B0E0E8E3F0E080812B
:1006100080688C938091A7018071882371F0A7E393
:10062000B0E0E7E3F0E0808182608C93A8E3B0E083
:10063000E8E3F0E0808182608C938091A701807272
:10064000882371F0A7E3B0E0E7E3F0E08081816008
:100650008C93A8E3B0E0E8E3F0E0808181608C93C4
:10066000A4E3B0E0E4E3F0E080818F788C93A5E32D
:10067000B0E0E5E3F0E080818F788C93A4E3B0E014
:10068000E4E3F0E08081282F8091A701882F90E09B
:1006900082959295907F9827807F98278077822BEC
:1006A0008C93A5E3B0E0E5E3F0E08081282F809112
:1006B000A701882F90E082959295907F9827807F60
:1006C00098278077822B8C938091BC01882359F4E2
:1006D0008091A7018A838A81882311F081E08A832F
:1006E0008A81898303C08091BC0189838981809339
:1006F000BC010F900F90CF91DF910895DF93CF93BE
:100700000F92CDB7DEB7898389818093A7010E94BC
:10071000E4020F90CF91DF910895DF93CF930F9272
:10072000CDB7DEB7A8E3B0E0E8E3F0E080818E7FEC
:100730008C93A7E3B0E0E7E3F0E080818E7F8C93B9
:100740000000E6E3F0E08081817089838091A70159
:100750008072882371F0A7E3B0E0E7E3F0E08081E6
:1007600081608C93A8E3B0E0E8E3F0E080818160F1
:100770008C9389810F90CF91DF910895DF93CF9370
:100780000F92CDB7DEB7A5E3B0E0E5E3F0E08081FE
:100790008F7B8C93A4E3B0E0E4E3F0E080818F7B77
:1007A0008C930000E3E3F0E0808180748983809182
:1007B000A7018470882371F0A4E3B0E0E4E3F0E0E3
:1007C000808180648C93A5E3B0E0E5E3F0E0808174
:1007D00080648C9389810F90CF91DF910895DF938E
:1007E000CF93CDB7DEB7CF91DF910895DF93CF934D
:1007F00000D0CDB7DEB79A83898389819A8190939F
:100800006700809366000F900F90CF91DF9108955D
:10081000DF93CF9300D0CDB7DEB78091F40183335F
:10082000E8F00E948D038A830E94BE038983909121
:10083000A8018A81981729F4909105028981981757
:1008400059F08A818093A801898180930502E09103
:100850006600F091670009951092F4010F900F90D7
:10086000CF91DF910895DF93CF9300D00F92CDB752
:10087000DEB78983E6E2F0E08081882F90E0807423
:100880009070009719F01B821A821FC0E7E2F0E017
:10089000898180648083E6E2F0E086ED8083E6E291
:1008A000F0E08081882F90E0807490700097B9F715
:1008B000A6E2B0E0E6E2F0E0808180618C93E4E2C1
:1008C000F0E0808191819B838A838A819B810F9054
:1008D0000F900F90CF91DF910895DF93CF930F92F8
:1008E000CDB7DEB78983E7E2F0E089818064808359
:1008F000E6E2F0E086ED80830F90CF91DF910895DE
:10090000DF93CF9300D0CDB7DEB7E6E2F0E0808191
:10091000882F90E080749070009709F091C08091CA
:100920008901282F30E03A83298389819A81833095
:10093000910509F44AC029813A81243031057CF4BB
:1009400089819A818130910541F129813A81223052
:1009500031057CF589819A81009799F065C02981DC
:100960003A812530310509F448C089819A81853062
:100970009105BCF129813A812630310509F449C03D
:1009800053C0E4E2F0E0808191819093090280936A
:10099000080286E00E946D0447C0E4E2F0E0808136
:1009A000918190930E0280930D0285E00E946D0468
:1009B0003BC0E4E2F0E0808191819093FF0180935D
:1009C000FE0183E00E946D042FC0E4E2F0E080812C
:1009D00091819093C8018093C70182E00E946D04C9
:1009E00023C0E4E2F0E0808191819093EE01809356
:1009F000ED0180E00E946D0417C0E4E2F0E0808128
:100A000091819093FC018093FB0181E00E946D0431
:100A10000BC0E4E2F0E0808191819093C601809365
:100A2000C50187E00E946D0480918901863019F428
:100A30001092890105C0809189018F5F809389019F
:100A40000F900F90CF91DF9108951F920F920FB6E4
:100A50000F9211248F939F93DF93CF93CDB7DEB77F
:100A60008091030290910402019690930402809376
:100A700003028091F9019091FA0101969093FA0195
:100A80008093F901CF91DF919F918F910F900FBECD
:100A90000F901F9018951F920F920FB60F9211246E
:100AA0008F939F93DF93CF93CDB7DEB78091F501FE
:100AB0009091F60101969093F6018093F501809153
:100AC000CF019091D00101969093D0018093CF01F6
:100AD000CF91DF919F918F910F900FBE0F901F903C
:100AE0001895DF93CF93CDB7DEB7CF91DF910895FF
:100AF000DF93CF9300D0CDB7DEB79A838983898106
:100B00009A8190936900809368000F900F90CF9125
:100B1000DF910895DF93CF9300D0CDB7DEB78A83FE
:100B2000F894A2E3B0E0E2E3F0E080818F778C9369
:100B30000E94970F1092BE011092BD011092CE013B
:100B40001092CD011092B8011092B7011092F301EA
:100B50001092F20110920C021092EA01EAE4F0E025
:100B60001082E8E4F0E01082EFE4F0E010820E94EE
:100B7000461080EF91E00E94791585EB91E00E948C
:100B800079158A81813019F08A818230E9F48BE805
:100B900091E00E94791589E791E00E9479158A8198
:100BA000813029F484E791E00E94791504C08EE633
:100BB00091E00E9479158DE391E00E9479158EEF06
:100BC00090E00E9479150FC08A81833061F481EE34
:100BD00090E00E94791581EB90E00E9479158AE7F8
:100BE00090E00E94791584E590E00E94791586E3F3
:100BF0000E947E038AE0898307C080E090E80E941B
:100C0000531389818150898389818823B1F780E0DA
:100C10000E947E038AE0898307C08FEF9FEF0E94C6
:100C2000531389818150898389818823B1F7DFCF6C
:100C3000DF93CF93CDB7DEB728970FB6F894DEBF1A
:100C40000FBECDBF8091E901823308F47EC01092BF
:100C5000E9018091E601882309F043C080910D02EB
:100C600090910E0223E08330920740F48091FE01C0
:100C70009091FF0143E083309407F0F08091E80108
:100C80008F5F8093E8018AE08093E6011092BE01B5
:100C90001092BD011092CE011092CD011092B801B8
:100CA0001092B7011092F3011092F2018091A40109
:100CB00084608093A40159C28091A4018B7F8093AA
:100CC000A4018091B301853628F01092E8011092BA
:100CD000B30107C08091E801833018F083E00E94DF
:100CE0008A0580910D0290910E028639910598F443
:100CF0008091BF019091C001009769F48091AD018E
:100D00009091AE01009739F080910C02873918F06C
:100D100081E00E948A058091FE019091FF01863951
:100D2000910598F48091010290910202009769F474
:100D30008091AB019091AC01009739F08091EA016C
:100D4000873918F082E00E948A058091BB018823D0
:100D500009F4FCC18091E601882309F0F0C180917B
:100D6000E801882331F08091B3018F5F8093B30154
:100D700002C01092B3018091A4018270882309F40B
:100D80003FC020910302309104028091A90190910B
:100D9000AA012817390790F01092AE011092AD0108
:100DA0001092B8011092B7011092BE011092BD01CD
:100DB0008091A4018D7F8093A40122C02091030221
:100DC000309104028091C1019091C2012817390726
:100DD000B8F08091AD019091AE0196958795909372
:100DE000AE018093AD018091AD019091AE0186314D
:100DF000910530F486E190E09093AE018093AD01CF
:100E00008091A4018170882309F43FC02091F501ED
:100E10003091F6018091CB019091CC0128173907D0
:100E200090F01092AC011092AB011092F30110926D
:100E3000F2011092CE011092CD018091A4018E7F1B
:100E40008093A40122C02091F5013091F601809198
:100E5000F7019091F80128173907B8F08091AB019C
:100E60009091AC01969587959093AC018093AB01DE
:100E70008091AB019091AC018631910530F486E10F
:100E800090E09093AC018093AB01909184018091AC
:100E90008601981739F49091850180918701981700
:100EA00009F464C08091AD019091AE01009731F4D6
:100EB0008091AB019091AC01009741F18091AD011F
:100EC0009091AE019093B0018093AF018091AB01FE
:100ED0009091AC019093C4018093C3011092AE0134
:100EE0001092AD011092AC011092AB011092CE01A4
:100EF0001092CD011092BE011092BD011092B80166
:100F00001092B7011092F3011092F201EFE4F0E0B9
:100F10008081882359F58091840190918501692F02
:100F20000E943B0B8091AF019091B0019093AE0174
:100F30008093AD018091C3019091C4019093AC0165
:100F40008093AB018091AD019091AE01969587950C
:100F50009093B8018093B7018091AB019091AC015F
:100F6000969587959093F3018093F2012091AD01BE
:100F70003091AE018091BF019091C001A901481B41
:100F8000590BCA019C838B832091B7013091B80122
:100F90008B819C81820F931F9093B8018093B7013E
:100FA0008091B7019091B80151E0853A950734F0EE
:100FB00084EA91E09093B8018093B7018091B701E2
:100FC0009091B8012EEF8C35920734F48CE59EEFAA
:100FD0009093B8018093B7018091BF019091C001B7
:100FE000009751F48091AD019091AE01009721F4EA
:100FF0001092B8011092B7018091B7019091B80199
:101000009E838D834D815E8155232CF48D819E813D
:1010100001969E838D838D819E8195958795909372
:10102000BE018093BD018091BD019091BE01833DC1
:10103000910534F082ED90E09093BE018093BD0164
:101040008091BD019091BE01992324F41092BE01BC
:101050001092BD012091AB013091AC018091010251
:1010600090910202A901481B590BCA019A838983F6
:101070002091F2013091F30189819A81820F931FAF
:101080009093F3018093F2018091F2019091F3012A
:1010900051E0853A950734F084EA91E09093F301AA
:1010A0008093F2018091F2019091F3012EEF8C3543
:1010B000920734F48CE59EEF9093F3018093F20154
:1010C0008091010290910202009751F48091AB014E
:1010D0009091AC01009721F41092F3011092F2016B
:1010E0008091F2019091F30198878F834F81588509
:1010F00055232CF48F819885019698878F838F8153
:101100009885959587959093CE018093CD01809198
:10111000CD019091CE01833D910534F082ED90E0B8
:101120009093CE018093CD018091CD019091CE011D
:10113000992354F41092CE011092CD0105C08091F4
:10114000E60181508093E6011092BB019091A401C9
:1011500080910702981749F08091A40180930702BB
:10116000E0916800F0916900099528960FB6F8940F
:10117000DEBF0FBECDBFCF91DF910895DF93CF9338
:1011800000D0CDB7DEB789836A838981893C10F0AE
:1011900088EC89838A81893C10F088EC8A83898174
:1011A000882F90E09093AE018093AD018A81882FC3
:1011B00090E09093AC018093AB010F900F90CF9192
:1011C000DF910895DF93CF9300D000D00F92CDB779
:1011D000DEB789838981809388018981813019F004
:1011E0008981823029F481E090E09D838C8302C064
:1011F0001D821C828C81809384018981813019F049
:101200008981833029F481E090E09B838A8302C046
:101210001B821A828A81809385010F900F900F9014
:101220000F900F90CF91DF910895DF93CF93CDB7BB
:10123000DEB72A970FB6F894DEBF0FBECDBF9C83F2
:101240008B837E836D831A868B819C81992314F412
:1012500081E08A878A858093840119868D819E81A9
:10126000992314F481E089878985809385018B8196
:101270009C81181619061CF48B81888703C08B810A
:101280008195888788858A838B819C8118161906A9
:101290001CF48D818F8303C08D8181958F838F8115
:1012A00089838A8169810E94BE082A960FB6F894C4
:1012B000DEBF0FBECDBFCF91DF910895DF93CF93F7
:1012C00000D0CDB7DEB78091A4018170882351F49E
:1012D0008091A4018270882329F481E090E09A83B0
:1012E000898302C01A82198289810F900F90CF9151
:1012F000DF910895DF93CF93CDB7DEB71092AE01A3
:101300001092AD011092AC011092AB011092B80195
:101310001092B7011092F3011092F2018091A40192
:101320008E7F8093A4018091A4018D7F8093A4017E
:101330008091A40180930702E0916800F091690018
:101340000995CF91DF910895DF93CF9300D000D01E
:101350000F92CDB7DEB789836A835C834B832D837D
:101360008091A40181608093A4018091A401826096
:101370008093A4011092F8011092F7011092C2011B
:101380001092C10189818731D0F08981282F30E006
:1013900086EF9FEF821B930B880F991F9C018B8117
:1013A0009C81820F931F9093F8018093F7018091A5
:1013B000F7019091F8019093C2018093C1018B8154
:1013C0009C8102979093CC018093CB018091CB01BB
:1013D0009091CC019093AA018093A9018B819C816B
:1013E0008832910500F588E290E09C838B8384E14C
:1013F00090E09093CC018093CB018091CB019091B0
:10140000CC019093AA018093A9018AE090E0909387
:10141000F8018093F7018091F7019091F801909382
:10142000C2018093C1018B819C8121E080399207A8
:10143000E0F489818932C8F088E289838B819C81BC
:101440009C0136952795369527958B819C81821B2B
:10145000930B9093F8018093F7018091F70190919D
:10146000F8019093C2018093C1011092040210927E
:1014700003021092F6011092F501898169810E94A0
:10148000BE088A810E94E2088B819C819093D401DE
:101490008093D3018B819C819093B5018093B4019B
:1014A0008091A401809307028091A4018093070298
:1014B000E0916800F091690009958D81882339F0E9
:1014C00002C00E949C130E945E098823D1F30F90F2
:1014D0000F900F900F900F90CF91DF910895DF93B1
:1014E000CF93CDB7DEB727970FB6F894DEBF0FBE08
:1014F000CDBF8B836C835E834D832F838091A4014A
:1015000081608093A4018091A40182608093A401F2
:101510008D819E81CC01A0E0B0E020EB32E040E084
:1015200050E0BC01CD010E94981CDC01CB0124E6F7
:1015300030E040E050E0BC01CD010E94CB1CDA015C
:10154000C9019A83898389819A81845690409093B6
:10155000F8018093F70189819A8184569040909395
:10156000C2018093C10189819A819093CC018093BB
:10157000CB0189819A819093AA018093A9018981E5
:101580009A8188329105E0F488E290E09A83898319
:1015900084E190E09093CC018093CB0184E190E0D2
:1015A0009093AA018093A9018AE090E09093F801BA
:1015B0008093F7018AE090E09093C2018093C1018B
:1015C0008B816B810E94BE088C810E94E208109280
:1015D0000402109203021092F6011092F501898123
:1015E0009A819093D4018093D30189819A819093B9
:1015F000B5018093B4018091A40180930702E0912A
:101600006800F091690009958F81882339F002C044
:101610000E949C130E945E098823D1F327960FB67F
:10162000F894DEBF0FBECDBFCF91DF910895DF9359
:10163000CF9300D0CDB7DEB789836A838981833D9C
:1016400010F082ED89838A81833D10F082ED8A83D8
:101650008A81882F90E09093CE018093CD0189817B
:10166000882F90E09093BE018093BD010F900F9062
:10167000CF91DF910895DF93CF9300D0CDB7DEB740
:1016800089836A838981809386018A818093870117
:101690008981809384018A8180938501898188234F
:1016A00041F0A5E3B0E0E5E3F0E0808184608C9355
:1016B00007C0A5E3B0E0E5E3F0E080818B7F8C9389
:1016C0008A81882341F0A5E3B0E0E5E3F0E0808182
:1016D00088608C9307C0A5E3B0E0E5E3F0E080818B
:1016E000877F8C930F900F90CF91DF910895DF93B8
:1016F000CF9300D0CDB7DEB789836A8307C0A9E551
:10170000B0E0E9E5F0E0808180688C938091B201DF
:101710008823A9F78981882F90E08F7390709C01AE
:101720000024369527950794369527950794322FF0
:10173000202D8A81882F90E08F739070822B932BBD
:1017400090639093D2018093D1018091B101806424
:101750008093B1010F900F90CF91DF9108951F9268
:101760000F920FB60F9211248F939F93AF93BF9355
:10177000EF93FF93DF93CF93CDB7DEB780916A00ED
:10178000823008F065C080918A018823D9F1809168
:101790008A018C33C8F48091EB019091EC01807048
:1017A0009074009749F0A2E3B0E0E2E3F0E09081AA
:1017B00080E889278C9320C0A2E3B0E0E2E3F0E068
:1017C00080818F778C9318C08091EB019091EC0110
:1017D00080709074009741F0A2E3B0E0E2E3F0E0A3
:1017E00080818F778C9308C0A2E3B0E0E2E3F0E061
:1017F000908180E889278C9380918A018150809321
:101800008A0154C08091B2018823D1F0A2E3B0E0F4
:10181000E2E3F0E080818F778C938091EB019091EF
:10182000EC01880F991F9093EC018093EB0188E7FE
:1018300080938A018091B20181508093B20136C0B9
:10184000A2E3B0E0E2E3F0E080818F778C932EC0DA
:101850008091B6018823E1F08091B10181708823E5
:1018600049F4A8E3B0E0E8E3F0E0908180E4892760
:101870008C9308C0A5E3B0E0E5E3F0E0908180E858
:1018800089278C938091B60181508093B6010EC058
:10189000A8E3B0E0E8E3F0E0808180648C93A5E306
:1018A000B0E0E5E3F0E0808180688C93CF91DF9138
:1018B000FF91EF91BF91AF919F918F910F900FBECC
:1018C0000F901F9018951F920F920FB60F92112430
:1018D0008F939F93EF93FF93DF93CF930F92CDB7A7
:1018E000DEB780916A00833021F080916A008630F3
:1018F000C1F48091B1018071882399F48091B10184
:101900008072882371F0E6E3F0E08081882F90E018
:1019100084709070009729F4809106028F5F809305
:101920000602E6E3F0E080818091B1018D7F809333
:10193000B1010F90CF91DF91FF91EF919F918F9126
:101940000F900FBE0F901F901895DF93CF9300D08C
:10195000CDB7DEB79A8389830F900F90CF91DF9137
:101960000895DF93CF9300D0CDB7DEB79A838983F4
:1019700089819A8190936C0080936B000F900F90F7
:10198000CF91DF910895DF93CF93CDB7DEB7CF919D
:10199000DF910895DF93CF9300D0CDB7DEB79A8360
:1019A000898389819A8190936E0080936D000F9056
:1019B0000F90CF91DF910895DF93CF93CDB7DEB72E
:1019C0002E970FB6F894DEBF0FBECDBF8091C90130
:1019D0009091CA018230910508F44DC28091B10105
:1019E0008071882309F024C280916A00282F30E09A
:1019F0003E872D878D859E858230910509F4B9C07B
:101A00002D853E852330310554F48D859E850097C4
:101A1000C9F02D853E852130310589F10FC28D85B4
:101A20009E858530910509F454C12D853E8526306B
:101A3000310509F483C18D859E858330910509F4B4
:101A4000CDC0FCC1A9E5B0E0E9E5F0E080818F7789
:101A50008C93A2E3B0E0E2E3F0E080818F778C9397
:101A6000A8E3B0E0E8E3F0E0808180648C93A5E334
:101A7000B0E0E5E3F0E0808180688C93DFC1809185
:101A8000B201882309F04DC08091B1018074882390
:101A9000C1F08091D1019091D2019093EC0180939B
:101AA000EB018EE08093B2018091B1018F7B809336
:101AB000B101A9E5B0E0E9E5F0E0808180688C93B0
:101AC0001CC0A9E5B0E0E9E5F0E080818F778C9358
:101AD000A2E3B0E0E2E3F0E080818F778C93A8E3AB
:101AE000B0E0E8E3F0E0808180648C93A5E3B0E0AF
:101AF000E5E3F0E0808180688C9390918F019C8772
:101B00001B862C85243110F031E03B878C858F5F5C
:101B100080938F018B85882359F082E080936A003F
:101B200007C0A9E5B0E0E9E5F0E0808180688C932A
:101B30008091B1018870882309F480C1E0916B0025
:101B4000F0916C0080910A0290910B0209958091AE
:101B50000A0290910B029093BA018093B9011092FE
:101B60000B0210920A028091B101877F8093B1012C
:101B700065C1A9E5B0E0E9E5F0E080818F778C935D
:101B8000A2E3B0E0E2E3F0E080818F778C93A8E3FA
:101B9000B0E0E8E3F0E0808180648C93A5E3B0E0FE
:101BA000E5E3F0E0808180688C931092B60110929A
:101BB000060210928E0110928D018091B1018E7FEC
:101BC0008093B1018091B10180628093B10183E083
:101BD00080938F0183E080936A0030C18091B601C9
:101BE0008823E1F490918F019A8719862A85233002
:101BF00010F031E039878A858F5F80938F01898566
:101C0000882361F0A9E5B0E0E9E5F0E08081806833
:101C10008C9388E28093B60110928F018091E70146
:101C2000882369F080910602823048F01092060203
:101C300081E08093E70185E080936A00FFC0809196
:101C40000602863048F01092060281E08093E70198
:101C500085E080936A00F2C020918D0130918E0161
:101C600038872F831E828F8198858E30910510F0E2
:101C700091E09E838F819885019690938E01809349
:101C80008D012E81222309F4D9C01092E70185E04D
:101C900080936A00A9E5B0E0E9E5F0E080818F7704
:101CA0008C93A2E3B0E0E2E3F0E080818F778C9345
:101CB000A8E3B0E0E8E3F0E0808180648C93A5E3E2
:101CC000B0E0E5E3F0E0808180688C931092B6018B
:101CD000B5C0A9E5B0E0E9E5F0E080818F778C93AD
:101CE000A2E3B0E0E2E3F0E080818F778C93A8E399
:101CF000B0E0E8E3F0E0808180648C93A5E3B0E09D
:101D0000E5E3F0E0808180688C931092B601109238
:101D1000060210928E0110928D018091B1018160B6
:101D20008093B1018091B10180628093B10183E021
:101D300080938F0186E080936A0080C08091B60115
:101D40008823E1F430918F013D831C828D818330A3
:101D500010F091E09C838D818F5F80938F012C81A7
:101D6000222361F0A9E5B0E0E9E5F0E08081806838
:101D70008C9388E28093B60110928F018091F001DC
:101D8000882369F080910602823048F010920602A2
:101D900081E08093F00181E080936A004FC08091E0
:101DA0000602863048F01092060281E08093F0012E
:101DB00081E080936A0042C080918D0190918E01F4
:101DC0009B838A8319822A813B812E30310510F052
:101DD00031E039838A819B81019690938E018093B3
:101DE0008D018981882351F11092F00181E0809367
:101DF0006A00A9E5B0E0E9E5F0E080818F778C9397
:101E0000A2E3B0E0E2E3F0E080818F778C93A8E377
:101E1000B0E0E8E3F0E0808180648C93A5E3B0E07B
:101E2000E5E3F0E0808180688C931092B60106C0F3
:101E300010928E0110928D0110928F0190918C0161
:101E40008091E701981731F490918B018091F00116
:101E5000981769F08091E70180938C018091F001DF
:101E600080938B01E0916D00F0916E0009951092C6
:101E7000CA011092C9012E960FB6F894DEBF0FBEAC
:101E8000CDBFCF91DF910895DF93CF93CDB7DEB76C
:101E900010926A00A9E5B0E0E9E5F0E080818F7773
:101EA0008C93A2E3B0E0E2E3F0E080818F778C9343
:101EB000A8E3B0E0E8E3F0E0808180648C93A5E3E0
:101EC000B0E0E5E3F0E0808180688C931092F0014F
:101ED0001092E701CF91DF910895DF93CF93CDB7B3
:101EE000DEB7A9E5B0E0E9E5F0E080818F778C937B
:101EF000A2E3B0E0E2E3F0E080818F778C93A8E387
:101F0000B0E0E8E3F0E0808180648C93A5E3B0E08A
:101F1000E5E3F0E0808180688C931092F0011092EC
:101F2000E70181E080936A00CF91DF910895DF930C
:101F3000CF93CDB7DEB7A1E3B0E0E1E3F0E080817D
:101F40008F7B8C93A2E3B0E0E2E3F0E080818F7BB3
:101F50008C93A7E3B0E0E7E3F0E08081877F8C9388
:101F6000A8E3B0E0E8E3F0E08081877F8C93A8E30A
:101F7000B0E0E8E3F0E080818F7B8C93A5E3B0E0F4
:101F8000E5E3F0E080818F778C93CF91DF91089526
:101F9000DF93CF93CDB7DEB7A1E3B0E0E1E3F0E0AC
:101FA000808180648C93A2E3B0E0E2E3F0E0808182
:101FB00080648C93A7E3B0E0E7E3F0E08081877F63
:101FC0008C93A8E3B0E0E8E3F0E08081877F8C9316
:101FD000CF91DF910895DF93CF93CDB7DEB7A1E323
:101FE000B0E0E1E3F0E080818F7B8C93A2E3B0E08E
:101FF000E2E3F0E080818F7B8C93A7E3B0E0E7E33E
:10200000F0E0808188608C93A8E3B0E0E8E3F0E042
:10201000808188608C93CF91DF910895DF93CF9377
:10202000CDB7DEB7A1E3B0E0E1E3F0E0808180640A
:102030008C93A2E3B0E0E2E3F0E0808180648C93D3
:10204000A7E3B0E0E7E3F0E0808188608C93A8E349
:10205000B0E0E8E3F0E0808188608C93CF91DF917D
:102060000895DF93CF93CDB7DEB7A8E3B0E0E8E300
:10207000F0E0808180618C938091BC01843018F401
:1020800083E08093BC01CF91DF910895DF93CF93DC
:1020900000D0CDB7DEB7A8E3B0E0E8E3F0E08081A0
:1020A0008F7E8C938091BC01843090F48091BC0130
:1020B000882321F48091A701882329F081E090E012
:1020C0009A83898302C01A82198289818093BC0114
:1020D0000F900F90CF91DF9108951F920F920FB63E
:1020E0000F9211242F933F935F936F937F938F935E
:1020F0009F93AF93BF93EF93FF93DF93CF93CDB7AE
:10210000DEB72B97DEBFCDBF8091A2019091A301D6
:1021100001969093A3018093A2018091FD018F5FAE
:102120008093FD01209100022B871A868B858930D0
:1021300010F091E09A878B858F5F809300022A854B
:10214000222309F4ECC18091D501882F90E08170A1
:102150009070882349F08091D6019091D701019623
:102160009093D7018093D6018091D501882F90E07C
:1021700082709070009749F08091D8019091D901B8
:1021800001969093D9018093D8018091D501882F31
:1021900090E084709070009749F08091DA019091FE
:1021A000DB0101969093DB018093DA018091D501E8
:1021B000882F90E088709070009749F08091DC0142
:1021C0009091DD0101969093DD018093DC01809177
:1021D000D501882F90E080719070009749F0809130
:1021E000DE019091DF0101969093DF018093DE0183
:1021F0008091D501882F90E080729070009749F00F
:102200008091E0019091E10101969093E10180932A
:10221000E0018091D501882F90E080749070009744
:1022200049F08091E2019091E30101969093E301DE
:102230008093E2018091D50188234CF48091E401E0
:102240009091E50101969093E5018093E4018091DE
:10225000F101898718869985993C10F021E028873B
:1022600089858F5F8093F10188858823E9F08091CB
:10227000CF019091D001909302028093010280914E
:10228000F9019091FA019093C0018093BF011092DF
:10229000D0011092CF011092FA011092F90181E061
:1022A0008093BB011092F1018091BC01833008F052
:1022B000A3C08091BC01823009F06BC08091A7015E
:1022C000882309F04BC080919401909195019F83E0
:1022D0008E8328EC30E08E819F81B9010E94B71C6B
:1022E0001D82009711F491E09D838E819F8101965C
:1022F00090939501809394012D81222309F47CC051
:1023000080919401909195012FE0813A9207A8F075
:10231000A7E3B0E0E7E3F0E080818D7F8C93A8E352
:10232000B0E0E8E3F0E080818D7F8C931092BC01F7
:1023300010929501109294015FC0A7E3B0E0E7E32B
:10234000F0E0908182E089278C93A8E3B0E0E8E395
:10235000F0E0908182E089278C934EC08091A701A4
:102360008071882371F4A7E3B0E0E7E3F0E08081B7
:102370008D7F8C93A8E3B0E0E8E3F0E080818D7F6F
:102380008C93109295011092940181E08093BC018E
:1023900033C080919401909195012EE2813E920785
:1023A00010F18091BC018130B1F41092BC01809198
:1023B000A7018071882391F4A7E3B0E0E7E3F0E0A0
:1023C00080818D7F8C93A8E3B0E0E8E3F0E080812A
:1023D0008D7F8C9303C082E08093BC0110929501A5
:1023E0001092940109C080919401909195010196F9
:1023F00090939501809394018091C9019091CA01B5
:102400008330910548F48091C9019091CA010196E9
:102410009093CA018093C9018091E901873328F420
:102420008091E9018F5F8093E9018091F401843309
:1024300028F48091F4018F5F8093F4018091EF0183
:102440008C831B829C81933010F021E02B838C8144
:102450008F5F8093EF018B81882309F45EC08091A8
:10246000EA01282F30E08091CD019091CE0128170C
:102470003907D9F08091EA01282F30E08091CD0111
:102480009091CE012817390734F48091EA018F5FCB
:102490008093EA0105C08091EA0181508093EA01AE
:1024A000EAE4F0E08091EA01808380910C02282F19
:1024B00030E08091BD019091BE0128173907D9F015
:1024C00080910C02282F30E08091BD019091BE01D7
:1024D0002817390734F480910C028F5F80930C0227
:1024E00005C080910C02815080930C02E8E4F0E07A
:1024F00080910C02808380910C02882321F48091CA
:10250000EA01882329F0EFE4F0E082EA808303C047
:10251000EFE4F0E010821092EF011092000280913F
:10252000B1018870882309F077C080919001909163
:1025300091019A838983809192018F5F80939201A8
:10254000809192018631F0F089819A818070907437
:10255000009789F489819A8180709072009759F070
:1025600089819A8190930B0280930A028091B10134
:1025700088608093B1018091B1018F7E8093B10119
:102580001A821982E6E3F0E0908180919301892715
:10259000882F90E0847090700097C1F18091930132
:1025A00080958093930180919201873038F48091D7
:1025B000B1018F7E8093B1011A82198289819A813B
:1025C000009721F0809192018F3000F18091B1014C
:1025D00080618093B10189819A81807090740097A5
:1025E00031F489819A81880F991F9A838983809118
:1025F0009301882F90E084709070009729F489816E
:102600009A8181609A8389831092920189819A814B
:1026100090939101809390012B96DEBFCDBFCF9117
:10262000DF91FF91EF91BF91AF919F918F917F913A
:102630006F915F913F912F910F900FBE0F901F9060
:102640001895DF93CF930F92CDB7DEB789831092A1
:10265000FD019091FD0189819817D8F30F90CF91DA
:10266000DF910895DF93CF9300D00F92CDB7DEB7FF
:102670009A83898303C08AE00E9421131B82898187
:102680009A81009711F081E08B8389819A8101976B
:102690009A8389838B81882371F70F900F900F9015
:1026A000CF91DF910895DF93CF9300D00F92CDB7F4
:1026B000DEB79A83898301C000001B8289819A81D9
:1026C000009711F081E08B8389819A8101979A8329
:1026D00089838B81882381F70F900F900F90CF9182
:1026E000DF910895DF93CF93CDB7DEB7AAE3B0E0D3
:1026F000EAE3F0E0808180618C93ABE3B0E0EBE350
:10270000F0E0808180618C93CF91DF910895DF9319
:10271000CF93CDB7DEB7ABE3B0E0EBE3F0E0808181
:102720008F7E8C93AAE3B0E0EAE3F0E080818F7EB5
:102730008C93CF91DF910895DF93CF93CDB7DEB720
:102740000E9480040E94DC0C0E9408040E9418066B
:10275000CF91DF910895DF93CF930F92CDB7DEB77E
:10276000EBE3F0E01082E8E3F0E01082E5E3F0E074
:102770001082E2E3F0E081E08083EAE3F0E010829F
:10278000E7E3F0E088E58083E4E3F0E08CE8808331
:10279000E1E3F0E082EF8083F894A8E3B0E0E8E3BF
:1027A000F0E080818F7D8C93A7E3B0E0E7E3F0E079
:1027B000808180628C938C91A2E3B0E0E2E3F0E050
:1027C00080818F778C930E94970FE0E4F0E0108275
:1027D000E9E2F0E08CE08083EBE2F0E01082E0E4FC
:1027E000F0E086E88083EAE2F0E088E98083E7E2CF
:1027F000F0E01082E6E2F0E086E18083E0E5F0E0E0
:102800001082E5E5F0E085E08083EBE5F0E080EE26
:102810008083E4E5F0E01082E3E5F0E08AE0808385
:10282000ECE5F0E083E68083EFE4F0E082EA808389
:10283000EEE4F0E081E18083E6E4F0E082ED90E018
:1028400091838083EAE4F0E01082E8E4F0E0108213
:1028500080E060E00E943B0BE5E4F0E089E08083EB
:10286000E3E4F0E08EE68083E9E5F0E082E0808357
:102870008091B10181608093B10181E080936A0011
:1028800078940F90CF91DF910895DF93CF930F92BB
:10289000CDB7DEB78983F894E2E2F0E089818083E6
:1028A000E3E2F0E08FEF8083E6E5F0E084E0808310
:1028B0007894E6E5F0E085EC80830F90CF91DF918E
:1028C00008951F920F920FB60F9211242F933F93EA
:1028D0008F939F93AF93BF93EF93FF93DF93CF9328
:1028E00000D0CDB7DEB7E1E2F0E08081282F30E004
:1028F0003A83298389819A818039910509F49CC0A2
:1029000029813A81213931059CF489819A81803766
:10291000910509F489C029813A812038310509F4EB
:102920005AC089819A818036910509F449C098C0BE
:1029300029813A81283A3105B9F089819A81893A09
:1029400091053CF429813A81203A310509F47EC091
:1029500087C089819A81883B910561F029813A81FC
:10296000203C3105F9F07CC084E080939A0181E03D
:102970008093980180919A01843079F4A3E2B0E0C9
:1029800020919B01822F90E0FC01E05EFD4F808151
:102990008C93822F8F5F80939B01E6E5F0E085ECBE
:1029A000808362C010929A0110929B01109298014C
:1029B00081E080939601E6E5F0E085EC808354C0E9
:1029C00081E08093990182E080939A01E6E5F0E04E
:1029D00085EC808349C080919A01823069F4E3E2FA
:1029E000F0E0808180939B0180919B01809397010F
:1029F00083E080939A0113C080919A01833079F427
:102A000030919B01832F90E0E3E2F0E02081FC0114
:102A1000E05FFD4F2083832F8F5F80939B01E6E56E
:102A2000F0E085EC808320C081E080939A01E6E5A8
:102A3000F0E085EC808318C0E3E2F0E080818093D1
:102A40000F02E6E5F0E085EC80830EC085E0809320
:102A50009A01E6E5F0E085EC80831092990104C0CC
:102A6000E6E5F0E084E880830F900F90CF91DF914E
:102A7000FF91EF91BF91AF919F918F913F912F91D6
:102A80000F900FBE0F901F901895DF93CF930F926A
:102A9000CDB7DEB78983EBE2F0E08081882F90E04C
:102AA000807290700097B9F3ECE2F0E08981808346
:102AB0000F90CF91DF910895DF93CF9300D0CDB7E2
:102AC000DEB79A8389830BC0E981FA8120818981ED
:102AD0009A8101969A838983822F0E944515E98104
:102AE000FA818081882381F70F900F90CF91DF9139
:102AF0000895DF93CF9300D000D000D0CDB7DEB7DC
:102B00009E838D8303C08C810E9445158D819E819B
:102B10009B838A838D819E8101969E838D83EA812A
:102B2000FB818491898389818C838C81882359F7E7
:102B300026960FB6F894DEBF0FBECDBFCF91DF91C2
:102B40000895DF93CF9300D000D0CDB7DEB79A833E
:102B500089836B834C838C81282F30E089819A8113
:102B6000820F931F9A8389830EC0E981FA812081A5
:102B700089819A8101969A838983822F0E944515C3
:102B80008B8181508B83E981FA818081882319F0C0
:102B90008B81882351F70F900F900F900F90CF915A
:102BA000DF910895DF93CF93CDB7DEB764970FB66B
:102BB000F894DEBF0FBECDBF9B8B8A8B6C8B8C894C
:102BC000482F50E08A899B899E012F5F3F4FB901B2
:102BD0000E942D1DCE0101960E945C1564960FB6D1
:102BE000F894DEBF0FBECDBFCF91DF910895DF9384
:102BF000CF93CDB7DEB766970FB6F894DEBF0FBEA2
:102C0000CDBF9C8B8B8B6D8B4E8B8D89482F50E06D
:102C10008B899C899E012E5F3F4FB9010E942D1D1B
:102C2000CE0102960E94241D982F8E89891B8983CC
:102C3000898118167CF406C089818150898380E3DC
:102C40000E94451589811816BCF3CE0102960E9498
:102C50005C1509C089818195282FCE0102966E8965
:102C6000422F0E94A11566960FB6F894DEBF0FBEE4
:102C7000CDBFCF91DF9108951F920F920FB60F92A3
:102C800011242F933F938F939F93EF93FF93DF93A1
:102C9000CF93CDB7DEB780919F0190919E01891BA4
:102CA0008032E8F490919D01292F30E0ECE2F0E0D1
:102CB0008081F901EF5AFD4F8083892F8F5F8093C8
:102CC0009D0180919F018F5F80939F0180919D0165
:102CD000813210F010929D011092500208C0ECE277
:102CE000F0E080818093A00181E080935002CF9139
:102CF000DF91FF91EF919F918F913F912F910F90D5
:102D00000FBE0F901F901895DF93CF930F92CDB702
:102D1000DEB71092500290919F0180919E0198170A
:102D2000C9F080919E018F5F80939E0180919C01EC
:102D3000813210F010929C0120919C01822F90E032
:102D4000FC01EF5AFD4F80818983822F8F5F809332
:102D50009C0101C0198289810F90CF91DF91089564
:102D6000DF93CF9300D000D0CDB7DEB79B838A83AB
:102D70006C8319821092500223C080919E018F5F54
:102D800080939E018981282F30E08A819B81DC011C
:102D9000A20FB31F20919C01822F90E0FC01EF5AFB
:102DA000FD4F80818C9389818F5F8983822F8F5F14
:102DB00080939C0180919C01813210F010929C01C3
:102DC00090919F0180919E01981721F099818C81AB
:102DD000981798F289810F900F900F900F90CF91D4
:102DE000DF910895DF93CF93CDB7DEB790919F0128
:102DF00080919E01292F281B822FCF91DF9108956A
:102E0000DF93CF93CDB7DEB7AAE2B0E0EAE2F0E01D
:102E100080818F778C93ECE2F0E080818093A10138
:102E200010929C0110929D0110929E0110929F01A0
:102E300010925002AAE2B0E0EAE2F0E080818068FD
:102E40008C93CF91DF910895EF92FF920F931F9390
:102E50007B018C0120E030E040E05FE40E94A61995
:102E600088238CF0C801B70120E030E040E05FE447
:102E70000E949C180E94D6199B01AC012050304042
:102E80004040504806C0C801B7010E94D6199B01B6
:102E9000AC01B901CA011F910F91FF90EF90089505
:102EA000A0E0B0E0E6E5F7E10C94ED1CDC012B01BD
:102EB000FA019C91923008F439C1EB01888182308B
:102EC00008F433C1943069F4843009F02FC11196AD
:102ED0009C9111978981981709F428C1AFE6B0E059
:102EE00025C1843009F421C18230A9F4923009F05F
:102EF0001DC19A01AD0188E0EA010990AE01E90126
:102F000009929E018150C1F7E201898111969C913D
:102F10008923818308C1923009F407C112962D904C
:102F20003C901397EB018A819B811496AD90BD90E4
:102F3000CD90DC901797EC80FD800E811F81910170
:102F4000281B390BB90137FF04C066277727621B9E
:102F5000730B603271050CF061C0121613066CF52C
:102F600037014801062E04C096948794779467949D
:102F70000A94D2F721E030E040E050E004C0220F94
:102F8000331F441F551F6A95D2F7215030404040EF
:102F900050402E213F214023512321153105410569
:102FA000510521F021E030E040E050E079018A0154
:102FB000E628F728082919293CC0232BD1F1260E31
:102FC000371E35014601062E04C0969487947794E7
:102FD00067940A94D2F721E030E040E050E004C06A
:102FE000220F331F441F551F6A95D2F721503040DE
:102FF000404050402A213B214C215D2121153105C3
:103000004105510521F021E030E040E050E0590158
:103010006A01A628B728C828D9280BC082159305AD
:103020002CF01C01AA24BB24650103C0EE24FF245C
:10303000870111969C91D20111968C91981709F4F1
:1030400045C0992339F0A80197012A193B094C0979
:103050005D0906C0A60195012E193F09400B510BD1
:1030600057FD08C011823382228224833583468330
:1030700057831DC081E0818333822282882799276C
:10308000DC01821B930BA40BB50B84839583A68371
:10309000B7830DC0220F331F441F551F2483358370
:1030A000468357838281938101979383828324810E
:1030B000358146815781DA01C9010197A109B1091A
:1030C0008F5F9F4FAF4FBF4328F30BC09183338275
:1030D0002282EA0CFB1C0C1D1D1DE482F582068376
:1030E000178383E08083248135814681578157FF90
:1030F0001AC0C901AA2797FDA095BA2F81709070B8
:10310000A070B0705695479537952795822B932BD5
:10311000A42BB52B84839583A683B7838281938167
:10312000019693838283DF0101C0D201CD01CDB727
:10313000DEB7E2E10C94091DA0E2B0E0E2EAF8E1BA
:103140000C94F91C69837A838B839C832D833E8343
:103150004F835887E9E0EE2EF12CEC0EFD1ECE01D8
:103160000196B7010E94C71B8E010F5E1F4FCE0153
:103170000596B8010E94C71B8A8991E089278A8B2E
:10318000C701B801AE01475E5F4F0E9450170E9411
:10319000F21AA096E6E00C94151DA0E2B0E0E3ED73
:1031A000F8E10C94F91C69837A838B839C832D83CB
:1031B0003E834F835887F9E0EF2EF12CEC0EFD1E75
:1031C000CE010196B7010E94C71B8E010F5E1F4FF3
:1031D000CE010596B8010E94C71BC701B801AE0118
:1031E000475E5F4F0E9450170E94F21AA096E6E0D9
:1031F0000C94151DA8E1B0E0E0E0F9E10C94F51C99
:1032000069837A838B839C832D833E834F83588786
:10321000B9E0EB2EF12CEC0EFD1ECE010196B701AC
:103220000E94C71B8E010F5E1F4FCE010596B8018D
:103230000E94C71B2985223008F47EC039893230AC
:1032400010F4B8017CC08A859A8989278A8724303E
:1032500011F0223031F4231709F06EC06FE670E0F0
:103260006EC0343039F41D861E861F86188A1C866F
:103270001B8604C0323021F484E08987B7015FC027
:103280002B853C858B899C89281B390B3C872B8798
:10329000ED84FE840F851889AD88BE88CF88D88CD0
:1032A000EA14FB040C051D0540F4EE0CFF1C001F86
:1032B000111F215030403C872B8720E030E040E058
:1032C00050E080E090E0A0E0B0E460E070E0EA145C
:1032D000FB040C051D0540F0282B392B4A2B5B2BDA
:1032E000EA18FB080C091D09B695A79597958795CF
:1032F000EE0CFF1C001F111F6F5F7F4F6F317105B8
:1033000031F7DA01C9018F779070A070B070803406
:103310009105A105B10561F427FD0AC0E114F1048E
:103320000105110529F0205C3F4F4F4F5F4F20787A
:103330002D873E874F87588BBE01675F7F4FCB013C
:103340000E94F21A6896EAE00C94111DA8E1B0E020
:10335000ECEAF9E10C94F91C69837A838B839C83F2
:103360002D833E834F83588789E0E82EF12CEC0EA5
:10337000FD1ECE010196B7010E94C71B8E010F5E94
:103380001F4FCE010596B8010E94C71B8985823068
:1033900040F08989823028F0C701B8010E943F1CA3
:1033A00001C08FEF6896E6E00C94151DACE0B0E02C
:1033B000ECEDF9E10C94FD1C69837A838B839C838B
:1033C000CE010196BE016B5F7F4F0E94C71B8D81AE
:1033D000823061F1823050F1843021F48E81882373
:1033E00051F12EC02F81388537FD20C06E812F31DD
:1033F00031051CF06623F9F023C08EE190E0821BBA
:10340000930B29853A854B855C8504C05695479575
:10341000379527958A95D2F76623B1F05095409558
:10342000309521953F4F4F4F5F4F0EC020E030E069
:1034300040E050E009C02FEF3FEF4FEF5FE704C0DF
:1034400020E030E040E050E8B901CA012C96E2E00B
:103450000C94191DA8E0B0E0E0E3FAE10C94F51C2F
:103460007B018C01611571058105910519F482E0DC
:10347000898360C083E089838EE1C82ED12CDC82F1
:10348000CB82ED82FE820F831887C801B7010E94AC
:10349000A31AFC013197F7FF3BC0222733272E1BCD
:1034A0003F0B57016801022E04C0D694C794B7940D
:1034B000A7940A94D2F740E050E060E070E081E029
:1034C00090E0A0E0B0E004C0880F991FAA1FBB1FC6
:1034D0002A95D2F70197A109B1098E219F21A02336
:1034E000B1230097A105B10521F041E050E060E073
:1034F00070E04A295B296C297D294D835E836F83A7
:1035000078878EE190E08E1B9F0B9C838B8312C08B
:10351000309781F00E2E04C0EE0CFF1C001F111F0F
:103520000A94D2F7ED82FE820F831887CE1ADF0A43
:10353000DC82CB821A82CE0101960E94F21A289672
:10354000EAE00C94111DEF92FF920F931F937B0101
:103550008C0180E0E81680E0F80681E0080780E052
:10356000180788F48FEFE816F1040105110531F012
:1035700028F088E090E0A0E0B0E017C080E090E0A4
:10358000A0E0B0E012C080E0E81680E0F80680E03D
:10359000080781E0180728F088E190E0A0E0B0E09B
:1035A00004C080E190E0A0E0B0E020E230E040E044
:1035B00050E0281B390B4A0B5B0B04C0169507958E
:1035C000F794E7948A95D2F7F701E958FF4F808185
:1035D000281B310941095109C9011F910F91FF9021
:1035E000EF900895DF92EF92FF920F931F93FC01EB
:1035F000E480F58006811781D1808081823048F493
:1036000080E090E0A0E1B0E0E82AF92A0A2B1B2B29
:10361000A5C0843009F49FC0823021F4EE24FF2439
:10362000870105C0E114F1040105110519F4E0E07A
:10363000F0E096C0628173819FEF623879070CF0E9
:103640005BC022E83FEF261B370B2A3131052CF0F7
:1036500020E030E040E050E02AC0B801A701022E8F
:1036600004C076956795579547950A94D2F781E0FF
:1036700090E0A0E0B0E004C0880F991FAA1FBB1F14
:103680002A95D2F70197A109B1098E219F21A02384
:10369000B1230097A105B10521F081E090E0A0E001
:1036A000B0E09A01AB01282B392B4A2B5B2BDA01B6
:1036B000C9018F779070A070B07080349105A1051A
:1036C000B10539F427FF09C0205C3F4F4F4F5F4FD2
:1036D00004C0215C3F4F4F4F5F4FE0E0F0E02030EF
:1036E000A0E03A07A0E04A07A0E45A0710F0E1E0A2
:1036F000F0E079018A0127C06038710564F5FB01AB
:10370000E158FF4FD801C7018F779070A070B0705B
:1037100080349105A105B10539F4E7FE0DC080E4C0
:1037200090E0A0E0B0E004C08FE390E0A0E0B0E063
:10373000E80EF91E0A1F1B1F17FF05C016950795F7
:10374000F794E794319687E016950795F794E794F8
:103750008A95D1F705C0EE24FF248701EFEFF0E052
:103760006E2F679566276795902F9F77D794DD24F6
:10377000D7948E2F8695492F462B582F5D29B70158
:10378000CA011F910F91FF90EF90DF900895FC0107
:10379000DB01408151812281622F6F7770E0221F0F
:1037A0002227221F9381892F880F822B282F30E018
:1037B000991F9927991F11969C93119721153105EF
:1037C000A9F5411551056105710511F482E037C075
:1037D00082E89FEF13969C938E9312979A01AB0108
:1037E00067E0220F331F441F551F6A95D1F783E00E
:1037F0008C930DC0220F331F441F551F12968D91BD
:103800009C911397019713969C938E931297203057
:1038100080E0380780E0480780E4580758F31496A2
:103820002D933D934D935C93179708952F3F31054A
:1038300079F4411551056105710519F484E08C9303
:10384000089564FF03C081E08C9312C01C9210C0E5
:103850002F57304013963C932E93129783E08C930E
:1038600087E0440F551F661F771F8A95D1F7706454
:1038700014964D935D936D937C93179708951F93C2
:10388000DC01FB019C91923008F447C080818230BA
:1038900008F443C0943051F411961C91843099F58A
:1038A0008181682F70E0611B71093FC0843021F075
:1038B000923031F48230B9F18181882389F12DC0B1
:1038C00011961C9111978230F1F081811817D9F46B
:1038D00012962D913C9113978281938182179307C1
:1038E00094F028173907BCF014968D919D910D9096
:1038F000BC91A02D24813581468157812817390735
:103900004A075B0718F4112341F00AC08217930796
:10391000A407B50740F4112319F061E070E005C079
:103920006FEF7FEF02C060E070E0CB011F91089560
:10393000629FD001739FF001829FE00DF11D649F93
:10394000E00DF11D929FF00D839FF00D749FF00D1F
:10395000659FF00D9927729FB00DE11DF91F639FC0
:10396000B00DE11DF91FBD01CF0111240895AA1B5F
:10397000BB1B51E107C0AA1FBB1FA617B70710F05A
:10398000A61BB70B881F991F5A95A9F7809590958C
:10399000BC01CD010895A1E21A2EAA1BBB1BFD019B
:1039A0000DC0AA1FBB1FEE1FFF1FA217B307E4071E
:1039B000F50720F0A21BB30BE40BF50B661F771F76
:1039C000881F991F1A9469F7609570958095909556
:1039D0009B01AC01BD01CF0108952F923F924F9200
:1039E0005F926F927F928F929F92AF92BF92CF928F
:1039F000DF92EF92FF920F931F93CF93DF93CDB798
:103A0000DEB7CA1BDB0B0FB6F894DEBF0FBECDBF0F
:103A100009942A88398848885F846E847D848C84E0
:103A20009B84AA84B984C884DF80EE80FD800C81E9
:103A30001B81AA81B981CE0FD11D0FB6F894DEBFCC
:103A40000FBECDBFED010895FC0101900020E9F704
:103A5000809590958E0F9F1F0895FB019F01E8941C
:103A60004230C4F04532B4F44A3029F497FB1EF4D6
:103A7000909581959F4F642F77270E94B71C805D9A
:103A80008A330CF0895D8193CB010097A1F716F47E
:103A90005DE251931082C9010C944E1DDC01FC01C2
:103AA000672F71917723E1F7329704C07C916D9372
:103AB00070836291AE17BF07C8F30895F894FFCFE3
:103AC000505000000001EF03710501A50CC30C006C
:103AD00000000000000000000102020303030304D1
:103AE000040404040404040505050505050505058D
:103AF000050505050505050606060606060606066D
:103B00000606060606060606060606060606060655
:103B1000060606060606060707070707070707073C
:103B20000707070707070707070707070707070725
:103B30000707070707070707070707070707070715
:103B40000707070707070707070707070707070705
:103B500007070707070707080808080808080808EC
:103B600008080808080808080808080808080808D5
:103B700008080808080808080808080808080808C5
:103B800008080808080808080808080808080808B5
:103B900008080808080808080808080808080808A5
:103BA0000808080808080808080808080808080895
:103BB0000808080808080808080808080808080885
:103BC0000808080808080808080808080808080875
:083BD0000808080808080800B5
:00000001FF
